S123C0007EC3AB7E7FE87EC6FA7EC7047EC7187EC7147EC7327EC7307EC7397EC7547EC7C6
S123C020687EC70B7EC7347EC7D17EC7DC0D0A040D0A3E20040D0A0A4D4333206D6F6E6949
S123C040746F7220312E342E320D0A44616E69656C20547566766573736F6E20323031333D
S123C0602D323031370D0A0D0A20472020476F2028525449290D0A204A20204A756D70205D
S123C080746F20616464726573730D0A204C20204C6F6164205331392066726F6D20636FCD
S123C0A06E736F6C650D0A204D43204D656D6F7279206368616E67650D0A204D44204D65DB
S123C0C06D6F72792064756D700D0A204D46204D656D6F72792066696C6C0D0A204D57209A
S123C0E04D656D6F72792077726974650D0A205252205072696E7420636F6E74656E7473E2
S123C100206F6620737461636B0D0A205243204368616E676520737461636B2043430D0ACB
S123C120205241204368616E676520737461636B20410D0A205242204368616E6765207387
S123C1407461636B20420D0A205258204368616E676520737461636B20580D0A20525020E8
S123C1604368616E676520737461636B2050430D0A205253204368616E676520737461637F
S123C1806B20706F696E7465720D0A20524D20526573657420737461636B20706F696E7496
S123C1A065720D0A2050202053656C65637420492F4F20706167650D0A2053202053696EE5
S123C1C0676C6520737465700D0A20582020456E74657220657874656E64656420524F4DFB
S123C1E00D0A040D0A4343204220204120205820202020504320202053502020202020480A
S123C2002049204E205A205620430D0A040D0A4144445220203020203120203220203320BD
S123C2202034202035202036202037202020382020392020412020422020432020442020E9
S123C240452020460D0A040D0A4C6F616420533139207265636F72640D0A040D0A0A4C6FEA
S123C2606164206661696C202D205072657373205920746F20636F6E74696E75650D0A04A3
S123C2800D0A4C6F6164204F4B0D0A040D0A53544F50040D0A54524150048E7EFFBF7F072B
S123C2A0BDC78CBDC6BE86FF97008680970286009714CEC030BDC704BDC6FA810D27F3844E
S123C2C0DF814826037EC383814726037EC38C814A26037EC393815226037EC337814D26D7
S123C2E0037EC307814C26037EC5BE815026037EC648815326037EC669815826037ED00078
S123C300863FBD7FE820ABBDC6FA810D26037EC2B284DF814326037EC47E815726037EC4EC
S123C320BA814626037EC4F9814426037EC541863FBD7FE87EC2B2BDC6FA810D26037EC253
S123C340B284DF815226037EC3B1814126037EC3F6814226037EC408815826037EC41A819F
S123C3605026037EC432814326037EC44A815326037EC45C814D26037EC46D863FBD7FE829
S123C3807EC2B2CEC035BDC7047EC2B2BDC70BBE7F073BBDC734BDC7682408BDC70BBE7FC0
S123C3A0076E00863FBD7FE87EC2B2BF7F077EC2B2CEC1E3BDC704FE7F0708BDC732BDC732
S123C3C032BDC732BDC730BDC730CE7F07BDC730BDC734FE7F07E601CE00065858BDC734A2
S123C3E05825088630BD7FE87EC3F08631BD7FE80926EA7EC2B2863DBD7FE8FE7F07BDC7D4
S123C400542473A7037EC2B2863DBD7FE8FE7F07BDC7542461A7027EC2B2863DBD7FE8BD8A
S123C420C7682452FF7F0BFE7F07FC7F0BED047EC2B2863DBD7FE8BDC768243AFF7F0BFE25
S123C4407F07FC7F0BED067EC2B2863DBD7FE8FE7F07BDC754241FA7017EC2B2863DBD7FC8
S123C460E8BDC7682410FF7F07357EC2B28E7EFFBF7F07BDC2B2863FBD7FE87EC2B2BDC724
S123C48034BDC768242CBDC70BCE7F0BBDC730FE7F0BBDC732FF7F0BBDC754240E09A7000C
S123C4A0A10027E2863FBD7FE820DB81DD27D77EC2B2863FBD7FE87EC2B2BDC734BDC7681D
S123C4C0242FFF7F0B7F7F0ABDC70BCE7F0BBDC730FE7F0BBDC75425087D7F0A26E77EC2F9
S123C4E0B2A7008601B77F0A08FF7F0BBDC73420E3863FBD7FE87EC2B2BDC734BDC7682429
S123C50030FF7F0D862DBD7FE8BDC7682423FF7F0BBC7F0D231B08FF7F0BBDC734BDC75422
S123C520240F16FE7F0DE70008BC7F0B26F87EC2B2863FBD7FE87EC2B2863FBD7FE87EC2DB
S123C540B2BDC734BDC76824F0FF7F0BBDC70BB67F0C84F0B77F0CCEC20DBDC7048610B7EC
S123C5607F0ACE7F0BBDC730BDC734FE7F0BFF7F0DBDC732FF7F0BB67F0C840F8108260392
S123C580BDC734810026EAFE7F0DFF7F0BBDC734A600817E220481202C02862EBD7FE80809
S123C5A0FF7F0BB67F0C840F26E6BDC70B7A7F0A270220AEBDC6FA810D27947EC2B2CEC23D
S123C5C047BDC704860DBD7FE88639B77FE8BDC6FA815326F4BDC6FA81392757813126E913
S123C5E07F7F09BDC75416FB7F09F77F098002B77F0ABDC7682425F67F09FB7F0BFB7F0CC0
S123C600F77F09BDC75416FB7F09F77F097A7F0A2705A7000820EC7C7F0927A8867EB77FB0
S123C620E8CEC25BBDC704BD7FEB84DF815926F77EC2B2BDC6FA810D26F9867EB77FE8CE0E
S123C640C280BDC7047EC2B2863DBD7FE886FF9700BDC739240481072308863FBD7FE87E18
S123C660C2B28A8097027EC2B2BDC70BBE7F0730A60084EFA700C61F5AC10026FBCEC68FA6
S123C680FF7FEFCEFFEDDF09DE08860497083BBF7F07CEC77AFF7FEFDE0886009708FE7FF4
S123C6A007C6063AEE008CC00022C1FF7F0DF67F0DC17F27B7CEC28CBDC7047EC3B1860500
S123C6C09710860A971196123937D61158585824F9971333399612961184C0810027F88189
S123C6E04027F29612399612961184C081002707814027F2860139860039BD7FEB7E7FE855
S123C700BD7FE808A600810426F6393CCEC02DBDC704383944444444840F8B30813923023C
S123C7208B077E7FE8A600BDC714A600087EC7188DF38DF186207E7FE8BDC6FA80302B1242
S123C74081092F0C84DF81112B0881162E0480070D390C39BDC739240D4848484816BDC765
S123C7603924031B0D390C398DEA240DB77F0B8DE32406B77F0CFE7F0B39BF7F077EC3B1F2
S123C780BF7F07CEC293BDC7047EC3B1867ECEC77AB77FFDFF7FFEB77FFAFF7FFBB77FF71B
S123C7A0FF7FF8B77FF4FF7FF5B77FF1FF7FF2B77FEEFF7FEFCEC6C9B77FE8FF7FE9CEC6C4
S123C7C0D7B77FEBFF7FECCEC6E8B77FE5FF7FE639960236D702A60033D702393696023629
S10CC7E0D7023332A700D7023955
S105FFEEC780C6
S111FFF27FEE7FF17FF47FF77FFA7FFDC29AE6
S9030000FC
