S123B0007EB3A97E00D37EB29A7EB6AE7EB6C27EB6BE7EB6DC7EB6DA7EB6E37EB6FE7EB7D1
S123B020127EB6B57EB6DE7EB7647EB76F0D0A040D0A3E20040D0A0A4D4333206D6F6E6977
S123B040746F7220312E342E310D0A44616E69656C20547566766573736F6E20323031334E
S123B0602D323031350D0A0D0A20472020476F2028525449290D0A204A20204A756D70206F
S123B080746F20616464726573730D0A204C20204C6F6164205331392066726F6D20636FDD
S123B0A06E736F6C650D0A204D43204D656D6F7279206368616E67650D0A204D44204D65EB
S123B0C06D6F72792064756D700D0A204D46204D656D6F72792066696C6C0D0A204D5720AA
S123B0E04D656D6F72792077726974650D0A205252205072696E7420636F6E74656E7473F2
S123B100206F6620737461636B0D0A205243204368616E676520737461636B2043430D0ADB
S123B120205241204368616E676520737461636B20410D0A205242204368616E6765207397
S123B1407461636B20420D0A205258204368616E676520737461636B20580D0A20525020F8
S123B1604368616E676520737461636B2050430D0A205253204368616E676520737461638F
S123B1806B20706F696E7465720D0A20524D20526573657420737461636B20706F696E74A6
S123B1A065720D0A2050202053656C65637420492F4F20706167650D0A2053202053696EF5
S123B1C0676C6520737465700D0A20582020456E74657220657874656E64656420524F4D0B
S123B1E00D0A040D0A4343204220204120205820202020504320202053502020202020481A
S123B2002049204E205A205620430D0A040D0A4144445220203020203120203220203320CD
S123B2202034202035202036202037202020382020392020412020422020432020442020F9
S123B240452020460D0A040D0A4C6F616420533139207265636F72640D0A040D0A0A4C6FFA
S123B2606164206661696C202D205072657373205920746F20636F6E74696E75650D0A04B3
S123B2800D0A4C6F6164204F4B0D0A040D0A53544F50040D0A54524150049DD67E00D38E39
S123B2A000C09FC8BDB731BDB66F86FF97008687970286409714CEB030BDB6AEBDB29A8150
S123B2C00D27F384DF814826037EB384814726037EB38D814A26037EB393815226037EB3A5
S123B2E039814D26037EB30A814C26037EB586815026037EB602815326037EB621815826AF
S123B300037ED000863F9DD320ACBDB29A810D26037EB2B684DF814326037EB4658157264C
S123B320037EB49D814626037EB4D7814426037EB516863F9DD37EB2B6BDB29A810D26032C
S123B3407EB2B684DF815226037EB3AE814126037EB3EF814226037EB3FF815826037EB46A
S123B3600F815026037EB423814326037EB437815326037EB447814D26037EB456863F9DBE
S123B380D37EB2B6CEB035BDB6AE7EB2B6BDB6B59EC83BBDB6DEBDB7122407BDB6B59EC8DD
S123B3A06E00863F9DD37EB2B69FC87EB2B6CEB1E3BDB6AEDEC808BDB6DCBDB6DCBDB6DC95
S123B3C0BDB6DABDB6DACE00C8BDB6DABDB6DEDEC8E601CE00065858BDB6DE5825078630FF
S123B3E09DD37EB3E986319DD30926EC7EB2B6863D9DD3DEC8BDB6FE2464A7037EB2B686AF
S123B4003D9DD3DEC8BDB6FE2454A7027EB2B6863D9DD3BDB7122446DFCCDEC8DCCCED0450
S123B4207EB2B6863D9DD3BDB7122432DFCCDEC8DCCCED067EB2B6863D9DD3DEC8BDB6FEF7
S123B440241CA7017EB2B6863D9DD3BDB712240EDFC8357EB2B68E00C09FC8BDB2B6863FCE
S123B4609DD37EB2B6BDB6DEBDB7122429BDB6B5CE00CCBDB6DADECCBDB6DCDFCCBDB6FE2A
S123B480240D09A700A10027E4863F9DD320DE81DD27DA7EB2B6863F9DD37EB2B6BDB6DE37
S123B4A0BDB712242BDFCC7F00CBBDB6B5CE00CCBDB6DADECCBDB6FE25087D00CB26E87E93
S123B4C0B2B6A700860197CB08DFCCBDB6DE20E5863F9DD37EB2B6BDB6DEBDB7122429DF49
S123B4E0CE862D9DD3BDB712241EDFCC9CCE231808DFCCBDB6DEBDB6FE240D16DECEE700F0
S123B500089CCC26F97EB2B6863F9DD37EB2B6863F9DD37EB2B6BDB6DEBDB71224F1DFCCE5
S123B520BDB6B596CD84F097CDCEB20DBDB6AE861097CBCE00CCBDB6DABDB6DEDECCDFCE6F
S123B540BDB6DCDFCC96CD840F81082603BDB6DE810026ECDECEDFCCBDB6DEA600817E22F2
S123B5600481202C02862E9DD308DFCC96CD840F26E9BDB6B57A00CB270220B7BDB29A8121
S123B5800D27A07EB2B6CEB247BDB6AE860D9DD3863997D3BDB29A815326F5BDB29A81391E
S123B5A0274C813126EA7F00CABDB6FE16DBCAD7CA800297CBBDB712241FD6CADBCCDBCDA0
S123B5C0D7CABDB6FE16DBCAD7CA7A00CB2705A7000820EE7C00CA27B3867E97D3CEB25B62
S123B5E0BDB6AE9DD684DF815926F87EB2B6BDB29A810D26F9867E97D3CEB280BDB6AE7EAF
S123B600B2B6863D9DD386FF9700BDB6E3240481072307863F9DD37EB2B68A8097027EB251
S123B620B6BDB6B59EC830A60084EFA700C61F5AC10026FBCEB645DFDACEBFF1DF09DE08E3
S123B640860497083B9FC8CEB721DFDADE0886009708DEC8C6063AEE008CC00022C6DFCE36
S123B660D6CEC17F27BECEB28CBDB6AE7EB3AE86059710860A971196123937D61158585880
S123B68024F9971333399612961184C0810027F8814027F29612399612961184C08100274A
S123B6A007814027F28601398600399DD308A600810426F7393CCEB02DBDB6AE383944442C
S123B6C04444840F8B30813923028B077E00D3A600BDB6BEA600087EB6C28DF38DF18620AF
S123B6E07E00D3BDB29A80302B1281092F0C84DF81112B0881162E0480070D390C39BDB6C4
S123B700E3240D4848484816BDB6E324031B0D390C398DEA240A97CC8DE4240497CDDECC09
S123B720399FC87EB3AE9FC8CEB293BDB6AE7EB3AE867ECEB72197E8DFE997E5DFE697E261
S123B740DFE397DFDFE097DCDFDD97D9DFDACEB67A97D3DFD4CEB68897D6DFD7CEB6999798
S11FB760D0DFD139960236D702A60033D7023936960236D7023332A700D7023983
S105B7EEB72678
S111B7F200D900DC00DF00E200E500E8B29FB1
S9030000FC
