:020000040800F2
:1000000000040020D9020008DB020008DB0200081F
:10001000DB020008DB020008DB020008DB0200084C
:10002000DB020008DB020008DB020008B1700008F8
:10003000DB020008DB020008DB020008DB0200082C
:10004000DB020008DB020008DB020008DB0200081C
:10005000DB020008DB020008DB020008DB0200080C
:10006000DB020008DB020008DB020008B18A00089E
:10007000818A0008518A0008218A0008F189000855
:10008000C189000891890008DB020008DB02000832
:10009000DB020008DB020008DB020008DB020008CC
:1000A000DB020008DB020008DB020008DB020008BC
:1000B000D1800008DB020008DB020008B1860008DE
:1000C000C1850008DB020008DB020008DB02000833
:1000D000DB0200086180000841800008DB020008A4
:1000E000DB020008DB020008DB020008DB0200087C
:1000F000DB020008DB020008DB020008618900085F
:10010000DB020008DB02000881800008DB02000837
:10011000DB020008DB020008DB020008DB0200084B
:100120003189000801890008D1880008A1880008E9
:1001300071880008DB020008DB020008DB0200080F
:10014000DB020008DB020008DB02000891810008E6
:100150004188000811880008E18700082180000814
:10016000DB020008DB020008DB020008DB020008FB
:10017000DB020008DB020008DB020008DB020008EB
:10018000DB020008DB020008DB020008DB020008DB
:10019000DB020008DB020008DB020008DB020008CB
:1001A000DB020008DB020008DB020008DB020008BB
:1001B000DB020008DB020008DB020008DB020008AB
:1001C000DB020008DB020008DB020008DB0200089B
:1001D000DB020008DB020008DB020008DB0200088B
:1002000072B6274880F30888264880F30988264874
:100210004EF60851CEF200010860022080F31488E7
:10022000BFF36F8F08F0A4FC07F002FE4FF05530CB
:100230001E491B4A91423CBF41F8040BFAE71C4996
:10024000184A91423CBF41F8040BFAE719491A4A8F
:100250001A4B9A423EBF51F8040B42F8040BF8E7E0
:1002600000201749174A91423CBF41F8040BFAE7B6
:1002700008F036FC08F074FC134C144DAC4203DA61
:1002800054F8041B8847F9E707F002F8104C114DA9
:10029000AC4203DA54F8041B8847F9E708F058BC6D
:1002A00000040020000800200000000800000020DA
:1002B000000400200C9D000800080020480C0020CD
:1002C000480C00204C200020E0010008E00100085C
:1002D000E0010008E001000892E700F000F8FEE706
:1002E0002DE9F04FC1F814D043699D46BDE8F08F69
:1002F000002383F311882846A047002006F0E8FE7B
:10030000FEE706F0EDFE00DFFEE70000844641EA6E
:10031000000313F003036DD1403A41D351F8043B7D
:1003200040F8043B51F8043B40F8043B51F8043BCF
:1003300040F8043B51F8043B40F8043B51F8043BBF
:1003400040F8043B51F8043B40F8043B51F8043BAF
:1003500040F8043B51F8043B40F8043B51F8043B9F
:1003600040F8043B51F8043B40F8043B51F8043B8F
:1003700040F8043B51F8043B40F8043B51F8043B7F
:1003800040F8043B51F8043B40F8043B51F8043B6F
:1003900040F8043B51F8043B40F8043B403ABDD2DE
:1003A000303211D351F8043B40F8043B51F8043B80
:1003B00040F8043B51F8043B40F8043B51F8043B3F
:1003C00040F8043B103AEDD20C3205D351F8043B0F
:1003D00040F8043B043AF9D2043208D0D2071CBFDB
:1003E00011F8013B00F8013B01D30B880380604604
:1003F000704700BF082A13D38B078DD010F003037A
:100400008AD0C3F10403D21ADB071CBF11F8013BE9
:1004100000F8013B80D331F8023B20F8023B7BE738
:10042000043AD9D3013A11F8013B00F8013BF9D263
:100430000B7803704B7843708B78837060467047FD
:10044000A2EB0300704700BF02780B78012A28BF97
:100450009A42F5D16DE9044540EA0104CDE902670D
:100460006FF0000C4FEA447212B380EA010414F0FA
:10047000070F6AD100F0070420F0070004F003051D
:1004800021F007014FEAC505F0E8042314F0040F3A
:10049000F1E804670CFA05F462EA040266EA04066D
:1004A0000AD063EA0403624667EA0407664603E08B
:1004B000F0E80423F1E8046782FA4CF582EA0604C6
:1004C000A4FA8CF46CBB83FA4CF583EA0705A5FA11
:1004D0008CF595B950E9022351E9026782FA4CF58F
:1004E00082EA0604A4FA8CF483FA4CF583EA070541
:1004F000A5FA8CF52543DBD09CB92DBAB5FA85F465
:1005000024F0070427FA04F1DDE9026723FA04F373
:1005100003F0FF0001F0FF01FDE80445A0EB01003E
:10052000704724BAB4FA84F424F0070426FA04F1DC
:10053000DDE9026722FA04F202F0FF0001F0FF0198
:10054000FDE80445A0EB0100704714F0030F3CD117
:1005500010F0030428D150F8082B51F8083B82FA18
:100560004CF582EA0305A5FA8CF55DB950F8042C28
:1005700051F8043C82FA4CF582EA0305A5FA8CF5A1
:10058000002DE8D02DBAB5FA85F424F0070423FA3B
:1005900004F122FA04F202F0FF0001F0FF01FDE88D
:1005A0000445A0EB010070474FEAC40420F00300AB
:1005B00050F8082B21F0030151F8083B0CFA04F421
:1005C00062EA040263EA0403C9E710F003041AD0E4
:1005D000A1EB040120F00300E40750F8042B06D03F
:1005E0000FD28B785FFAA2F4E41A06D12BB1CB7844
:1005F0005FFAB2F4E41A00D11BB920465DF8104B43
:10060000704701F1040150F8042BCC0721F00301DD
:1006100051F8043B48D824D222F07F4482FA4CF5AA
:1006200094EA1325A5FA8CF50AD165B951F8043B73
:1006300084EA0204B4EB036F0ED150F8042BEBE70D
:100640004FEA132355E035F07F454DD10878FDE89A
:100650000445C0F1000070474FEA126203F0FF0347
:1006600047E002EA1C4482FA4CF594EA1345A5FAE5
:100670008CF50AD165B951F8043B84EA0204B4EB65
:10068000034F0CD150F8042BEBE74FEA134330E053
:1006900015EA1C4528D10B884FEA124229E04FEA9F
:1006A000124203EA1C4324E002F0FF0482FA4CF5F4
:1006B00094EA1365A5FA8CF50AD165B951F8043BA3
:1006C00084EA0204B4EB032F09D150F8042BEBE7C2
:1006D0004FEA13630DE015F0FF0F05D10B684FEAE9
:1006E000122223F07F4304E04FF00000FDE80445B0
:1006F000704712BA1BBA82FA4CF482EA0304A4FAD5
:100700008CF5B5FA85F402FA04F203FA04F34FEA21
:100710001260FDE80445A0EB136070470000000084
:1007200000000000000000000000000000000000C9
:1007300000000000000000000000000000000000B9
:1007400090F800F06DE9024520F007016FF0000C11
:1007500010F0070491F820F040F049804FF00004B9
:100760006FF00700D1E9002391F840F000F1080094
:1007700082FA4CF2A4FA8CF283FA4CF3A2FA8CF3CC
:100780004BBBD1E9022382FA4CF200F10800A4FA33
:100790008CF283FA4CF3A2FA8CF3E3B9D1E9042387
:1007A00082FA4CF200F10800A4FA8CF283FA4CF3BE
:1007B000A2FA8CF37BB9D1E9062301F1200182FA78
:1007C0004CF200F10800A4FA8CF283FA4CF3A2FA7E
:1007D0008CF3002BC6D0002A04BF04301A4612BA8C
:1007E000B2FA82F2FDE8024500EBD2007047D1E98F
:1007F000002304F00305C4F100004FEAC50514F01E
:10080000040F91F840F00CFA05F562EA05021CBFEE
:1008100063EA050362464FF00004A9E70000000008
:10082000F0B40346134A43F8042B012200254FF489
:10083000807700F5157600F10C044360C16400F583
:10084000AA73027200F1300100F154024561C0E95F
:100850000344856287630664C0E90822F0BCC0E9EE
:100860001133C0E90C11C06200658261C361C363CA
:10087000704700BFB49B00080000000000000000AB
:10088000F0B42E4C0346012220689A40024218BF61
:10089000002001D0F0BC704704EBC3061043284D84
:1008A000206012F0FF0F274C71604FF00C00B46015
:1008B00000FB035037D1244A116B41F480011163CE
:1008C0000C21146D01FB03F144F480046958146594
:1008D000126D0A6822F01F020A600A6812F0010213
:1008E000FBD10C2404FB03533D25DC7A5E7A5F6860
:1008F00063099B00B54003F1604304F160463D602D
:1009000003F56143012506F5614604F01F040A6002
:1009100005FA04F4A02221254D6186F80023C3F8CE
:1009200080411C60B6E7084A116B41F40011116365
:10093000116D41F400111165126DBCE7A01A002081
:1009400048980008381800200038024000000000D5
:10095000224A02EB80032DE9F043D968D2F8549083
:1009600080464869D0E90037BB4228D908F1010424
:10097000B1F810E009EB043409EB481CDE1BDCF88D
:100980001829764528BF764693B2B6EB830F21D857
:100990008568042E2B6823600AD9711F21F003019A
:1009A000043129442B4653F8042F22609942FAD18E
:1009B000036837443544BB42C0E90175DED8D9F835
:1009C0003438012000FA08F823EA0803C9F834385B
:1009D000BDE8F0830020BDE8F08300BF6818002068
:1009E00030B4202383F311880B4CD4E900354942FD
:1009F000281A0840821A9A4207D3954205D36260AA
:100A0000002383F3118830BC70470020002383F358
:100A1000118830BC704700BF681A00200000000039
:100A2000024AD36843F0C003D3607047001001400E
:100A3000024AD36843F0C003D360704700440040CB
:100A4000024AD36843F0C003D360704700140140EA
:100A5000013830B40E2800F2E480DFE810F01E0008
:100A60002C003A00480056006400720080008E009E
:100A70009C00AA00B800C600D4000F00704B714A59
:100A80004FF400554FF480444FF4004002211D8381
:100A90001C831883118330BC7047694B694A4FF43B
:100AA00000554FF480444FF4004002211D835C83C5
:100AB00058835183EFE7624B624A4FF400554FF47D
:100AC00080444FF4004002215D831C83588351838E
:100AD000E1E75B4B5B4A4FF400554FF480444FF421
:100AE000004002211D831C8358835183D3E7544B5C
:100AF000544A4FF400554FF480444FF40040022113
:100B00005D835C8318835183C5E74D4B4D4A4FF499
:100B100000554FF480444FF4004002211D835C8354
:100B200018835183B7E7464B464A4FF400554FF4BC
:100B300080444FF4004002215D831C83188351835D
:100B4000A9E73F4B3F4A4FF400554FF480444FF420
:100B5000004002211D831C83188351839BE7384B7F
:100B6000384A4FF400554FF480444FF400400221BE
:100B70005D835C83588311838DE7314B314A4FF499
:100B800000554FF480444FF4004002211D835C83E4
:100B9000588311837FE72A4B2A4A4FF400554FF4BC
:100BA00080444FF4004002215D831C8358831183ED
:100BB00071E7234B234A4FF400554FF480444FF420
:100BC000004002211D831C835883118363E71C4B63
:100BD0001C4A4FF400554FF480444FF4004002216A
:100BE0005D835C831883118355E7154B154A4FF4D9
:100BF00000554FF480444FF4004002211D835C8374
:100C00001883118347E70E4B0E4A4FF400554FF4FB
:100C100080444FF4004002215D831C8318831183BC
:100C200039E7074B074A4FF400554FF480444FF41F
:100C3000004002215D835C83588351832BE700BF12
:100C40000008024000000240000000000000000018
:100C50000349044B0020012208701A83704700BF2B
:100C6000480C0020000402400000000000000000CA
:100C700090F84420034602F01F00012803D193F8A6
:100C800045100B291BD002F06002202A01D0002061
:100C9000704793F84520212A09D81F2AF7D90A4A14
:100CA0009A6307210022C3E90F1201207047222A0C
:100CB000EDD10022C3E90E221A6401207047002200
:100CC000C3E90E221A6470470008002000000000EB
:100CD000022906D0032906D00129074818BF0020A1
:100CE000704706487047032A03D8054800EBC20046
:100CF00070470020704700BF0C9B0008B89A00089E
:100D0000949B0008000000000000000000000000AC
:100D1000144BC35C03F00303012B04BF00F1200359
:100D2000D8B2A0F1300218BF0346072A12D90A2907
:100D300008D0102902D04FF0FF307047A0F16102B7
:100D4000052A0AD938280BD0392814BF4FF0FF30B4
:100D500009207047D8B230387047D8B2573870473A
:100D600008207047099C00080000000000000000F7
:100D7000202383F311880D4B5B6813F4006302D1C9
:100D800083F311887047EFF30983203B4FF08072A3
:100D9000DA6183F30988064A1168526989689268A2
:100DA00091428CBF034A044A9A61704700ED00E00B
:100DB000D01800200303000806030008000000000C
:100DC000084A10B4D2E900344942201A0840984237
:100DD00004D3844202D310BC50607047002010BC82
:100DE000704700BF681A00200000000000000000EB
:100DF0000E4A0F4B52681B6F816830B4D31AD0E98A
:100E00000445C2685B1A01324168C260E418026896
:100E1000836045F100058B4288BF43609342C0E97F
:100E2000044538BF036030BC704700BF001000E0CD
:100E3000D0180020000000000000000000000000AA
:100E4000014B5B6883607047001000E00000000009
:100E5000836841681A4AF0B4D0E90475022643F861
:100E60002C1C0124002143E91B750568C06803F8A8
:100E7000271C03F8286C03F8264C43F83C2C146913
:100E800043F8400C43F80C0C43F8305CA3F16C00C1
:100E90000C4D43F8340C43E90511A3F1480043F825
:100EA0004C5CA3F11C01A3F1200543F8384CE06031
:100EB000106143E9085143F8181CF0BC704700BFAB
:100EC000D0180020F102000800000000000000001F
:100ED000202383F3118890F82030072B0DD8DFE80A
:100EE00003F0270C0C2308040C08426A93680133B2
:100EF0009360D0E9003213605A6010B400224FF0C2
:100F0000FF3481680C4B446280F820201B689A688B
:100F10008A42FBD25A680021C0E900321060586052
:100F200081F3118810BC7047436A00221A60E4E71D
:100F3000002383F311887047D018002000000000C0
:100F400000228168064B80F820201B689A688A423C
:100F5000FBD25A68C0E9003210605860704700BF89
:100F6000D018002000000000000000000000000079
:100F700038B50446006884420AD06FF00105036862
:100F800023605C604562FFF7DBFF2068A042F6D17A
:100F900038BD00BF0000000000000000000000009D
:100FA00003460068834206D002681A60002153603D
:100FB0004162FFF7C5BF704700000000000000005D
:100FC000F8B50468A04221D007460D46002604E08B
:100FD0000B2A1CD02468A74218D0E3682B43E36097
:100FE00015B123691D42F5D0D4E90103416B90F896
:100FF00020200B430A2A4363EAD1426A1342E9D014
:101000004662FFF79DFF2468A742E6D1F8BD426A19
:1010100032EA0303DED1F3E7000000000000000025
:10102000034A516853685B1A9842FBD8704700BF67
:10103000001000E0000000000000000000000000C0
:10104000FEE700BF000000000000000000000000FC
:101050002DE9F047D0F85462D6F80C903368DA05E1
:1010600005469CB275D4202383F3118814F02F0F0A
:1010700045D02F1D05F10C0808E0A006D6F804A005
:101080001ED4336813F02F0F9CB238D02307F4D04E
:1010900014F0080F0CBF00218021E00748BF41F089
:1010A0002001A20748BF41F04001630748BF41F457
:1010B00080713846FFF784FFA006D6F804A0E0D57B
:1010C0006B6995F858429BB3D5E90832934237D003
:1010D0006A69591C013204EA0A0A6A61296283F8C2
:1010E00000A0D5E907329A4201D3AB692B62404692
:1010F000FFF756FF336813F02F0F9CB2C6D10023C1
:1011000083F3118819F0800F01D0220630D419F032
:10111000400F0BD0630609D5202383F31188D5E94E
:1011200011239A423FD0002383F31188BDE8F08752
:1011300004213846FFF744FFD5E908329342C7D16E
:101140006A69002AC4D04FF480613846FFF738FF3F
:1011500097E7202383F311884FF400710430FFF7E1
:101160002FFF6FF480733360002383F311887AE7D5
:10117000202383F31188D5E911239A4220D0AA6B4A
:10118000296C581C0132AA63A86488421F7801D3D5
:10119000EB6BAB6405F13000FFF702FF77600023D3
:1011A00083F31188B3E7AB6B002BBCD0281D102153
:1011B000FFF706FF4FF6BF7309EA0303F360B2E7D8
:1011C000AA6B002ADBD00821281DFFF7F9FE4FF695
:1011D0007F7309EA0303F360E1E700BF000000004A
:1011E00011F00C0F00D1704772B6024B024A9A629E
:1011F000FEE700BFD0180020109300080000000098
:1012000011F00C0F38B54FD10D4641680B780446EC
:10121000002B33D1456A2A68136823F01F0313603B
:101220001368D807FCD46A7A206A6D683D2393401E
:1012300002682B60136823F01F0313601368DB0739
:10124000FCD4457A4A6841683D23AB400B60002AD4
:101250002FD004232370204690472378042B28D0D6
:10126000202383F31188A06820B10023A360436288
:10127000FFF766FE002383F3118838BDEB0603D524
:101280004B68002BF9D09847AD06F6D563685B68CC
:10129000002BF2D004222270204698472378042B9A
:1012A000EBD10323237038BD72B6064B064A9A620F
:1012B000FEE702232370202383F31188A06800280F
:1012C000D3D1D7E7D0180020109300080000000009
:1012D00000EB810330B4DC6862691368D360F3B952
:1012E000426D02EB41134FF40020C3F8100923684C
:1012F00003F00303012B2AD008B202EB40100123B4
:10130000D0F8004944F00444C0F80049D2F8340849
:1013100003FA01F1014330BCC2F83418704719B91F
:10132000402B84BF40231360258A426D681E1844F9
:10133000B0FBF5F002EB411543EAC04343F0005324
:10134000C5F81039236803F00303012BD4D1D2F878
:10135000083813F4807F02EB411308B2D3F8004938
:1013600014BF44F0805444F00054C3F80049C4E76B
:10137000204AF8B5566D06EB40130446D3F80859D9
:10138000C3F80859E80703D5D6F81038D90708D4A8
:101390002B0605D5D6F834280123A340134215D1D6
:1013A000F8BD02EB8403D86843691F68D9688F428F
:1013B00011D3138987680121A14023EA0103138116
:1013C000002FE5D010462146B847E1E72046BDE8AA
:1013D000F840FFF7BDBAC91B0027C3E90017202357
:1013E00083F3118810462146FFF772FF87F31188B7
:1013F000CEE700BF681800200000000000000000D9
:1014000000EB810330B4DD68AB691C68DC6019B99E
:10141000402C84BF40241C606B8A406D2D685A1E8E
:101420002244B2FBF3F202FB03F3033323F0030382
:1014300043EAC24300EB411405F0030243F0C0430A
:10144000012AC4F8103B0AD009B200EB411130BCAC
:10145000D1F8003B43F00443C1F8003B7047D0F89B
:10146000083800EB411213F4807FD2F8003B14BF20
:1014700043F0805343F0005309B2C2F8003BE4E765
:101480002DE9F041244F7E6D06EB40130446D3F85E
:10149000085BC3F8085B280703D5D6F8143819078A
:1014A00031D4EA072DD5D6F81438DB0729D507EB58
:1014B0008403D9685CB98A69488A5568B5FBF0F33A
:1014C00000FB13531BB91068D36898420DD37B8976
:1014D000CD680122A24023EA02037B818DB121461F
:1014E0002B460D48BDE8F04118471B1AC2E90034ED
:1014F000202383F3118808482146FFF781FF84F3F6
:101500001188BDE8F08107EB84032146DB6838468B
:101510005B689847C5E700BF68180020000000001E
:101520002DE9F04F83B002F0030C01926646C2F33E
:10153000C105D70900244FF00F094FF001084FF003
:10154000030E12E0D0F800B003EA0B033343072C7C
:1015500003603ED8036A23EA020242EA0A020262F8
:10156000490833D0AD00B6000134CB07F8D5436845
:1015700008FA04F223EA02034360826863000EFA69
:1015800003F322EA03022A438260D0F80CA004F09D
:1015900007022AEA030A9200BCF1020FC0F80CA06D
:1015A0006FEA030307FA02FA09FA02F2CAD1072C1A
:1015B00016D8D0F820B02BEA020242EA0A020262F0
:1015C00002681340334349080360CBD103B0BDE840
:1015D000F08F436A23EA020242EA0A024262BFE74C
:1015E000D0F824B02BEA020242EA0A024262E7E79C
:1015F00038B590F834300446152B16D8DFE803F0E0
:101600001615151515151615151616161515151585
:10161000151515150B2CC3689B695B682BB9036CFA
:1016200003B19847002384F8343038BD436D4168D6
:10163000D3F800290D6842F40012C3F80029D3F84A
:10164000002B42F40012C3F8002B0DB10621A8476D
:10165000062384F8343038BD0B2380F8343020233F
:1016600083F31188C36802895B69002542F0010297
:1016700002812946C3E900559D60FFF729FE85F3E5
:10168000118838BD000000000000000000000000CC
:1016900038B590F834300446152B21D8DFE803F034
:1016A0000B20202020200B2020213148202020202A
:1016B000202020200B0B436D4168D3F800290D68D2
:1016C00042F40012C3F80029D3F8002B42F40012B0
:1016D000C3F8002B0DB10621A847062384F8343047
:1016E00038BD90F84B2090F84A30C16B43EA022392
:1016F000994206D2C3681B8AB1FBF3F503FB1515AB
:10170000EDB1142384F83430202383F31188E36887
:1017100062899B69002542F0010262812046C3E98B
:1017200000559D602946FFF76BFE85F3118838BD93
:10173000036C03B19847002384F8343038BD20236C
:1017400083F31188C36802895B6942F00102028158
:101750002946C3E900559D60FFF7BAFD85F311885E
:101760000A2384F8343038BD000000000000000077
:10177000F0B400EB81050789D5F80CC00125DCF831
:1017800014608D403D4300270581C6E90037B260F3
:10179000F0BCFFF79DBD00BF00000000000000008E
:1017A000816D8368F0B40C68C465002203F00113F6
:1017B0008F68446D8360C0E9042282614FF0FF3579
:1017C00000E0324604EB42110B46D1F80009002834
:1017D00002F1010605DAD1F8000940F08040C1F8B5
:1017E0000009D1F8000B002805DAD1F8000B40F011
:1017F0008040C1F8000BBA42C3F80859C3F8085B2F
:10180000DFD14FF00113C4F81C38F0BC704700BFA3
:10181000704700BF00000000000000000000000052
:1018200000207047000000000000000000000000E1
:1018300000207047000000000000000000000000D1
:10184000F8B5D0F88C140A681378042B02D1037A07
:10185000022B01D00120F8BD0C795589012303FA30
:1018600004F42542F6D1D0E90746B44214D04979B0
:1018700002EB81030120DB6888409E690543231D3C
:101880004FF48077002455811046C6E90074B36098
:10189000FFF7B6FD2046F8BD80690028E7D0D9E7FC
:1018A000406BFFF7CDBF00BF00000000000000004C
:1018B000093138B550F8214094B1202383F31188C1
:1018C000D4F88C241368527903EB8203DB689B699C
:1018D0005D6835B92046FFF7B3FF002383F3118815
:1018E00038BD04216018FFF76BFBE369616A1D6076
:1018F000A06AA26903448B42E36102F1010228BF9E
:10190000236BA26104F10C0028BFE361FFF748FBE1
:10191000E0E700BF00000000000000000000000041
:101920000346D0E90420824203D050F8043B0B6008
:101930007047DB68002BF8D00020704700000000E3
:1019400010B5446BD4F88C2413681978042982B03C
:1019500002D1217A022901D002B010BD11791A8971
:1019600001238B401342F7D101A904F14400FFF792
:10197000D7FF0246D4F88C04019B01790068FFF779
:10198000F7FEE9E700000000000000000000000092
:1019900010B5202382B083F311881E4CD4F88C2418
:1019A00013681978042902D1217A022904D000236E
:1019B00083F3118802B010BD11791A8901238B407D
:1019C0001342F4D1D4E915329342F0D1226D002AAA
:1019D000EDD0E26E002AEAD0043AD21AE7D01A60BB
:1019E000D4E9171003448B42226D636524BFA36EB4
:1019F0006365013A002301A907482265E366FFF702
:101A00008FFF0246D4F88C04019B01790068FFF730
:101A1000AFFECCE7A8130020EC130020000000006C
:101A20002DE9F04100EB810382B09E69F6B10446D6
:101A30000D46202383F3118800EB8107301D082118
:101A4000FFF7BEFAFB685B691B6893B906F14408AF
:101A5000404601A9FFF764FF024620B3019B2946D7
:101A60002046FFF785FE002383F3118802B0BDE80E
:101A7000F081D6E91720B36D316D03449342B3650D
:101A800001F1010128BFB36E316506F1440828BF9A
:101A9000B3654046FFF784FA404601A9FFF740FFCF
:101AA00002460028DAD1FB685A691268002ADAD0A7
:101AB0001B8A013B1340D6D1294604F1440220463B
:101AC000FFF756FECFE700BF000000000000000057
:101AD000144B596930B48D6884680022AC4242626C
:101AE0000CD880F820201B689A689442FBD95A6869
:101AF00030BCC0E9003210605860704781F8202087
:101B00001A4612689468A542FBD354684C600125BC
:101B10000A602160516080F8205030BC5861FEF7A7
:101B2000DFBB00BFD0180020000000000000000054
:101B3000084B59691A6810B481F8200010681860C1
:101B40000124436082F8204010BC5A611046FEF721
:101B5000C7BB00BFD018002000000000000000003C
:101B6000F0B54B1C87B049D03F4C404F636905939B
:101B70002646022956F8183F05464FF0804038BFE8
:101B80000221B342426A04975BD0676AD21B89186C
:101B90002ED398681B689A68091A914204D91B6869
:101BA000891A9A688A42FAD35A68029201AF01935D
:101BB00017605F6003919A68511A4FF0FF32996085
:101BC00022622846FFF7B4FF049B6BB1A369BB42B6
:101BD0001BD0DDE901321360019BB3425A6003D090
:101BE0009A6803990A449A606369586A07B0F0BD1D
:101BF0009A689142D1D20F444763CEE71A4CFFF75F
:101C000097FF6369586A07B0F0BD019BA36100228A
:101C1000B3425E60049222D09A680398616A0244DB
:101C20004FF080409A60436A581A8242DCD9CB1A3E
:101C30001344012B98BF821C4FF080430A445A631F
:101C4000D2E78B1801AF6262CDE90166C4E906777D
:101C500003910022436302230261C360B1E74FF0A6
:101C60008043DA60C0E700BFD0180020D10E000822
:101C700061B1084A10B4526944680346C2E90034AD
:101C80000420226010BC5A60FFF76ABF4FF0FF309B
:101C9000704700BFD01800200000000000000000C6
:101CA000F8B504460F461646202383F3118803E057
:101CB000FFF7DEFF002818DBA56831462046002D1F
:101CC000F6D06269A368511C013B6161A360177083
:101CD000D4E904329A4224BFE3686361E36903B143
:101CE0009847002080F31188F8BD85F31188F8BD6E
:101CF0003030FFF7D5BF00BF00000000000000003B
:101D000030304FF0FF32FFF7CBBF00BF00000000C4
:101D100070B5202305460E4683F3118803E0FFF7D4
:101D2000A7FF00281ADBAC6831462846002CF6D005
:101D3000A969AB6828694A1C013B8242AB60AA6171
:101D400028BFEB680C7828BFAB61EB690BB1284664
:101D50009847002383F31188204670BD84F31188CF
:101D600070BD00BF00000000000000000000000087
:101D70000C30FFF7CDBF00BF0000000000000000E6
:101D80000C304FF0FF31FFF7C3BF00BF0000000071
:101D900038B504460D4605E0237A83B9FFF768FF9E
:101DA00000280BDBE36829462046002BF4D023698A
:101DB000E1691A1D0B44C4E90A23002038BD6FF005
:101DC000010038BD0000000000000000000000001D
:101DD00070B520230D46044683F31188866AFEB150
:101DE0003570D4E90A3201339342A36214D3E26915
:101DF0002369A169043A1A60E069E26803448B42EE
:101E0000236124BF636A2361013A236BE2600022ED
:101E1000A2620BB120469847002080F3118870BD64
:101E20001146FFF7B5FF08B9A66AD9E786F311880E
:101E300070BD00BF000000000000000000000000B6
:101E40004430FFF7C5BF00BF0000000000000000E5
:101E500044304FF0FF32FFF7BBBF00BF000000006F
:101E600038B504460D4605E0237A83B9FFF700FF35
:101E700000280BDBE36829462046002BF4D0636979
:101E80001A6804331A44C4E90A32002038BD6FF0DE
:101E9000010038BD0000000000000000000000004C
:101EA00070B52023044683F31188856AE5B115F8DF
:101EB000016BE26AA562954211D3D4E90610636909
:101EC000E26803448B42636124BF636A6361013A41
:101ED000236BE2600022A2620BB1204698470023E8
:101EE00083F31188304670BDFFF7BAFF064608B984
:101EF000A56ADCE785F31188F4E700BF0000000065
:101F00000C30FFF7CDBF00BF000000000000000054
:101F10000C304FF0FF31FFF7C3BF00BF00000000DF
:101F200008B50146202383F311880820FFF718FE27
:101F3000002383F3118808BD0000000000000000AA
:101F4000F0B52C4B4FF4804283B05A8300BF202160
:101F50001A8381F31188284A127832B11A699205DE
:101F6000FCD5244A13699B05FCD4224B4FF4005244
:101F70005A8300BF00BF21491020488300BF00BF23
:101F80004FF480545C8300BF00251C8308831A83B0
:101F900085F31188202383F31188194BDFF868C07B
:101FA0009C6ADF6AD3E90812032018700968126876
:101FB0000DF10706CE6044F4806401264E600C608B
:101FC000C2F80CC0566017600C680E4E44F0010455
:101FD0000C601168746941F00101116043F8084F09
:101FE0006362FFF7A5FD85F311889DF8070003B034
:101FF000F0BD00BF00040240480C00200000024079
:1020000038180020D0180020649900080000000053
:10201000F8B50546202383F31188124B124EDC6A73
:102020009F6AD3E908120320187009681268CE600D
:1020300044F4806401264E600F60D56056601460E1
:102040000C680A4D34430C6011686C6931431160AF
:1020500043F8084F6362FFF76BFD002383F3118899
:10206000F8BD00BF38180020241B0020D018002025
:1020700010B582B0034601A88DF80430FFF7C8FF01
:10208000114B4FF480425A8300BF20211A8381F301
:1020900011880E4A127832B11A699205FCD50A4AA3
:1020A00013699B05FCD4084B4FF400525A8300BFC0
:1020B00007490120488300BF002408831A8384F362
:1020C000118802B010BD00BF00040240480C00207F
:1020D00000000240000000000000000000000000BE
:1020E00070B52E4B044680685D6930B3AA6883687A
:1020F000934207D290F820308260062B35D0072B10
:1021000020D09BB1234603E09968AA68914202D38C
:102110001B689C42F8D15A680620C5E90032156058
:102120005D606C62BDE87040FFF702BDD0E900322F
:1021300013605A60FEF704FFE4E7AB6BC4E9025397
:10214000AC6370BDD0E90031466A0B60596033461C
:1021500002E099688A4202D81B689E42F9D15A6807
:10216000C0E9003210605860CCE7D0E90031466A1F
:102170000B605960334602E099688A4202D81B68B6
:102180009E42F9D15A68C0E9003210605860B068C8
:10219000AA6883689342ADD3B4E700BFD01800208B
:1021A00038B5104B5C69A36A606204F12805AB4244
:1021B00007D01A68A2621846FEF7C2FEA36AAB42B5
:1021C000F7D194F822303BB994F821309B0703D122
:1021D000D4E90332D3601A61BDE838400F20FFF71D
:1021E000A7BC00BFD01800200000000000000000C5
:1021F0000EB42DE9F04F036888B082461B6912AD1A
:1022000007959847DAF800108146CC68C1B250466D
:10221000A04719F1020F00F0FF81A846AB4CAC4D6E
:1022200057464FF0000B2521C2466B5C13F00800A7
:1022300040F0D480252911D0494500F08180BA466C
:102240005FFA89F9DAF8003049465B6950469847E9
:10225000584608B0BDE8F04F03B070472378252BEF
:102260000AD1B9F1250FEAD13B6838461B69984776
:10227000A61C617881466BE02A2B00F0C4815AF8D5
:10228000042B0192661CE95C4C0740F1CA810024D2
:10229000A3F1300216F8013BE95C04EB8404480723
:1022A00002EB4404F4D4002C08BF4FF0FF3403F0D9
:1022B000DF004C2800F0A28001F00301A1F101022F
:1022C000B2FA82F25209CDE90262443B342B00F2A9
:1022D0009C80DFE813F064019A009A009A009A004B
:1022E00039019A009A009A009A009A001E01A100F2
:1022F0009A009A009A009A0003019A009A00A1009D
:102300009A009A009A009A009A009A009A009A00FD
:102310009A009A007D0164019A009A009A009A003E
:1023200039019A009A009A009A009A001E01A100B1
:102330009A009A004E009A0003019A009A00A100A8
:102340003B6838461B6998472646814616F8011BAC
:1023500019F1020F00F0BE8000293FF470AF34463F
:1023600063E73B681B69984710F1020F81463FF411
:102370006FAF15F8093013F008033846F1D1002C7F
:10238000C8BF1E4640F39681019B38460BB103F847
:1023900006903B681B699847814619F1020FC1B24C
:1023A00006F1010638463FF453AF3B68DB689847B7
:1023B000B44200F0828115F809301807E4D5019B7A
:1023C00033B14FF000029A55019B4FF000021A55AD
:1023D000029E0BF1010B16F8011BBDE715F8093041
:1023E0001B0707D53B6838461B6998472B5C1E07BF
:1023F000F8D48146264616F8011BA9E73246012388
:10240000039312F8013B02925FE738685FFA89F1A3
:102410004369384698471BE715F80930180707D570
:102420003B6838461B6998472B5C1907F8D48146EE
:10243000B9F12B0F00F00881B9F12D0F00F0678181
:1024400001230493B9F1300F0DD1661E00F08C8189
:102450003B6838461B69984720F02003582B81467B
:1024600000F030813446002305934FF010085FFAE6
:1024700089F941464846FEF74BFC411C034600F0F3
:102480007181023C00263A683846126906FB08361C
:102490009047631C81464146C0B204F1FF3404D02A
:1024A000FEF736FC421C0346EDD1049B03B976428D
:1024B000019B2BB1039A002A40F0A980019B1E606A
:1024C000029E0BF1010B16F8011B41E71D9300085A
:1024D000099C0008BA464FF0FE09B3E615F809302A
:1024E0001E0707D53B6838461B6998472B5C1A07BF
:1024F000F8D48146B9F12B0F00F02281B9F12D0FEC
:1025000000F0BC8001260023CDE904634FF00A08E7
:10251000ADE715F80930190707D53B6838461B6940
:1025200098472B5C1B07F8D48146B9F12B0F00F0BC
:102530001081B9F12D0F00F0AF8001200023CDE90B
:1025400004034FF0080892E715F809301A0707D579
:102550003B6838461B6998472B5C1B07F8D48146BB
:10256000B9F12B0F65D0B9F12D0F00F0C580012313
:102570000493B9F1300F57D1661E00F0F5803B6827
:1025800038461B69984720F02003582B814600F0FD
:10259000A6800123344605934FF0080867E715F835
:1025A00009301B0707D53B6838461B6998472B5CE9
:1025B0001E07F8D48146B9F12B0F00F0B380B9F1B2
:1025C0002D0F4CD00123CDE904334FF00A084EE71C
:1025D000002C7FF7FDAE019BB8461C441E461F46EB
:1025E00040460FB186F80090D8F800301B69984734
:1025F00010F1020F814606F101063FF429AEB44204
:10260000EED14746E4E663780190A61C3BE6059AC6
:10261000002A3FF453AF52E74FF0FE094FF0000B92
:1026200010E64FF0FF3442E6012305934FF00A080D
:102630001DE7013C3FF40CAE3B6838461B699847E8
:1026400001238146049394E7013C3FF401AE3B68CB
:1026500038461B699847012381460493F2E6013C02
:102660003FF4F6AD3B6838461B6998470123814625
:102670000020CDE904034FF00A08F8E6013C3FF4DE
:10268000E7AD3B6838461B699847002304938146B1
:1026900005934FF00A08EAE6013C3FF4D9AD3B68E8
:1026A00038461B69984700230493814605934FF0F1
:1026B0000808DCE6611C3FF48BAE019B002B7FF425
:1026C00083AE85E6023C3FF4C3AD3B6838461B69E8
:1026D00098470023814605934FF01008C7E6023C57
:1026E0003FF4B6AD3B6838461B69984701238146E5
:1026F00005934FF01008BAE6013C3FF4A9AD3B68E2
:1027000038461B69984700238146049331E7013C12
:102710003FF49EAD3B6838461B69984700238146CD
:1027200004938FE6013C3FF493AD3B6838461B6948
:10273000984701230493814605934FF00A0896E6D3
:10274000013C3FF485AD3B6838461B69984781469C
:10275000D8E6013C3FF47CAD3B6838461B6998479E
:102760008146EAE6BA466DE50BF1010B70E500BF64
:102770000EB42DE9F04F86B00FAB53F8044B029323
:10278000254615F8011B002900F03B8207469946B3
:102790004FF000080CE03B683846DB6808F10108A0
:1027A0002C469847254615F8011B002900F0BE80ED
:1027B0002529F0D163782D2B04BFA51C01202B788F
:1027C00018BF00202B2B03BF6B784FF0010E754410
:1027D0004FF0000E302B05BF1E466B7820260135CA
:1027E0002A2B40F0AC8059F8041B6B78AC1C2E2BC4
:1027F00000F03081002203F0DF054C2D00F0B280A4
:10280000A3F1440CBCF1340F00F29881DFE81CF016
:102810005E0196019601960196015E019601960170
:102820009601960196019A0135009601960196014E
:102830009601940096019601350096019601960145
:1028400096019601960196019601960196014D0119
:102850005E0196019601960196015E019601960130
:102860009601960196019A013500960196012D0177
:10287000960194009601960135004FF0100E59F81C
:10288000045B0DF1170300E06346AA46B5FBFEF5B5
:102890000EFB15AB0BF13002392AC8BF0BF1370222
:1028A000D2B2F24503F1FF3C03F8012CECD20DF15A
:1028B0000C0A0DF11705A5EB0C05D6460DF1170C0A
:1028C00001E013F8012B0EF8012B6345F9D1491BE8
:1028D000013D21EAE17B20B90029CBF1000B00F397
:1028E0004581002D0FDB6B1C534401941C463A6854
:1028F0001AF8011BD26838469047A245F7D108F173
:102900000108019CA844BBF1000F3FF44BAF5D46AA
:102910003B683146DB6838469847013DF8D125468B
:10292000D84415F8011B00297FF442AF404606B099
:10293000BDE8F04F03B070474FF00A0E9FE76C1CE4
:10294000002BF3D00021A3F13002D2B2092A01EB0F
:1029500081053FF64CAF14F8013B02EB4501002B1B
:10296000F1D1E3E714F8013B002BDFD0A3F14405DC
:10297000342D00F2E3800FF2080C5CF825F000BF64
:10298000CD2A00083D2B00083D2B00083D2B0008F8
:102990003D2B0008CD2A00083D2B00083D2B0008E8
:1029A0003D2B00083D2B00083D2B0008452B00085F
:1029B0007B2800083D2B00083D2B00083D2B00081C
:1029C0003D2B0008392900083D2B00083D2B00084D
:1029D0007B2800083D2B00083D2B00083D2B0008FC
:1029E0003D2B00083D2B00083D2B00083D2B000827
:1029F0003D2B00083D2B00083D2B0008AB2A0008AA
:102A0000CD2A00083D2B00083D2B00083D2B000877
:102A10003D2B0008CD2A00083D2B00083D2B000867
:102A20003D2B00083D2B00083D2B0008452B0008DE
:102A30007B2800083D2B00083D2B00086B2A00086E
:102A40003D2B0008392900083D2B00083D2B0008CC
:102A50007B2800082378002B3FF468AF2A2B74D121
:102A6000637859F8042B0234C5E659F804ABBAF17F
:102A7000000F00F0BC809AF80030002A40F0AA80D5
:102A8000002B00F0AB8047F6FE72554601E0D342C2
:102A900005D415F8016FAAEB0503002EF7D1A5EBBD
:102AA0000A05491B2026013D13E759F8043B8DF820
:102AB0000C300139202621EAE17B18B90029CBF13D
:102AC000000B72DC00250DF10C0A0CE759F804CB61
:102AD000BCF1000F5FDBBEF1000F00F08E802B23F6
:102AE0008DF80C300DF10D050DF10C0A05F10B03FD
:102AF00001931A46474BA3FB0CE3DB0803EB830B64
:102B00009E46ACEB4B033033E346DBB2BBF1090F1F
:102B100002F8013DF446EDDC9E46019BA3EB020C5E
:102B2000AC44734601E012F8013F05F8013B6545EE
:102B3000F9D1A5EB0A05491B013DCAE68DF80C3019
:102B40000139B8E74FF0080E99E601340022A3F1ED
:102B50003005EDB2092D02EB820C3FF64CAE14F8B5
:102B6000013B05EB4C02002BF1D1DFE6CDF804B0C0
:102B70009AF800102D2921D03B683146DB68384691
:102B800098471BF1010BF7D1019B002DA8EB03081F
:102B9000BFF6A9AE06E62D23CCF1000C8DF80C3063
:102BA0000DF10D050DF10C0AA0E79DF80C10CDF804
:102BB00004B02D290DF10C0A0546DDD1302EDBD1F4
:102BC0003A683846D26890470AF1010A08F10108CC
:102BD000013DD1E713B1013A7FF557AF21EAE17B1F
:102BE00018B90029CBF1000B0DDC20268BE6DFF8AD
:102BF00028A0002A3FF447AFEDE70DF10C0A554637
:102C000074E7884692E6CDF804B020264FF0FF35F1
:102C1000AEE700BFCDCCCCCC249300080000000070
:102C200038B5214A214B012159832023117083F3A8
:102C300011881F4C6068E368406840F2E735DD6248
:102C400059610325002159622570196118B1D968AD
:102C500041F00101D96085211960002383F31188B7
:102C6000124902E01378012B02D10B699B05F9D5BB
:102C700013789BB90F491048FFF77AFD202383F39F
:102C80001188E3680022022121701A601A61D96854
:102C900021F0FF01D96082F3118838BD0749064849
:102CA000FFF766FDEAE700BF480C00200004024081
:102CB0004C0C00202C930008F00E002048930008D4
:102CC00008B50C4B4FF400425A8300BF00281A830A
:102CD0000ADD094900234FF480720A8300BF4A834A
:102CE00000BF01338342F8D1FFF79AFFBDE80840E7
:102CF000FFF726B900040240000002400000000077
:102D00002DE9F04106460F2017468846FDF7A0FE44
:102D1000164B4FF400425A8300BF002E1A830ADD7F
:102D2000134D00234FF480742C8300BF6C8300BFCD
:102D30000133B342F8D13C46FFF772FF14F8010BA0
:102D4000FFF796F9B8F1010F0DD0094E47444FF443
:102D50008075358300BF758300BF14F8010BFFF742
:102D600087F9BC42F5D1BDE8F08100BF0004024004
:102D70000000024000000000000000000000000011
:102D8000F8B5134B4FF400450F4614465D8300BF62
:102D900000281D830ADD0F4D00234FF480722A8323
:102DA00000BF6A8300BF01338342F8D1FFF738FFC9
:102DB0006FB1084E27444FF48075FFF7C1F804F84F
:102DC000010B358300BF758300BFBC42F5D1F8BD50
:102DD000000402400000024000000000000000006B
:102DE0002DE98048924B934CDFF85CA293E80700F2
:102DF000D3B00FAB03C300250A951A70A346C14692
:102E0000D4F88C341B681B78042B40F0C2812368F3
:102E100058461B6998472023C0B283F311884FF0AE
:102E2000804300225B6A82F311889945C0F0BF801D
:102E300003F59C59013D09F10809252D00F2BB80DD
:102E4000DFE815F00E03B40A14061B07C406890652
:102E50003A004708C907CB097A008A03C003780201
:102E6000BD025903EE058505A805470571019801C6
:102E7000E6040A051F019C04E70884092E096C0476
:102E8000A508310A6F0A7307C801080A1B045D060A
:102E9000236858461B6998472023C0B283F31188E2
:102EA0004FF0804300225B6A82F311884B457ED845
:102EB00003F59C5909F108095F4A13784528034432
:102EC0001370D4F88C3400F0D487522800F0D187E6
:102ED000532802F019831B68584A1B781070042B82
:102EE00002F00E814FF47A70FFF71AF8D4F88C34A0
:102EF0001B681B78042B02F003814FF47A70FFF7F4
:102F00000FF8D4F88C341B681B78042B42F0098628
:102F1000236858461B6998472023C0B283F3118861
:102F20004FF0804300225B6A82F3118899453ED3BB
:102F300003F59C5909F108093F4B1B78834241F086
:102F40001F833E4B1B78082B01F258873C4A3D49B2
:102F500013705846FFF70CFCD4F88C341B681B78B0
:102F6000042B02F0CE834FF47A70FEF7D9FFD4F829
:102F70008C341B681B78042B02F02B854FF47A707D
:102F8000FEF7CEFFD4F88C341B681B78042B41F07D
:102F90004582236858461B6998472023C0B283F3B3
:102FA00011884FF0804300225B6A82F3118803F599
:102FB0009C5909F1080920264FF080451E4AA0F1CE
:102FC00042031070182B1AD8DFE813F06A01E800EA
:102FD0001900190019001900190019001900190029
:102FE0001900190098011900190019009100AA028E
:102FF000190019002E027902190019004000D4F8B6
:103000008C341B681B78042B584641F007822368D8
:103010001B699847C0B286F3118800226B6A82F35D
:103020001188994503F59C59C1D309F10809C5E7F1
:10303000BC940008A8130020821A0020781D0020EC
:10304000CA1800209493000800000240D4F88C3481
:103050001B681B78042B41F0ED81236858461B69DF
:1030600098472023C0B283F311884FF08043002299
:103070005B6A82F31188994599D303F59C5909F14C
:1030800008099C4A137852280344137000F05A83AD
:10309000572800F02783D4F88C341B681B78042B46
:1030A00002F0F6804FF47A70FEF73AFFD4F88C34D1
:1030B0001B681B78042B02F0BE834FF47A70FEF776
:1030C0002FFFD4F88C341B681B78042B41F0A681A9
:1030D000236858461B6998472023C0B283F31188A0
:1030E0004FF0804300225B6A82F311885FE7D4F8D7
:1030F0008C341B681B78042B41F099812368584657
:103100001B6998472023C0B283F311884FF0804396
:1031100000225B6A82F311889945FFF448AF03F5FA
:103120009C5909F10809734A137803441370D4F8C1
:103130008C34002841F012821B686F491B784FF4D1
:103140008072042B0A8041F01082236858461B6964
:1031500098472023C0B283F311884FF080430022A8
:103160005B6A82F311884B453FF621AF03F59C590A
:1031700009F10809D4F88C245E4912680B7812789A
:1031800003440B70042A4FEA0023089300F02B83BA
:1031900017254FF47A70FEF7C3FE31E6D4F88C346D
:1031A0001B681B78042B41F03F81236858461B693C
:1031B00098472023C0B283F311884FF08043002248
:1031C0005B6A82F311889945FFF4F1AE03F59C59CF
:1031D00009F10809D4F88C24464912680B78464D49
:1031E00012782880042A1844087001F058814FF49E
:1031F0007A70FEF795FED4F88C341B681B78042B8C
:1032000001F04D814FF47A70FEF78AFED4F88C34C9
:103210001B681B78042B42F0BA82236858461B694E
:1032200098472023C0B283F311884FF080430022D7
:103230005B6A82F3118899450A92FFF4B8AE03F5F0
:103240009C5909F10809134620264FF08045294A68
:10325000294F11783A8812AFF8545F1CBFB2254B42
:103260000844BA42187000F0EB81D4F88C341B6823
:103270001B78042B584641F0438523681B69984707
:10328000C0B286F3118800226B6A82F311889945D7
:1032900003F59C59C2F0658009F108093B46D6E761
:1032A000D4F88C341B681B78042B01F06A804FF42F
:1032B0007A70FEF735FED4F88C341B681B78042B2B
:1032C00001F0C4804FF47A70FEF72AFED4F88C34F3
:1032D0001B681B78042B01F0B9804FF47A70FEF75D
:1032E0001FFED4F88C341B681B78042B01F0AE80D1
:1032F00002254EE7821A0020801A0020D4F88C3470
:103300001B681B78042B41F08C80236858461B698E
:1033100098472023C0B283F311884FF080430022E6
:103320005B6A82F311889945FFF441AE03F59C591D
:1033300009F10809BE4A1378532803444FF02006C8
:103340004FF0804513701ED0D4F88C341B681B7866
:10335000042B584641F0658023681B699847C0B22A
:1033600086F3118800226B6A82F311884B4503F5BE
:103370009C593FF61CAEAE4A13785328034409F11A
:1033800008091370E0D1D4F88C341B681B78042B27
:1033900041F0D187236858461B6998472023C0B263
:1033A00083F311884FF0804300225B6A82F3118817
:1033B0004B453FF6FCAD03F59C5909F108099C4BC0
:1033C0001B78834201F0A0849A499B48FFF7D0F90B
:1033D000D4F88C341B681B78042B01F038824FF42E
:1033E0007A70FEF79DFDD4F88C341B681B78042B93
:1033F00001F02C874FF47A70FEF792FDD4F88C34EC
:103400001B681B78042B41F00980236858461B6910
:1034100098472023C0B283F311884FF080430022E5
:103420005B6A82F31188C2E5D4F88C341B681B7880
:10343000042B41F00880236858461B6998472023D5
:10344000C0B283F311884FF0804300225B6A82F39D
:1034500011889945FFF4ABAD03F59C5909F10809B2
:10346000562801F06086D4F88C341B681B78042B36
:1034700001F0DD814FF47A70FEF752FDD4F88C3400
:103480001B681B78042B01F081864FF47A70FEF7DD
:1034900047FDD4F88C341B681B78042B40F0BE87A2
:1034A000236858461B6998472023C0B283F31188CC
:1034B0004FF0804300225B6A82F3118877E5D4F8ED
:1034C0008C341B681B78042B40F0BA87236858465D
:1034D0001B6998472023C0B283F311884FF08043C3
:1034E00000225B6A82F311889945FFF460AD03F511
:1034F0009C5909F108094E4A137803441370D4F813
:103500008C34002840F0F0871B684C491B784FF43E
:103510008072042B0A8000F06D820A90112538E633
:10352000D4F88C341B681B78042B40F08687236802
:1035300058461B6998472023C0B283F311884FF087
:10354000804300225B6A82F311889945FFF42FAD16
:1035500003F59C5909F10809D4F88C243449126800
:103560000B7812781844042A087000F085874FF40D
:103570007A70FEF7D5FCD4F88C341B681B78042BCA
:1035800000F07A874FF47A70FEF7CAFCD4F88C34D6
:103590001B681B78042B42F0F780236858461B6990
:1035A00098472023C0B283F311884FF08043002254
:1035B0005B6A82F311889945FFF4F9AC03F59C59D5
:1035C00009F108091A4B1B78834201F068831949F5
:1035D0001948FFF7CDF8D4F88C341B681B78042BFE
:1035E00001F04D834FF47A70FEF79AFCD4F88C34D6
:1035F0001B681B78042B01F06B864FF47A70FEF782
:103600008FFCD4F88C341B681B78042B40F00687A1
:10361000236858461B6998472023C0B283F311885A
:103620004FF0804300225B6A82F31188BFE400BF41
:10363000821A002098930008F00E0020801A0020C3
:10364000D4F88C340A971B681B78042B41F01D8634
:10365000236858461B6998472023C0B283F311881A
:103660004FF0804300225B6A82F311884B453FF69E
:103670009EAC03F59C5909F10809A64B1B788342BF
:1036800001F05781A449A548FFF772F8D4F88C34AB
:103690001B681B78042B01F03C814FF47A70FEF715
:1036A0003FFCD4F88C341B681B78042B01F0338664
:1036B0004FF47A70FEF734FCD4F88C341B681B7816
:1036C000042B40F0AB86236858461B69984720239B
:1036D000C0B283F311884FF0804300225B6A82F30B
:1036E000118864E4D4F88C341B681B78042B41F0F7
:1036F000F586236858461B6998472023C0B283F398
:1037000011884FF0804300225B6A82F311884B4599
:103710003FF64DAC03F59C5909F108097D4A137831
:1037200003441370D4F88C34002840F0E9861B68F9
:103730007B491B784FF48072042B0A8000F01284BE
:103740001F2526E5D4F88C341B681B78042B41F028
:10375000C886236858461B6998472023C0B283F364
:1037600011884FF0804300225B6A82F311884B4539
:103770003FF61DAC03F59C5909F10809654A137819
:1037800003441370D4F88C34002840F026841B685E
:1037900063491B784FF48072042B0A8000F0248464
:1037A0004FF47A70FEF7BCFBD4F88C341B681B789E
:1037B000042B00F019844FF47A70FEF7B1FBD4F8B3
:1037C0008C341B681B78042B01F000854FF47A7051
:1037D000FEF7A6FBD4F88C341B681B78042B01F091
:1037E000F5841B25D5E4236858461B699847202398
:1037F000C0B283F311884FF0804300225B6A82F3EA
:1038000011884B453FF6D3AB03F59C5909F10809E4
:10381000D4F88C243F4912680B78089D1278034431
:103820000544042A08950B7001D01825B1E42368DB
:1038300058461B6998472023C0B283F311884FF084
:10384000804300225B6A82F311884B453FF6AFABA1
:1038500003F59C5909F108092E4B1B78834201F0AE
:1038600083852D492D48FEF783FFD4F88C341B68DF
:103870001B78042B40F0D285236858461B69984773
:103880002023C0B283F311884FF0804300225B6A8B
:1038900082F31188FFF78BBBD4F88C340A971B682E
:1038A0001B78042B41F03485236858461B699847E0
:1038B0002023C0B283F311884FF0804300225B6A5B
:1038C00082F311884B453FF672AB03F59C5909F121
:1038D0000809104B1B78834201F0FA800E490F480B
:1038E000FEF746FFD4F88C341B681B78042B40F09D
:1038F0009585236858461B6998472023C0B283F3F7
:1039000011884FF0804300225B6A82F31188FFF731
:103910004EBB00BF821A002098930008F00E0020D2
:10392000801A0020236858461B6998472023C0B29C
:1039300083F311884FF0804300225B6A82F3118881
:103940004B453FF634AB03F59C5909F10809D4F80F
:103950008C24BA4912680B78089D127803440544F8
:10396000042A08950B7040F08485236858461B692B
:1039700098472023C0B283F311884FF08043002280
:103980005B6A82F311884B453FF611AB03F59C59F6
:1039900009F108090A9F20263A464FF08045A74BB7
:1039A0001978A74B0DF1480C1B880CF80200013761
:1039B000A24ABFB20844BB4210703FF46DAFD4F8C6
:1039C0008C341B681B78042B584640F051852368C3
:1039D0001B699847C0B286F3118800226B6A82F394
:1039E00011884B4503F59C5901F2B88409F1080987
:1039F0003A46D4E7236858461B6998472023C0B24B
:103A000083F311884FF0804300225B6A82F31188B0
:103A10004B450A923FF6CBAA03F59C5909F10809D8
:103A2000D4F88C24854912680B78127803440B7003
:103A3000042A4FEA002308933FF474AF1225FFF7DE
:103A4000A8BB236858461B6998472023C0B283F35C
:103A500011884FF0804300225B6A82F311884B4546
:103A60003FF6A5AA03F59C5909F10809734A137892
:103A7000522803441370D4F88C3400F021871B685B
:103A8000704A1B781070042B00F090814FF47A700C
:103A9000FEF746FAD4F88C341B681B78042B00F030
:103AA00085814FF47A70FEF73BFAD4F88C341B68AA
:103AB0001B78042B01F045864FF47A70FEF730FA3C
:103AC000D4F88C341B681B78042B01F03A86092546
:103AD000FFF75FBB236858461B6998472023C0B295
:103AE00083F311884FF0804300225B6A82F31188D0
:103AF0009945FFF45CAA03F59C5909F10809D4F82B
:103B00008C341B681B78042B40F08884236858464B
:103B10001B6998472023C0B283F311884FF080437C
:103B200000225B6A82F31188FFF741BA2368584686
:103B30001B6998472023C0B283F311884FF080435C
:103B400000225B6A82F311884B453FF630AA03F5E9
:103B50009C5909F10809D4F88C24384912680B786B
:103B6000394D12782870042A1844087000F0208318
:103B70004FF47A70FEF7D4F9D4F88C341B681B78B4
:103B8000042B00F074864FF47A70FEF7C9F9D4F86C
:103B90008C341B681B78042B00F069860A25FFF71C
:103BA000F8BA236858461B6998472023C0B283F3AC
:103BB00011884FF0804300225B6A82F311884B45E5
:103BC0003FF6F5A903F59C5909F108091B4B1B7831
:103BD000834240F0068523681C4ADB68117858460A
:103BE0009847D4F88C341B681B78042B01F0E680CE
:103BF0004FF47A70FEF794F9D4F88C341B681B7874
:103C0000042B01F0B1854FF47A70FEF789F9D4F8EE
:103C10008C341B681B78042B40F0008423685846C2
:103C20001B6998472023C0B283F311884FF080436B
:103C300000225B6A82F31188FFF7B9B9821A00206B
:103C4000801A0020CC180020781D0020C918002000
:103C5000236858461B6998472023C0B283F3118814
:103C60004FF0804300225B6A82F311884B453FF698
:103C70009EA903F59C5909F10809B24B1B788342B0
:103C800040F073852368B04ADB681178584698473E
:103C9000D4F88C341B681B78042B01F07F804FF420
:103CA0007A70FEF73DF9D4F88C341B681B78042B2E
:103CB00001F088844FF47A70FEF732F9D4F88C342E
:103CC0001B681B78042B01F03E864FF47A70FEF7D8
:103CD00027F9D4F88C341B681B78042B40F09E83A2
:103CE000236858461B6998472023C0B283F3118884
:103CF0004FF0804300225B6A82F31188FFF757B9C7
:103D0000236858461B6998472023C0B283F3118863
:103D10004FF0804300225B6A82F311884B453FF6E7
:103D200046A903F59C5909F10809864B1B78834283
:103D300000F04A8785498648FEF71AFDD4F88C348E
:103D40001B681B78042B00F01F874FF47A70FEF776
:103D5000E7F8D4F88C341B681B78042B01F0EE8252
:103D60004FF47A70FEF7DCF8D4F88C341B681B78BB
:103D7000042B01F031854FF47A70FEF7D1F8D4F8B6
:103D80008C341B681B78042B40F04883236858460A
:103D90001B6998472023C0B283F311884FF08043FA
:103DA00000225B6A82F31188FFF701B92368584645
:103DB0001B6998472023C0B283F311884FF08043DA
:103DC00000225B6A82F311884B453FF6F0A803F5A9
:103DD0009C5909F108095B4B1B78834240F06384CE
:103DE0005C4B1B78082B01F27980574A5A491370B3
:103DF00015465846FEF7BCFC2A7858495448FEF749
:103E0000B7FCD4F88C341B681B78042B01F0468473
:103E10004FF47A70FEF784F8D4F88C341B681B7862
:103E2000042B01F070854FF47A70FEF779F8D4F81E
:103E30008C341B681B78042B01F076864FF47A7063
:103E4000FEF76EF8D4F88C341B681B78042B40F016
:103E5000E582236858461B6998472023C0B283F344
:103E600011884FF0804300225B6A82F31188FFF7CC
:103E70009EB81B681B78042B00F0C6844FF47A7040
:103E8000FEF74EF8D4F88C341B681B78042B00F036
:103E9000BB844FF47A70FEF743F8D4F88C341B6877
:103EA0001B78042B41F02C85236858461B699847E2
:103EB0002023C0B283F311884FF0804300225B6A55
:103EC00082F311889945FFF472A803F59C5909F112
:103ED00008091C4B1B78834240F0B4832368204AB6
:103EE000DB68117858469847D4F88C341B681B78E7
:103EF000042B00F073874FF47A70FEF711F8D4F8B2
:103F00008C341B681B78042B01F0B8834FF47A7053
:103F1000FEF706F8D4F88C341B681B78042B40F0AD
:103F20007D82236858461B6998472023C0B283F3DB
:103F300011884FF0804300225B6A82F31188FFF7FB
:103F400036B800BF821A0020CB18002098930008D2
:103F5000F00E0020CC180020949300085094000824
:103F6000CA180020236858461B6998472023C0B20E
:103F700083F311884FF0804300225B6A82F311883B
:103F80004B453FF614A803F59C5909F10809D4F8EC
:103F90008C24B24912680B78B14D12782870042A2B
:103FA0001844087000F06A814FF47A70FDF7B8FF8A
:103FB000D4F88C341B681B78042B00F06F844FF40A
:103FC0007A70FDF7ADFFD4F88C341B681B78042B96
:103FD00000F064842025FFF7DCB81B68A14A1B7839
:103FE0001080042B7FF4DCAB236858461B6998478C
:103FF0002023C0B283F311884FF0804300225B6A14
:1040000082F311884B453EF6D2AF03F59C5909F176
:104010000809D4F88C24914912680B781278904DD5
:1040200003440B70042A4FEA00432870089378D0A9
:104030004FF47A70FDF774FFD4F88C341B681B784A
:10404000042B6ED04FF47A70FDF76AFFD4F88C34ED
:104050001B681B78042B01F0E6804FF47A70FDF7A3
:104060005FFFD4F88C341B681B78042B01F0DB80D5
:104070001C25FFF78EB8236858461B6998472023F4
:10408000C0B283F311884FF0804300225B6A82F351
:1040900011884B453EF68BAF03F59C5909F1080991
:1040A0006E4B1B78834201F0A5816F496F48FEF784
:1040B0005FFBD4F88C341B681B78042B00F09483CE
:1040C0004FF47A70FDF72CFFD4F88C341B681B7802
:1040D000042B01F06B804FF47A70FDF721FFD4F8C8
:1040E0008C341B681B78042B01F056834FF47A70D4
:1040F000FDF716FFD4F88C341B681B78042B40F0B6
:104100008D81236858461B6998472023C0B283F3EA
:1041100011884FF0804300225B6A82F31188FEF71A
:1041200046BF236858461B6998472023C0B283F3D3
:1041300011884FF0804300225B6A82F311884B455F
:104140003EF635AF03F59C5909F10809D4F88C24E3
:10415000424912680B78089D12780344042A05EB43
:10416000002008900B7086D04FF47A70FDF7D8FECF
:10417000D4F88C341B681B78042B3FF47CAF4FF4CD
:104180007A70FDF7CDFED4F88C341B681B78042BB5
:1041900001F036804FF47A70FDF7C2FED4F88C340B
:1041A0001B681B78042B01F02B801D25FEF7F1BF47
:1041B000236858461B6998472023C0B283F31188AF
:1041C0004FF0804300225B6A82F311884B453EF634
:1041D000EEAE03F59C5909F10809204B1B78834288
:1041E00040F09282224B1B78082B00F23886214A3D
:1041F000214913705846FEF7BBFAD4F88C341B687B
:104200001B78042B01F08D824FF47A70FDF788FE45
:10421000D4F88C341B681B78042B01F084834FF492
:104220007A70FDF77DFED4F88C341B681B78042B64
:1042300040F0F480236858461B6998472023C0B299
:1042400083F311884FF0804300225B6A82F3118868
:10425000FEF7ADBE0A9BFEF7F7BF00BF821A002033
:10426000C8180020801A002098930008F00E002043
:10427000781D0020C9180020949300082368584630
:104280001B6998472023C0B283F311884FF0804305
:1042900000225B6A82F311884B453EF688AE03F537
:1042A0009C5909F10809D4F88C34B14D1968B14B07
:1042B0002A781B7809781B0403EB00230244089337
:1042C000AD4B2A7004294FF000051D8000F0FB80E3
:1042D0004FF47A70FDF724FED4F88C341B681B78F9
:1042E000042B0AD04FF47A70FDF71AFED4F88C3400
:1042F0001B681B78042B40F07482236858461B69A6
:1043000098472023C0B283F311884FF080435B6A43
:1043100085F311889945FEF44AAE03F59C5909F1DD
:10432000080920264FF08045934F914A3B88117829
:10433000924A0DF1480C12880CF8030001339BB22D
:1043400008448B493B809A42087000F0F283D4F80D
:104350008C341B681B78042B584640F0428223683B
:104360001B699847C0B286F3118800226B6A82F3FA
:1043700011884B4503F59C593EF619AE09F1080921
:10438000D2E7236858461B6998472023C0B283F3BD
:1043900011884FF0804300225B6A82F311884B45FD
:1043A0003EF605AE03F59C5909F10809704A1378E9
:1043B00052280344137000F03886532800F00A8610
:1043C000452800F0DC85D4F88C341B681B78042B5E
:1043D00001F084814FF47A70FDF7A2FDD4F88C349B
:1043E0001B681B78042B01F078824FF47A70FDF77C
:1043F00097FDD4F88C341B681B78042B3FF46AAB10
:104400004FF47A70FDF78CFDD4F88C341B681B7860
:10441000042B3FF45FAB2625FEF7BBBE0025FEF75D
:10442000B8BE0E25FEF7B5BE2325FEF7B2BE152594
:10443000FEF7AFBE1925FEF7ACBE0C25FEF7A9BEF0
:104440001025FEF7A6BE0125FEF7A3BE2368584639
:104450001B6998472023C0B283F311884FF0804333
:1044600000225B6A82F311889945FEF4A0AD99E7BA
:104470000A971325FEF78DBE236858461B69984797
:104480002023C0B283F311884FF0804300225B6A7F
:1044900082F311884B453EF68AADFFF78FB823684B
:1044A00058461B6998472023C0B283F311884FF008
:1044B000804300225B6A82F311884B450A923EF6E4
:1044C00076ADFEF7BCBE236858461B69984720238B
:1044D000C0B283F311884FF080435B6A85F3118883
:1044E0004B453EF664AD18E71B68244A1B781080E4
:1044F000042B3FF47FAA002311250A93FEF749BE3F
:104500001B681E4A1B781080042B3FF42BAD4FF420
:104510007A70FDF705FDD4F88C341B681B78042BEA
:104520000AD04FF47A70FDF7FBFCD4F88C341B688A
:104530001B78042B7FF404A9236858461B6998470D
:104540002023C0B283F311884FF0804300225B6ABE
:1045500082F311889945FEF42AAD14E51B68074AD9
:104560001B781080042B3EF4F0AD1625FEF711BE2B
:10457000821A0020C818002048200020801A00203D
:10458000C449C548FEF7F4F8D4F88C341B681B788E
:10459000042B00F075854FF47A70FDF7C1FCD4F858
:1045A0008C341B681B78042B01F03C804FF47A702C
:1045B000FDF7B6FCD4F88C341B681B78042B7FF411
:1045C0002DAF236858461B6998472023C0B283F358
:1045D00011884FF0804300225B6A82F31188FEF756
:1045E000E6BCAC49AC48FEF7C3F8D4F88C341B6881
:1045F0001B78042B00F054854FF47A70FDF790FC83
:10460000D4F88C341B681B78042B01F027804FF4FE
:104610007A70FDF785FCD4F88C341B681B78042B6A
:104620007FF4FCAE236858461B6998472023C0B22C
:1046300083F311884FF0804300225B6A82F3118874
:10464000FEF7B5BC93499448FEF792F8D4F88C3441
:104650001B681B78042B00F033854FF47A70FDF74C
:104660005FFCD4F88C341B681B78042B00F08A871D
:104670004FF47A70FDF754FCD4F88C341B681B7827
:10468000042B7FF4CBAE236858461B699847202340
:10469000C0B283F311884FF0804300225B6A82F33B
:1046A0001188FEF784BC7B497B48FEF761F8D4F89B
:1046B0008C341B681B78042B00F051844FF47A7003
:1046C000FDF72EFCD4F88C341B681B78042B00F00B
:1046D000F5874FF47A70FDF723FCD4F88C341B680F
:1046E0001B78042B7FF49AAE236858461B699847C1
:1046F0002023C0B283F311884FF0804300225B6A0D
:1047000082F31188FEF753BC62496348FEF730F824
:10471000D4F88C341B681B78042B00F0E1844FF430
:104720007A70FDF7FDFBD4F88C341B681B78042BE2
:1047300000F038874FF47A70FDF7F2FBD4F88C3430
:104740001B681B78042B7FF469AE236858461B69ED
:1047500098472023C0B283F311884FF08043002292
:104760005B6A82F31188FEF722BC4A494A48FDF78A
:10477000FFFFD4F88C341B681B78042B00F0DF8318
:104780004FF47A70FDF7CCFBD4F88C341B681B789F
:10479000042B00F027874FF47A70FDF7C1FBD4F8A3
:1047A0008C341B681B78042B01F023814FF47A7042
:1047B000FDF7B6FBD4F88C341B681B78042B7FF410
:1047C0002DAE236858461B6998472023C0B283F357
:1047D00011884FF0804300225B6A82F31188FEF754
:1047E000E6BB2125FEF7D5BC236858461B699847D0
:1047F0002023C0B283F311884FF0804300225B6A0C
:1048000082F31188FEF7D3BB236858461B6998478B
:104810002023C0B283F311884FF0804300225B6AEB
:1048200082F311884B453EF6C2ABFFF74EBB2368BF
:1048300058461B6998472023C0B283F311884FF074
:10484000804300225B6A82F31188FEF7B0BB2368C5
:1048500058461B6998472023C0B283F311884FF054
:10486000804300225B6A82F31188FEF7A0BB2368B5
:1048700058461B6998472023C0B283F311884FF034
:10488000804300225B6A82F311889945FEF48FAB66
:104890009FE400BF98930008F00E0020236858465C
:1048A0001B6998472023C0B283F311884FF08043DF
:1048B00000225B6A82F311889945FEF478ABEEE43E
:1048C0001B681B78042B3FF4C3A94FF47A70FDF7E3
:1048D00027FBD4F88C341B681B78042B3FF4B8A951
:1048E0004FF47A70FDF71CFBD4F88C341B681B78EE
:1048F000042B01F05B804FF47A70FDF711FBD4F8C4
:104900008C341B681B78042B01F050800425FEF7C3
:1049100040BC236858461B6998472023C0B283F3E4
:1049200011884FF0804300225B6A82F31188FEF702
:104930003EBB9DF84B109DF84A209DF849300093EE
:10494000CDE90121984A9DF8483012889749984846
:10495000FDF70EFF9DF84C00069096489DF84B70B1
:1049600000234FF480628DF833300283924A4FF473
:1049700000411370418300BF4FF4804201834283A2
:1049800000BF4FF4005107931D4612AB02834183D1
:104990000993CDF82C904FF0000901265FFA89F8B1
:1049A0004046FCF755F847450DF1330033D09DF8EC
:1049B0003330FF2B05D04FF0FF338DF83330FDF748
:1049C00027FB25B9AAF81A6000BFAAF8186009F1F8
:1049D0000109B9F10F0FE1D1079A0D9B08329A42F4
:1049E00024D90125079A9A42D5D3099F0020BA7984
:1049F000FB7979798DF835208DF834308DF83700D2
:104A00003B468DF836100D9E1A79FF7806920533D5
:104A100016B30993BFE7069B8DF83330FDF7F8FA1C
:104A2000AAF81A6000BFAAF81860D0E708254FF46A
:104A30008073AAF8183000BFAAF81A3000BF013DF1
:104A400015F0FF05F5D15B494FF480434B8300BF60
:104A50000B830D9B0792C5E75649DDF82C904FF468
:104A600000534FF480620B834A83534A5349012316
:104A700058461370FDF77CFED4F88C341B681B7805
:104A8000042B00F0F3834FF47A70FDF749FAD4F861
:104A90008C341B681B78042B00F0BE864FF47A70B0
:104AA000FDF73EFAD4F88C341B681B78042B7FF496
:104AB000B5AC236858461B6998472023C0B283F3DE
:104AC00011884FF080435B6A86F31188FEF76FBA56
:104AD0003B4B9DF848201B780092089A324D39498B
:104AE000334802EB03431A461E4608932B88FDF712
:104AF0003FFE298812AA3046FEF702F92F49584690
:104B0000FDF736FED4F88C341B681B78042B7FF439
:104B100085AC236858461B6998472023C0B283F3AD
:104B200011884FF0804300225B6A82F31188FEF700
:104B30003EBAD4F88C341B681B78042B3FF4E0A8F1
:104B40004FF47A70FDF7ECF9D4F88C341B681B78BD
:104B5000042B3FF4D5A84FF47A70FDF7E1F9D4F8AF
:104B60008C341B681B78042B00F0FD864FF47A70A0
:104B7000FDF7D6F9D4F88C341B681B78042B00F0B1
:104B8000F2862225FEF705BB236858461B69984725
:104B90002023C0B283F311884FF0804300225B6A68
:104BA00082F31188FEF703BA801A0020849400086B
:104BB000F00E002000040240480C002094930008EE
:104BC000CB180020609300089DF846519DF84B00DB
:104BD0009DF84A109DF849209DF84731089E05939D
:104BE000CDE90305CDE901219DF84830B44D00938E
:104BF0002B88B449B4483246FDF7BAFD298812AA79
:104C00003046FEF77DF8B1495846FDF7B1FDD4F8BE
:104C10008C341B681B78042B00F06A834FF47A7085
:104C2000FDF77EF9D4F88C341B681B78042B00F058
:104C300021864FF47A70FDF773F9D4F88C341B6831
:104C40001B78042B00F05D874FF47A70FDF768F94C
:104C5000D4F88C341B681B78042B7FF4DFAB2368FB
:104C600058461B6998472023C0B283F311884FF040
:104C7000804300225B6A82F31188FEF798B92368AB
:104C800058461B6998472023C0B283F311884FF020
:104C9000804300225B6A82F31188FEF788B98B4952
:104CA0005846FDF765FDD4F88C341B681B78042B3F
:104CB00000F0FE824FF47A70FDF732F9D4F88C34AC
:104CC0001B681B78042B00F097854FF47A70FDF772
:104CD00027F9D4F88C341B681B78042B7FF49EAB27
:104CE000236858461B6998472023C0B283F3118874
:104CF0004FF0804300225B6A82F31188FEF757B9B8
:104D00000A972425FEF745BA714A00231370714AA9
:104D1000138022686E4D0FA95846C95CD368984726
:104D20006C482A7803880FA9C95C01339BB21144EF
:104D3000C9B2082B03802970EBD923685846DB6879
:104D40009847D4F88C341B681B78042B00F0CC8374
:104D50004FF47A70FDF7E4F8D4F88C341B681B78B4
:104D6000042B00F013864FF47A70FDF7D9F8D4F8CD
:104D70008C341B681B78042B7FF450AB2368584697
:104D80001B6998472023C0B283F311884FF08043FA
:104D900000225B6A82F31188FEF709B9236858463E
:104DA0001B6998472023C0B283F311884FF08043DA
:104DB00000225B6A82F31188FEF7F9B8236858462F
:104DC0001B6998472023C0B283F311884FF08043BA
:104DD00000225B6A82F31188FEF7E9B8236858461F
:104DE0001B6998472023C0B283F311884FF080439A
:104DF00000225B6A82F31188FEF7D9B8364932483F
:104E0000FDF7B6FCD4F88C341B681B78042B00F03B
:104E1000F9834FF47A70FDF783F8D4F88C341B686B
:104E20001B78042B00F049854FF47A70FDF778F871
:104E3000D4F88C341B681B78042B7FF4EFAA23680A
:104E400058461B6998472023C0B283F311884FF05E
:104E5000804300225B6A82F31188FEF7A8B81E49DE
:104E60001948FDF785FCD4F88C341B681B78042B9B
:104E700000F068834FF47A70FDF752F8D4F88C3460
:104E80001B681B78042B00F0C4854FF47A70FDF783
:104E900047F8D4F88C341B681B78042B7FF4BEAA27
:104EA000236858461B6998472023C0B283F31188B2
:104EB0004FF0804300225B6A82F31188FEF777B8D7
:104EC000801A0020D4930008F00E0020949300086C
:104ED000781D0020701D002068940008C549C64850
:104EE000FDF746FCD4F88C341B681B78042B00F0CB
:104EF00039834FF47A70FDF713F8D4F88C341B68BB
:104F00001B78042B00F095854FF47A70FDF708F8B4
:104F1000D4F88C341B681B78042B7FF47FAA236899
:104F200058461B6998472023C0B283F311884FF07D
:104F3000804300225B6A82F31188FEF738B8236849
:104F400058461B6998472023C0B283F311884FF05D
:104F5000804300225B6A82F31188FEF728B8236839
:104F600058461B6998472023C0B283F311884FF03D
:104F7000804300225B6A82F31188FEF718B8D4F8E8
:104F80008C341B681B78042B3DF482AF4FF47A708D
:104F9000FCF7C6FFD4F88C341B681B78042B3DF457
:104FA00077AF4FF47A70FCF7BBFFD4F88C341B68F2
:104FB0001B78042B00F06C854FF47A70FCF7B0FF7F
:104FC000D4F88C341B681B78042B00F0618507250E
:104FD000FEF7DFB8D4F88C341B681B78042B3EF442
:104FE000A5AD4FF47A70FCF79BFFD4F88C341B68A6
:104FF0001B78042B3EF49AAD4FF47A70FCF790FFC7
:10500000D4F88C341B681B78042B00F067854FF4B0
:105010007A70FCF785FFD4F88C341B681B78042B5E
:1050200000F05C850625FEF7B4B8D4F88C341B6814
:105030001B78042B3EF405AD4FF47A70FCF770FF3B
:10504000D4F88C341B681B78042B3EF4FAAC4FF474
:105050007A70FCF765FFD4F88C341B681B78042B3E
:1050600000F029854FF47A70FCF75AFFD4F88C349D
:105070001B681B78042B00F01E850325FEF789B8FA
:10508000236858461B6998472023C0B283F31188D0
:105090004FF0804300225B6A82F31188FDF787BFDF
:1050A000236858461B6998472023C0B283F31188B0
:1050B0004FF0804300225B6A82F31188FDF777BFCF
:1050C000236858461B6998472023C0B283F3118890
:1050D0004FF0804300225B6A82F31188FDF767BFBF
:1050E000236858461B6998472023C0B283F3118870
:1050F0004FF0804300225B6A82F31188FDF757BFAF
:10510000236858461B6998472023C0B283F311884F
:105110004FF0804300225B6A82F311884B453DF6D5
:1051200046AFFDF705BF032334490A225846FDF771
:105130001FFBD4F88C341B681B78042B00F03C83D5
:105140004FF47A70FCF7ECFED4F88C341B681B78B3
:10515000042B00F08D844FF47A70FCF7E1FED4F854
:105160008C341B681B78042B7FF458A9236858469D
:105170001B6998472023C0B283F311884FF0804306
:1051800000225B6A82F31188FDF711BF236858463D
:105190001B6998472023C0B283F311884FF08043E6
:1051A00000225B6A82F31188FDF701BF236858462D
:1051B0001B6998472023C0B283F311884FF08043C6
:1051C00000225B6A82F31188FDF7F1BE236858461E
:1051D0001B6998472023C0B283F311884FF08043A6
:1051E00000225B6A82F311889945FDF4E0AEFEF778
:1051F0000CBF00BF68940008F00E00207C940008EB
:10520000236858461B6998472023C0B283F311884E
:105210004FF0804300225B6A82F311889945FDF4C8
:10522000C6AEFEF739BF236858461B69984720234E
:10523000C0B283F311884FF0804300225B6A82F38F
:1052400011889945FDF4B3AEFEF77CBF236858463C
:105250001B6998472023C0B283F311884FF0804325
:1052600000225B6A82F31188FDF7A1BE23685846CD
:105270001B6998472023C0B283F311884FF0804305
:105280005B6A86F31188FDF792BE2525FDF781BF85
:10529000236858461B6998472023C0B283F31188BE
:1052A0004FF0804300225B6A82F31188FDF77FBED6
:1052B000236858461B6998472023C0B283F311889E
:1052C0004FF0804300225B6A82F31188FDF76FBEC6
:1052D000236858461B6998472023C0B283F311887E
:1052E0004FF0804300225B6A82F31188FDF75FBEB6
:1052F000236858461B6998472023C0B283F311885E
:105300004FF0804300225B6A82F31188FDF74FBEA5
:105310001425FDF73EBF236858461B699847202394
:10532000C0B283F311884FF0804300225B6A82F39E
:105330001188FDF73CBE0F25FDF72BBF23685846AB
:105340001B6998472023C0B283F311884FF0804334
:1053500000225B6A82F31188FDF729BE0A97FDF7E8
:1053600026BE0A97FDF723BEB64EB74D96F800C08D
:10537000089F2B88B549B64807EB0C42FDF7F8F9B2
:105380003078298812AA07EB0040FDF7F9FCB14AF2
:105390002D88002313808DB11D4612AA5846D15C7A
:1053A0002368DB680D449847AA49A74A0B881288EE
:1053B00001339BB29A42EDB20B80EED823682946A6
:1053C000DB6858469847D4F88C341B681B78042B4C
:1053D0007FF424A8236858461B6998472023C0B24D
:1053E00083F311884FF0804300225B6A82F31188B7
:1053F000FDF7DDBD089F944995480B883A460D4658
:105400009549FDF7B5F93846FDF75AFC2368014682
:10541000DB680646584698472B883A461B020132FD
:10542000013B2B804FF480779046AAF8187000BF9C
:10543000AAF81A7000BF00BFFCF782FD23688DF840
:105440004800DB6801460644584698477E4B1D8855
:10545000013DADB2F6B208F101081D80002DE4D186
:105460002368CDF82080DB68314658469847D4F849
:105470008C341B681B78042B00F0ED814FF47A709C
:10548000FCF74EFDD4F88C341B681B78042B00F01D
:10549000E0824FF47A70FCF743FDD4F88C341B683B
:1054A0001B78042B00F050834FF47A70FCF738FD22
:1054B000D4F88C341B681B78042B7DF46AAE236807
:1054C00058461B6998472023C0B283F311884FF0D8
:1054D00080435B6A85F31188FDF769BD1E25FDF7E2
:1054E00058BE1A25FDF755BE236858461B699847D4
:1054F0002023C0B283F311884FF0804300225B6AFF
:1055000082F31188FDF753BD1B681B78042B3EF412
:1055100048AB4FF47A70FCF703FDD4F88C341B6869
:105520001B78042B00F0B6814FF47A70FCF7F8FC7E
:10553000D4F88C341B681B78042B00F0AB81052554
:10554000FDF727BE236858461B6998472023C0B241
:1055500083F311884FF0804300225B6A82F3118845
:10556000FDF725BD236858461B6998472023C0B224
:1055700083F311884FF0804300225B6A82F3118825
:10558000FDF715BD236858461B6998472023C0B214
:1055900083F311884FF0804300225B6A82F3118805
:1055A000FDF705BD236858461B6998472023C0B204
:1055B00083F311884FF0804300225B6A82F31188E5
:1055C000FDF7F5BC236858461B6998472023C0B2F5
:1055D00083F311884FF0804300225B6A82F31188C5
:1055E000FDF7E5BC236858461B6998472023C0B2E5
:1055F00083F311884FF0804300225B6A82F31188A5
:10560000FDF7D5BC236858461B6998472023C0B2D4
:1056100083F311884FF0804300225B6A82F3118884
:10562000FDF7C5BC236858461B6998472023C0B2C4
:1056300083F311884FF0804300225B6A82F3118864
:10564000FDF7B5BCCB180020801A0020AC930008F1
:10565000F00E0020701D002020940008236858469A
:105660001B6998472023C0B283F311884FF0804311
:1056700000225B6A82F31188FDF799BC23685846C3
:105680001B6998472023C0B283F311884FF08043F1
:1056900000225B6A82F31188FDF789BC23685846B3
:1056A0001B6998472023C0B283F311884FF08043D1
:1056B00000225B6A82F31188FDF779BC23685846A3
:1056C0001B6998472023C0B283F311884FF08043B1
:1056D00000225B6A82F31188FDF769BC2368584693
:1056E0001B699847202383F311884FF080430022E1
:1056F0005B6A82F311884B457EF6FDA9C0B2FDF7C7
:1057000056BC236858461B6998472023C0B283F3D0
:1057100011884FF0804300225B6A82F31188FDF705
:1057200046BC236858461B6998472023C0B283F3C0
:1057300011884FF0804300225B6A82F31188FDF7E5
:1057400036BC236858461B6998472023C0B283F3B0
:1057500011884FF0804300225B6A82F311889945DB
:10576000FDF425ACFEF733BB236858461B69984708
:105770002023C0B283F311884FF0804300225B6A7C
:1057800082F31188FDF713BC0D25FDF702BD002340
:1057900024250A93FDF7FDBC236858461B699847EA
:1057A0002023C0B283F311884FF0804300225B6A4C
:1057B00082F31188FDF7FBBB236858461B699847A5
:1057C0002023C0B283F311884FF0804300225B6A2C
:1057D00082F31188FDF7EBBB236858461B69984795
:1057E0002023C0B283F311884FF0804300225B6A0C
:1057F00082F31188FDF7DBBB236858461B69984785
:105800002023C0B283F311884FF0804300225B6AEB
:1058100082F31188FDF7CBBB236858461B69984774
:105820002023C0B283F311884FF080435B6A86F374
:105830001188FDF7BCBB236858461B699847202395
:10584000C0B283F311884FF0804300225B6A82F379
:105850001188FDF7ACBB236858461B699847202385
:10586000C0B283F311884FF080435B6A85F31188DF
:10587000FDF79DBB236858461B6998472023C0B29B
:1058800083F311884FF0804300225B6A82F3118812
:10589000FDF78DBB236858461B6998472023C0B28B
:1058A00083F311884FF0804300225B6A82F31188F2
:1058B0009945FDF47CABFEF785B9236858461B6912
:1058C00098472023C0B283F311884FF08043002211
:1058D0005B6A82F31188FDF76ABB236858461B692F
:1058E0009847202383F311884FF0804300225B6A9E
:1058F00082F311884B457EF6FEA8C0B2FDF757BB78
:105900000825FDF746BC236858461B6998472023A5
:10591000C0B283F311884FF0804300225B6A82F3A8
:105920001188FDF744BB236858461B69984720231C
:10593000C0B283F311884FF0804300225B6A82F388
:105940001188FDF734BB236858461B69984720230C
:10595000C0B283F311884FF0804300225B6A82F368
:105960001188FDF724BB236858461B6998472023FC
:10597000C0B283F311884FF0804300225B6A82F348
:1059800011889945FDF413ABFEF7CBB9236858464F
:105990001B6998472023C0B283F311884FF08043DE
:1059A00000225B6A82F31188FDF701BB2368584629
:1059B0001B6998472023C0B283F311884FF08043BE
:1059C00000225B6A82F311889945FDF4F0AAFEF784
:1059D00050B9236858461B6998472023C0B283F307
:1059E00011884FF0804300225B6A82F31188FDF733
:1059F000DEBA236858461B6998472023C0B283F358
:105A000011884FF0804300225B6A82F31188FDF712
:105A1000CEBA236858461B6998472023C0B283F347
:105A200011884FF0804300225B6A82F31188FDF7F2
:105A3000BEBA236858461B6998472023C0B283F337
:105A400011884FF0804300225B6A82F31188FDF7D2
:105A5000AEBA236858461B6998472023C0B283F327
:105A600011884FF080435B6A85F31188FDF79FBA78
:105A7000236858461B6998472023C0B283F31188D6
:105A80004FF0804300225B6A82F31188FDF78FBAE2
:105A9000236858461B6998472023C0B283F31188B6
:105AA0004FF0804300225B6A82F311889945FDF430
:105AB0007EAAFDF7FDB9236858461B699847202345
:105AC000C0B283F311884FF0804300225B6A82F3F7
:105AD00011889945FDF46BAAFDF7C4BF23685846A9
:105AE0001B6998472023C0B283F311884FF080438D
:105AF00000225B6A82F311889945FDF458AAFEF7EB
