:020000040800F2
:1000000000040020D9020008DB020008DB0200081F
:10001000DB020008DB020008DB020008DB0200084C
:10002000DB020008DB020008DB020008417900085F
:10003000DB020008DB020008DB020008DB0200082C
:10004000DB020008DB020008DB020008DB0200081C
:10005000DB020008DB020008DB020008DB0200080C
:10006000DB020008DB020008DB0200084193000805
:1000700011930008E1920008B192000881920008F3
:100080005192000821920008DB020008DB02000800
:10009000DB020008DB020008DB020008DB020008CC
:1000A000DB020008DB020008DB020008DB020008BC
:1000B00061890008DB020008DB020008418F0008AC
:1000C000518E0008DB020008DB020008DB0200089A
:1000D000DB020008F1880008D1880008DB02000874
:1000E000DB020008DB020008DB020008DB0200087C
:1000F000DB020008DB020008DB020008F1910008C7
:10010000DB020008DB02000811890008DB0200089E
:10011000DB020008DB020008DB020008DB0200084B
:10012000C191000891910008619100083191000887
:1001300001910008DB020008DB020008DB02000876
:10014000DB020008DB020008DB020008218A00084D
:10015000D1900008A190000871900008B1880008B3
:10016000DB020008DB020008DB020008DB020008FB
:10017000DB020008DB020008DB020008DB020008EB
:10018000DB020008DB020008DB020008DB020008DB
:10019000DB020008DB020008DB020008DB020008CB
:1001A000DB020008DB020008DB020008DB020008BB
:1001B000DB020008DB020008DB020008DB020008AB
:1001C000DB020008DB020008DB020008DB0200089B
:1001D000DB020008DB020008DB020008DB0200088B
:1002000072B6274880F30888264880F30988264874
:100210004EF60851CEF200010860022080F31488E7
:10022000BFF36F8F09F0ECF808F04AFA4FF0553041
:100230001E491B4A91423CBF41F8040BFAE71C4996
:10024000184A91423CBF41F8040BFAE719491A4A8F
:100250001A4B9A423EBF51F8040B42F8040BF8E7E0
:1002600000201749174A91423CBF41F8040BFAE7B6
:1002700009F07EF809F0BCF8134C144DAC4203DAD7
:1002800054F8041B8847F9E707F04AFC104C114D5D
:10029000AC4203DA54F8041B8847F9E709F0A0B828
:1002A00000040020000800200000000800000020DA
:1002B0000004002070A8000800080020480C00205E
:1002C000480C00204C200020E0010008E00100085C
:1002D000E0010008E001000892E700F000F8FEE706
:1002E0002DE9F04FC1F814D043699D46BDE8F08F69
:1002F000002383F311882846A047002007F030FB35
:10030000FEE707F035FB00DFFEE70000844641EA28
:10031000000313F003036DD1403A41D351F8043B7D
:1003200040F8043B51F8043B40F8043B51F8043BCF
:1003300040F8043B51F8043B40F8043B51F8043BBF
:1003400040F8043B51F8043B40F8043B51F8043BAF
:1003500040F8043B51F8043B40F8043B51F8043B9F
:1003600040F8043B51F8043B40F8043B51F8043B8F
:1003700040F8043B51F8043B40F8043B51F8043B7F
:1003800040F8043B51F8043B40F8043B51F8043B6F
:1003900040F8043B51F8043B40F8043B403ABDD2DE
:1003A000303211D351F8043B40F8043B51F8043B80
:1003B00040F8043B51F8043B40F8043B51F8043B3F
:1003C00040F8043B103AEDD20C3205D351F8043B0F
:1003D00040F8043B043AF9D2043208D0D2071CBFDB
:1003E00011F8013B00F8013B01D30B880380604604
:1003F000704700BF082A13D38B078DD010F003037A
:100400008AD0C3F10403D21ADB071CBF11F8013BE9
:1004100000F8013B80D331F8023B20F8023B7BE738
:10042000043AD9D3013A11F8013B00F8013BF9D263
:100430000B7803704B7843708B78837060467047FD
:10044000A2EB0300704700BF02780B78012A28BF97
:100450009A42F5D16DE9044540EA0104CDE902670D
:100460006FF0000C4FEA447212B380EA010414F0FA
:10047000070F6AD100F0070420F0070004F003051D
:1004800021F007014FEAC505F0E8042314F0040F3A
:10049000F1E804670CFA05F462EA040266EA04066D
:1004A0000AD063EA0403624667EA0407664603E08B
:1004B000F0E80423F1E8046782FA4CF582EA0604C6
:1004C000A4FA8CF46CBB83FA4CF583EA0705A5FA11
:1004D0008CF595B950E9022351E9026782FA4CF58F
:1004E00082EA0604A4FA8CF483FA4CF583EA070541
:1004F000A5FA8CF52543DBD09CB92DBAB5FA85F465
:1005000024F0070427FA04F1DDE9026723FA04F373
:1005100003F0FF0001F0FF01FDE80445A0EB01003E
:10052000704724BAB4FA84F424F0070426FA04F1DC
:10053000DDE9026722FA04F202F0FF0001F0FF0198
:10054000FDE80445A0EB0100704714F0030F3CD117
:1005500010F0030428D150F8082B51F8083B82FA18
:100560004CF582EA0305A5FA8CF55DB950F8042C28
:1005700051F8043C82FA4CF582EA0305A5FA8CF5A1
:10058000002DE8D02DBAB5FA85F424F0070423FA3B
:1005900004F122FA04F202F0FF0001F0FF01FDE88D
:1005A0000445A0EB010070474FEAC40420F00300AB
:1005B00050F8082B21F0030151F8083B0CFA04F421
:1005C00062EA040263EA0403C9E710F003041AD0E4
:1005D000A1EB040120F00300E40750F8042B06D03F
:1005E0000FD28B785FFAA2F4E41A06D12BB1CB7844
:1005F0005FFAB2F4E41A00D11BB920465DF8104B43
:10060000704701F1040150F8042BCC0721F00301DD
:1006100051F8043B48D824D222F07F4482FA4CF5AA
:1006200094EA1325A5FA8CF50AD165B951F8043B73
:1006300084EA0204B4EB036F0ED150F8042BEBE70D
:100640004FEA132355E035F07F454DD10878FDE89A
:100650000445C0F1000070474FEA126203F0FF0347
:1006600047E002EA1C4482FA4CF594EA1345A5FAE5
:100670008CF50AD165B951F8043B84EA0204B4EB65
:10068000034F0CD150F8042BEBE74FEA134330E053
:1006900015EA1C4528D10B884FEA124229E04FEA9F
:1006A000124203EA1C4324E002F0FF0482FA4CF5F4
:1006B00094EA1365A5FA8CF50AD165B951F8043BA3
:1006C00084EA0204B4EB032F09D150F8042BEBE7C2
:1006D0004FEA13630DE015F0FF0F05D10B684FEAE9
:1006E000122223F07F4304E04FF00000FDE80445B0
:1006F000704712BA1BBA82FA4CF482EA0304A4FAD5
:100700008CF5B5FA85F402FA04F203FA04F34FEA21
:100710001260FDE80445A0EB136070470000000084
:1007200000000000000000000000000000000000C9
:1007300000000000000000000000000000000000B9
:1007400090F800F06DE9024520F007016FF0000C11
:1007500010F0070491F820F040F049804FF00004B9
:100760006FF00700D1E9002391F840F000F1080094
:1007700082FA4CF2A4FA8CF283FA4CF3A2FA8CF3CC
:100780004BBBD1E9022382FA4CF200F10800A4FA33
:100790008CF283FA4CF3A2FA8CF3E3B9D1E9042387
:1007A00082FA4CF200F10800A4FA8CF283FA4CF3BE
:1007B000A2FA8CF37BB9D1E9062301F1200182FA78
:1007C0004CF200F10800A4FA8CF283FA4CF3A2FA7E
:1007D0008CF3002BC6D0002A04BF04301A4612BA8C
:1007E000B2FA82F2FDE8024500EBD2007047D1E98F
:1007F000002304F00305C4F100004FEAC50514F01E
:10080000040F91F840F00CFA05F562EA05021CBFEE
:1008100063EA050362464FF00004A9E70000000008
:10082000F0B40346134A43F8042B012200254FF489
:10083000807700F5157600F10C044360C16400F583
:10084000AA73027200F1300100F154024561C0E95F
:100850000344856287630664C0E90822F0BCC0E9EE
:100860001133C0E90C11C06200658261C361C363CA
:10087000704700BF18A7000800000000000000003B
:10088000F0B42E4C0346012220689A40024218BF61
:10089000002001D0F0BC704704EBC3061043284D84
:1008A000206012F0FF0F274C71604FF00C00B46015
:1008B00000FB035037D1244A116B41F480011163CE
:1008C0000C21146D01FB03F144F480046958146594
:1008D000126D0A6822F01F020A600A6812F0010213
:1008E000FBD10C2404FB03533D25DC7A5E7A5F6860
:1008F00063099B00B54003F1604304F160463D602D
:1009000003F56143012506F5614604F01F040A6002
:1009100005FA04F4A02221254D6186F80023C3F8CE
:1009200080411C60B6E7084A116B41F40011116365
:10093000116D41F400111165126DBCE7A01A002081
:10094000ACA3000838180020003802400000000066
:10095000224A02EB80032DE9F043D968D2F8549083
:1009600080464869D0E90037BB4228D908F1010424
:10097000B1F810E009EB043409EB481CDE1BDCF88D
:100980001829764528BF764693B2B6EB830F21D857
:100990008568042E2B6823600AD9711F21F003019A
:1009A000043129442B4653F8042F22609942FAD18E
:1009B000036837443544BB42C0E90175DED8D9F835
:1009C0003438012000FA08F823EA0803C9F834385B
:1009D000BDE8F0830020BDE8F08300BF6818002068
:1009E00030B4202383F311880B4CD4E900354942FD
:1009F000281A0840821A9A4207D3954205D36260AA
:100A0000002383F3118830BC70470020002383F358
:100A1000118830BC704700BF681A00200000000039
:100A2000024AD36843F0C003D3607047001001400E
:100A3000024AD36843F0C003D360704700440040CB
:100A4000024AD36843F0C003D360704700140140EA
:100A50001A4A012130B42023117083F311881848F9
:100A60004468C36864680925DD6259610325002173
:100A70005962057019611CB1D96841F00101D96052
:100A800085211960002383F311880E4902E0137851
:100A9000012B02D10B699B05F9D5202383F3118823
:100AA000C3680022022101701A601A61D96821F01E
:100AB000FF01D96082F3118830BC7047480C0020D8
:100AC0004C0C002000040240000000000000000068
:100AD000013830B40E2800F2E480DFE810F01E0088
:100AE0002C003A00480056006400720080008E001E
:100AF0009C00AA00B800C600D4000F00704B714AD9
:100B00004FF400554FF480444FF4004002211D8300
:100B10001C831883118330BC7047694B694A4FF4BA
:100B200000554FF480444FF4004002211D835C8344
:100B300058835183EFE7624B624A4FF400554FF4FC
:100B400080444FF4004002215D831C83588351830D
:100B5000E1E75B4B5B4A4FF400554FF480444FF4A0
:100B6000004002211D831C8358835183D3E7544BDB
:100B7000544A4FF400554FF480444FF40040022192
:100B80005D835C8318835183C5E74D4B4D4A4FF419
:100B900000554FF480444FF4004002211D835C83D4
:100BA00018835183B7E7464B464A4FF400554FF43C
:100BB00080444FF4004002215D831C8318835183DD
:100BC000A9E73F4B3F4A4FF400554FF480444FF4A0
:100BD000004002211D831C83188351839BE7384BFF
:100BE000384A4FF400554FF480444FF4004002213E
:100BF0005D835C83588311838DE7314B314A4FF419
:100C000000554FF480444FF4004002211D835C8363
:100C1000588311837FE72A4B2A4A4FF400554FF43B
:100C200080444FF4004002215D831C83588311836C
:100C300071E7234B234A4FF400554FF480444FF49F
:100C4000004002211D831C835883118363E71C4BE2
:100C50001C4A4FF400554FF480444FF400400221E9
:100C60005D835C831883118355E7154B154A4FF458
:100C700000554FF480444FF4004002211D835C83F3
:100C80001883118347E70E4B0E4A4FF400554FF47B
:100C900080444FF4004002215D831C83188311833C
:100CA00039E7074B074A4FF400554FF480444FF49F
:100CB000004002215D835C83588351832BE700BF92
:100CC0000008024000000240000000000000000098
:100CD000044B054A00211970536983F001035361E5
:100CE000704700BF480C00200004024000000000D4
:100CF00090F84420034602F01F00012803D193F826
:100D000045100B291BD002F06002202A01D00020E0
:100D1000704793F84520212A09D81F2AF7D90A4A93
:100D20009A6307210022C3E90F1201207047222A8B
:100D3000EDD10022C3E90E221A640120704700227F
:100D4000C3E90E221A64704700080020000000006A
:100D5000022906D0032906D00129074818BF002020
:100D6000704706487047032A03D8054800EBC200C5
:100D700070470020704700BF70A600081CA600083E
:100D8000F8A60008000000000000000000000000BD
:100D9000144BC35C03F00303012B04BF00F12003D9
:100DA000D8B2A0F1300218BF0346072A12D90A2987
:100DB00008D0102902D04FF0FF307047A0F1610237
:100DC000052A0AD938280BD0392814BF4FF0FF3034
:100DD00009207047D8B230387047D8B257387047BA
:100DE000082070476DA70008000000000000000008
:100DF000202383F311880D4B5B6813F4006302D149
:100E000083F311887047EFF30983203B4FF0807222
:100E1000DA6183F30988064A116852698968926821
:100E200091428CBF034A044A9A61704700ED00E08A
:100E3000D01800200303000806030008000000008B
:100E4000084A10B4D2E900344942201A08409842B6
:100E500004D3844202D310BC50607047002010BC01
:100E6000704700BF681A002000000000000000006A
:100E70000E4A0F4B52681B6F816830B4D31AD0E909
:100E80000445C2685B1A01324168C260E418026816
:100E9000836045F100058B4288BF43609342C0E9FF
:100EA000044538BF036030BC704700BF001000E04D
:100EB000D01800200000000000000000000000002A
:100EC000014B5B6883607047001000E00000000089
:100ED000836841681A4AF0B4D0E90475022643F8E1
:100EE0002C1C0124002143E91B750568C06803F828
:100EF000271C03F8286C03F8264C43F83C2C146993
:100F000043F8400C43F80C0C43F8305CA3F16C0040
:100F10000C4D43F8340C43E90511A3F1480043F8A4
:100F20004C5CA3F11C01A3F1200543F8384CE060B0
:100F3000106143E9085143F8181CF0BC704700BF2A
:100F4000D0180020F102000800000000000000009E
:100F5000202383F3118890F82030072B0DD8DFE889
:100F600003F0270C0C2308040C08426A9368013331
:100F70009360D0E9003213605A6010B400224FF041
:100F8000FF3481680C4B446280F820201B689A680B
:100F90008A42FBD25A680021C0E9003210605860D2
:100FA00081F3118810BC7047436A00221A60E4E79D
:100FB000002383F311887047D01800200000000040
:100FC00000228168064B80F820201B689A688A42BC
:100FD000FBD25A68C0E9003210605860704700BF09
:100FE000D0180020000000000000000000000000F9
:100FF00038B50446006884420AD06FF001050368E2
:1010000023605C604562FFF7DBFF2068A042F6D1F9
:1010100038BD00BF0000000000000000000000001C
:1010200003460068834206D002681A6000215360BC
:101030004162FFF7C5BF70470000000000000000DC
:10104000F8B50468A04221D007460D46002604E00A
:101050000B2A1CD02468A74218D0E3682B43E36016
:1010600015B123691D42F5D0D4E90103416B90F815
:1010700020200B430A2A4363EAD1426A1342E9D093
:101080004662FFF79DFF2468A742E6D1F8BD426A99
:1010900032EA0303DED1F3E70000000000000000A5
:1010A000034A516853685B1A9842FBD8704700BFE7
:1010B000001000E000000000000000000000000040
:1010C000FEE700BF0000000000000000000000007C
:1010D0002DE9F047D0F85462D6F80C903368DA0561
:1010E00005469CB275D4202383F3118814F02F0F8A
:1010F00045D02F1D05F10C0808E0A006D6F804A085
:101100001ED4336813F02F0F9CB238D02307F4D0CD
:1011100014F0080F0CBF00218021E00748BF41F008
:101120002001A20748BF41F04001630748BF41F4D6
:1011300080713846FFF784FFA006D6F804A0E0D5FA
:101140006B6995F858429BB3D5E90832934237D082
:101150006A69591C013204EA0A0A6A61296283F841
:1011600000A0D5E907329A4201D3AB692B62404611
:10117000FFF756FF336813F02F0F9CB2C6D1002340
:1011800083F3118819F0800F01D0220630D419F0B2
:10119000400F0BD0630609D5202383F31188D5E9CE
:1011A00011239A423FD0002383F31188BDE8F087D2
:1011B00004213846FFF744FFD5E908329342C7D1EE
:1011C0006A69002AC4D04FF480613846FFF738FFBF
:1011D00097E7202383F311884FF400710430FFF761
:1011E0002FFF6FF480733360002383F311887AE755
:1011F000202383F31188D5E911239A4220D0AA6BCA
:10120000296C581C0132AA63A86488421F7801D354
:10121000EB6BAB6405F13000FFF702FF7760002352
:1012200083F31188B3E7AB6B002BBCD0281D1021D2
:10123000FFF706FF4FF6BF7309EA0303F360B2E757
:10124000AA6B002ADBD00821281DFFF7F9FE4FF614
:101250007F7309EA0303F360E1E700BF00000000C9
:1012600011F00C0F00D1704772B6024B024A9A621D
:10127000FEE700BFD0180020A09B0008000000007F
:1012800011F00C0F38B54FD10D4641680B7804466C
:10129000002B33D1456A2A68136823F01F031360BB
:1012A0001368D807FCD46A7A206A6D683D2393409E
:1012B00002682B60136823F01F0313601368DB07B9
:1012C000FCD4457A4A6841683D23AB400B60002A54
:1012D0002FD004232370204690472378042B28D056
:1012E000202383F31188A06820B10023A360436208
:1012F000FFF766FE002383F3118838BDEB0603D5A4
:101300004B68002BF9D09847AD06F6D563685B684B
:10131000002BF2D004222270204698472378042B19
:10132000EBD10323237038BD72B6064B064A9A628E
:10133000FEE702232370202383F31188A06800288E
:10134000D3D1D7E7D0180020A09B000800000000F0
:1013500000EB810330B4DC6862691368D360F3B9D1
:10136000426D02EB41134FF40020C3F810092368CB
:1013700003F00303012B2AD008B202EB4010012333
:10138000D0F8004944F00444C0F80049D2F83408C9
:1013900003FA01F1014330BCC2F83418704719B99F
:1013A000402B84BF40231360258A426D681E184479
:1013B000B0FBF5F002EB411543EAC04343F00053A4
:1013C000C5F81039236803F00303012BD4D1D2F8F8
:1013D000083813F4807F02EB411308B2D3F80049B8
:1013E00014BF44F0805444F00054C3F80049C4E7EB
:1013F000204AF8B5566D06EB40130446D3F8085959
:10140000C3F80859E80703D5D6F81038D90708D427
:101410002B0605D5D6F834280123A340134215D155
:10142000F8BD02EB8403D86843691F68D9688F420E
:1014300011D3138987680121A14023EA0103138195
:10144000002FE5D010462146B847E1E72046BDE829
:10145000F840FFF77DBAC91B0027C3E90017202316
:1014600083F3118810462146FFF772FF87F3118836
:10147000CEE700BF68180020000000000000000058
:1014800000EB810330B4DD68AB691C68DC6019B91E
:10149000402C84BF40241C606B8A406D2D685A1E0E
:1014A0002244B2FBF3F202FB03F3033323F0030302
:1014B00043EAC24300EB411405F0030243F0C0438A
:1014C000012AC4F8103B0AD009B200EB411130BC2C
:1014D000D1F8003B43F00443C1F8003B7047D0F81B
:1014E000083800EB411213F4807FD2F8003B14BFA0
:1014F00043F0805343F0005309B2C2F8003BE4E7E5
:101500002DE9F041244F7E6D06EB40130446D3F8DD
:10151000085BC3F8085B280703D5D6F81438190709
:1015200031D4EA072DD5D6F81438DB0729D507EBD7
:101530008403D9685CB98A69488A5568B5FBF0F3B9
:1015400000FB13531BB91068D36898420DD37B89F5
:10155000CD680122A24023EA02037B818DB121469E
:101560002B460D48BDE8F04118471B1AC2E900346C
:10157000202383F3118808482146FFF781FF84F375
:101580001188BDE8F08107EB84032146DB6838460B
:101590005B689847C5E700BF68180020000000009E
:1015A0002DE9F04F83B002F0030C01926646C2F3BE
:1015B000C105D70900244FF00F094FF001084FF083
:1015C000030E12E0D0F800B003EA0B033343072CFC
:1015D00003603ED8036A23EA020242EA0A02026278
:1015E000490833D0AD00B6000134CB07F8D54368C5
:1015F00008FA04F223EA02034360826863000EFAE9
:1016000003F322EA03022A438260D0F80CA004F01C
:1016100007022AEA030A9200BCF1020FC0F80CA0EC
:101620006FEA030307FA02FA09FA02F2CAD1072C99
:1016300016D8D0F820B02BEA020242EA0A0202626F
:1016400002681340334349080360CBD103B0BDE8BF
:10165000F08F436A23EA020242EA0A024262BFE7CB
:10166000D0F824B02BEA020242EA0A024262E7E71B
:1016700038B590F834300446152B16D8DFE803F05F
:101680001615151515151615151616161515151505
:10169000151515150B2CC3689B695B682BB9036C7A
:1016A00003B19847002384F8343038BD436D416856
:1016B000D3F800290D6842F40012C3F80029D3F8CA
:1016C000002B42F40012C3F8002B0DB10621A847ED
:1016D000062384F8343038BD0B2380F834302023BF
:1016E00083F31188C36802895B69002542F0010217
:1016F00002812946C3E900559D60FFF729FE85F365
:10170000118838BD0000000000000000000000004B
:1017100038B590F834300446152B21D8DFE803F0B3
:101720000B20202020200B202021314820202020A9
:10173000202020200B0B436D4168D3F800290D6851
:1017400042F40012C3F80029D3F8002B42F400122F
:10175000C3F8002B0DB10621A847062384F83430C6
:1017600038BD90F84B2090F84A30C16B43EA022311
:10177000994206D2C3681B8AB1FBF3F503FB15152A
:10178000EDB1142384F83430202383F31188E36807
:1017900062899B69002542F0010262812046C3E90B
:1017A00000559D602946FFF76BFE85F3118838BD13
:1017B000036C03B19847002384F8343038BD2023EC
:1017C00083F31188C36802895B6942F001020281D8
:1017D0002946C3E900559D60FFF7BAFD85F31188DE
:1017E0000A2384F8343038BD0000000000000000F7
:1017F000F0B400EB81050789D5F80CC00125DCF8B1
:1018000014608D403D4300270581C6E90037B26072
:10181000F0BCFFF79DBD00BF00000000000000000D
:10182000816D8368F0B40C68C465002203F0011375
:101830008F68446D8360C0E9042282614FF0FF35F8
:1018400000E0324604EB42110B46D1F800090028B3
:1018500002F1010605DAD1F8000940F08040C1F834
:101860000009D1F8000B002805DAD1F8000B40F090
:101870008040C1F8000BBA42C3F80859C3F8085BAE
:10188000DFD14FF00113C4F81C38F0BC704700BF23
:10189000704700BF000000000000000000000000D2
:1018A0000020704700000000000000000000000061
:1018B0000020704700000000000000000000000051
:1018C000F8B5D0F88C140A681378042B02D1037A87
:1018D000022B01D00120F8BD0C795589012303FAB0
:1018E00004F42542F6D1D0E90746B44214D0497930
:1018F00002EB81030120DB6888409E690543231DBC
:101900004FF48077002455811046C6E90074B36017
:10191000FFF7B6FD2046F8BD80690028E7D0D9E77B
:10192000406BFFF7CDBF00BF0000000000000000CB
:10193000093138B550F8214094B1202383F3118840
:10194000D4F88C241368527903EB8203DB689B691B
:101950005D6835B92046FFF7B3FF002383F3118894
:1019600038BD04216018FFF76BFBE369616A1D60F5
:10197000A06AA26903448B42E36102F1010228BF1D
:10198000236BA26104F10C0028BFE361FFF748FB61
:10199000E0E700BF000000000000000000000000C1
:1019A0000346D0E90420824203D050F8043B0B6088
:1019B0007047DB68002BF8D0002070470000000063
:1019C00010B5446BD4F88C2413681978042982B0BC
:1019D00002D1217A022901D002B010BD11791A89F1
:1019E00001238B401342F7D101A904F14400FFF712
:1019F000D7FF0246D4F88C04019B01790068FFF7F9
:101A0000F7FEE9E700000000000000000000000011
:101A100010B5202382B083F311881E4CD4F88C2497
:101A200013681978042902D1217A022904D00023ED
:101A300083F3118802B010BD11791A8901238B40FC
:101A40001342F4D1D4E915329342F0D1226D002A29
:101A5000EDD0E26E002AEAD0043AD21AE7D01A603A
:101A6000D4E9171003448B42226D636524BFA36E33
:101A70006365013A002301A907482265E366FFF781
:101A80008FFF0246D4F88C04019B01790068FFF7B0
:101A9000AFFECCE7A8130020EC13002000000000EC
:101AA0002DE9F04100EB810382B09E69F6B1044656
:101AB0000D46202383F3118800EB8107301D082198
:101AC000FFF7BEFAFB685B691B6893B906F144082F
:101AD000404601A9FFF764FF024620B3019B294657
:101AE0002046FFF785FE002383F3118802B0BDE88E
:101AF000F081D6E91720B36D316D03449342B3658D
:101B000001F1010128BFB36E316506F1440828BF19
:101B1000B3654046FFF784FA404601A9FFF740FF4E
:101B200002460028DAD1FB685A691268002ADAD026
:101B30001B8A013B1340D6D1294604F144022046BA
:101B4000FFF756FECFE700BF0000000000000000D6
:101B5000144B596930B48D6884680022AC424262EB
:101B60000CD880F820201B689A689442FBD95A68E8
:101B700030BCC0E9003210605860704781F8202006
:101B80001A4612689468A542FBD354684C6001253C
:101B90000A602160516080F8205030BC5861FEF727
:101BA0009FBB00BFD0180020000000000000000014
:101BB000084B59691A6810B481F820001068186041
:101BC0000124436082F8204010BC5A611046FEF7A1
:101BD00087BB00BFD01800200000000000000000FC
:101BE000F0B54B1C87B049D03F4C404F636905931B
:101BF0002646022956F8183F05464FF0804038BF68
:101C00000221B342426A04975BD0676AD21B8918EB
:101C10002ED398681B689A68091A914204D91B68E8
:101C2000891A9A688A42FAD35A68029201AF0193DC
:101C300017605F6003919A68511A4FF0FF32996004
:101C400022622846FFF7B4FF049B6BB1A369BB4235
:101C50001BD0DDE901321360019BB3425A6003D00F
:101C60009A6803990A449A606369586A07B0F0BD9C
:101C70009A689142D1D20F444763CEE71A4CFFF7DE
:101C800097FF6369586A07B0F0BD019BA36100220A
:101C9000B3425E60049222D09A680398616A02445B
:101CA0004FF080409A60436A581A8242DCD9CB1ABE
:101CB0001344012B98BF821C4FF080430A445A639F
:101CC000D2E78B1801AF6262CDE90166C4E90677FD
:101CD00003910022436302230261C360B1E74FF026
:101CE0008043DA60C0E700BFD0180020510F000821
:101CF00061B1084A10B4526944680346C2E900342D
:101D00000420226010BC5A60FFF76ABF4FF0FF301A
:101D1000704700BFD0180020000000000000000045
:101D2000F8B504460F461646202383F3118803E0D6
:101D3000FFF7DEFF002818DBA56831462046002D9E
:101D4000F6D06269A368511C013B6161A360177002
:101D5000D4E904329A4224BFE3686361E36903B1C2
:101D60009847002080F31188F8BD85F31188F8BDED
:101D70003030FFF7D5BF00BF0000000000000000BA
:101D800030304FF0FF32FFF7CBBF00BF0000000044
:101D900070B5202305460E4683F3118803E0FFF754
:101DA000A7FF00281ADBAC6831462846002CF6D085
:101DB000A969AB6828694A1C013B8242AB60AA61F1
:101DC00028BFEB680C7828BFAB61EB690BB12846E4
:101DD0009847002383F31188204670BD84F311884F
:101DE00070BD00BF00000000000000000000000007
:101DF0000C30FFF7CDBF00BF000000000000000066
:101E00000C304FF0FF31FFF7C3BF00BF00000000F0
:101E100038B504460D4605E0237A83B9FFF768FF1D
:101E200000280BDBE36829462046002BF4D0236909
:101E3000E1691A1D0B44C4E90A23002038BD6FF084
:101E4000010038BD0000000000000000000000009C
:101E500070B520230D46044683F31188866AFEB1CF
:101E60003570D4E90A3201339342A36214D3E26994
:101E70002369A169043A1A60E069E26803448B426D
:101E8000236124BF636A2361013A236BE26000226D
:101E9000A2620BB120469847002080F3118870BDE4
:101EA0001146FFF7B5FF08B9A66AD9E786F311888E
:101EB00070BD00BF00000000000000000000000036
:101EC0004430FFF7C5BF00BF000000000000000065
:101ED00044304FF0FF32FFF7BBBF00BF00000000EF
:101EE00038B504460D4605E0237A83B9FFF700FFB5
:101EF00000280BDBE36829462046002BF4D06369F9
:101F00001A6804331A44C4E90A32002038BD6FF05D
:101F1000010038BD000000000000000000000000CB
:101F200070B52023044683F31188856AE5B115F85E
:101F3000016BE26AA562954211D3D4E90610636988
:101F4000E26803448B42636124BF636A6361013AC0
:101F5000236BE2600022A2620BB120469847002367
:101F600083F31188304670BDFFF7BAFF064608B903
:101F7000A56ADCE785F31188F4E700BF00000000E4
:101F80000C30FFF7CDBF00BF0000000000000000D4
:101F90000C304FF0FF31FFF7C3BF00BF000000005F
:101FA00008B50146202383F311880820FFF718FEA7
:101FB000002383F3118808BD00000000000000002A
:101FC000F0B5284B4FF4804283B05A8300BF2649B6
:101FD0001A830A7832B11A699205FCD5214A13692D
:101FE0009B05FCD41F4B4FF400525A8300BF00BF27
:101FF0001E491020488300BF4FF480545C8300BF0B
:1020000020251C8308831A8385F31188184B194FE8
:102010009C6ADE6AD3E90812032018700968126806
:102020000DF10705CD6044F4806401254D600C601E
:10203000D760556016600C680F4D44F001040C60C9
:1020400011686C6941F00101116043F8084F636247
:10205000FFF7AEFD002383F311889DF8070003B05E
:10206000F0BD00BF00040240480C00200000024008
:1020700038180020C8A40008D01800200000000074
:102080000F4B4FF4004210B55A8300BF00281A834B
:1020900009DD0C4900234FF480720A8300BF01332D
:1020A00083424A83F9D1FEF7D3FCFFF789FF044945
:1020B000054B4FF4806401224C831A7010BD00BFA1
:1020C0000004024000000240480C00200000000014
:1020D000F8B5164B4FF400450F4614465D8300BF1C
:1020E00000281D8309DD124D00234FF480722A83DE
:1020F00000BF013383426A83F9D1FEF7A9FC67B1BF
:102100000B4E27444FF48075FFF75AFF04F8010B7C
:10211000358300BFBC427583F6D10449054B4FF4AB
:102120008060002248831A70F8BD00BF000402409E
:1021300000000240480C00200000000000000000E9
:10214000F8B50546202383F31188124B124EDC6A42
:102150009F6AD3E908120320187009681268CE60DC
:1021600044F4806401264E600F60D56056601460B0
:102170000C680A4D34430C6011686C69314311607E
:1021800043F8084F6362FFF713FD002383F31188C0
:10219000F8BD00BF38180020241B0020D0180020F4
:1021A00000B583B0034601A88DF80430FFF7C8FFDF
:1021B0000E4B4FF480425A8300BF0D491A830A78B0
:1021C00032B11A699205FCD5084A13699B05FCD403
:1021D000064B4FF400525A8300BF06490120488342
:1021E00000BF08831A8303B05DF804FB00040240BB
:1021F000480C002000000240000000000000000029
:10220000F8B506460F2014460F46FEF761FC154B45
:102210004FF400425A8300BF002E1A8309DD124D8D
:1022200000234FF480722A8300BF0133B3426A83D4
:10223000F9D1FEF70DFC67B10B4E27444FF48075C2
:1022400014F8010BFFF7ACFF358300BFBC42758368
:10225000F6D10449054B4FF48060012248831A707F
:10226000F8BD00BF0004024000000240480C0020FE
:1022700070B52E4B044680685D6930B3AA688368E8
:10228000934207D290F820308260062B35D0072B7E
:1022900020D09BB1234603E09968AA68914202D3FB
:1022A0001B689C42F8D15A680620C5E900321560C7
:1022B0005D606C62BDE87040FFF77ABCD0E9003227
:1022C00013605A60FEF77CFEE4E7AB6BC4E902538F
:1022D000AC6370BDD0E90031466A0B60596033468B
:1022E00002E099688A4202D81B689E42F9D15A6876
:1022F000C0E9003210605860CCE7D0E90031466A8E
:102300000B605960334602E099688A4202D81B6824
:102310009E42F9D15A68C0E9003210605860B06836
:10232000AA6883689342ADD3B4E700BFD0180020F9
:1023300038B5104B5C69A36A606204F12805AB42B2
:1023400007D01A68A2621846FEF73AFEA36AAB42AB
:10235000F7D194F822303BB994F821309B0703D190
:10236000D4E90332D3601A61BDE838400F20FFF78B
:102370001FBC00BFD01800200000000000000000BB
:102380000EB42DE9F04F036888B082461B6912AD88
:1023900007959847DAF800108146CC68C1B25046DC
:1023A000A04719F1020F00F0FF81A846AB4CAC4DDD
:1023B00057464FF0000B2521C2466B5C13F0080016
:1023C00040F0D480252911D0494500F08180BA46DB
:1023D0005FFA89F9DAF8003049465B695046984758
:1023E000584608B0BDE8F04F03B070472378252B5E
:1023F0000AD1B9F1250FEAD13B6838461B699847E5
:10240000A61C617881466BE02A2B00F0C4815AF843
:10241000042B0192661CE95C4C0740F1CA81002440
:10242000A3F1300216F8013BE95C04EB8404480791
:1024300002EB4404F4D4002C08BF4FF0FF3403F047
:10244000DF004C2800F0A28001F00301A1F101029D
:10245000B2FA82F25209CDE90262443B342B00F217
:102460009C80DFE813F064019A009A009A009A00B9
:1024700039019A009A009A009A009A001E01A10060
:102480009A009A009A009A0003019A009A00A1000B
:102490009A009A009A009A009A009A009A009A006C
:1024A0009A009A007D0164019A009A009A009A00AD
:1024B00039019A009A009A009A009A001E01A10020
:1024C0009A009A004E009A0003019A009A00A10017
:1024D0003B6838461B6998472646814616F8011B1B
:1024E00019F1020F00F0BE8000293FF470AF3446AE
:1024F00063E73B681B69984710F1020F81463FF480
:102500006FAF15F8093013F008033846F1D1002CED
:10251000C8BF1E4640F39681019B38460BB103F8B5
:1025200006903B681B699847814619F1020FC1B2BA
:1025300006F1010638463FF453AF3B68DB68984725
:10254000B44200F0828115F809301807E4D5019BE8
:1025500033B14FF000029A55019B4FF000021A551B
:10256000029E0BF1010B16F8011BBDE715F80930AF
:102570001B0707D53B6838461B6998472B5C1E072D
:10258000F8D48146264616F8011BA9E732460123F6
:10259000039312F8013B02925FE738685FFA89F112
:1025A0004369384698471BE715F80930180707D5DF
:1025B0003B6838461B6998472B5C1907F8D481465D
:1025C000B9F12B0F00F00881B9F12D0F00F06781F0
:1025D00001230493B9F1300F0DD1661E00F08C81F8
:1025E0003B6838461B69984720F02003582B8146EA
:1025F00000F030813446002305934FF010085FFA55
:1026000089F941464846FEF7C3FB411C034600F0EA
:102610007181023C00263A683846126906FB08368A
:102620009047631C81464146C0B204F1FF3404D098
:10263000FEF7AEFB421C0346EDD1049B03B9764284
:10264000019B2BB1039A002A40F0A980019B1E60D8
:10265000029E0BF1010B16F8011B41E7AD9B000830
:102660006DA70008BA464FF0FE09B3E615F8093029
:102670001E0707D53B6838461B6998472B5C1A072D
:10268000F8D48146B9F12B0F00F02281B9F12D0F5A
:1026900000F0BC8001260023CDE904634FF00A0856
:1026A000ADE715F80930190707D53B6838461B69AF
:1026B00098472B5C1B07F8D48146B9F12B0F00F02B
:1026C0001081B9F12D0F00F0AF8001200023CDE97A
:1026D00004034FF0080892E715F809301A0707D5E8
:1026E0003B6838461B6998472B5C1B07F8D481462A
:1026F000B9F12B0F65D0B9F12D0F00F0C580012382
:102700000493B9F1300F57D1661E00F0F5803B6895
:1027100038461B69984720F02003582B814600F06B
:10272000A6800123344605934FF0080867E715F8A3
:1027300009301B0707D53B6838461B6998472B5C57
:102740001E07F8D48146B9F12B0F00F0B380B9F120
:102750002D0F4CD00123CDE904334FF00A084EE78A
:10276000002C7FF7FDAE019BB8461C441E461F4659
:1027700040460FB186F80090D8F800301B699847A2
:1027800010F1020F814606F101063FF429AEB44272
:10279000EED14746E4E663780190A61C3BE6059A35
:1027A000002A3FF453AF52E74FF0FE094FF0000B01
:1027B00010E64FF0FF3442E6012305934FF00A087C
:1027C0001DE7013C3FF40CAE3B6838461B69984757
:1027D00001238146049394E7013C3FF401AE3B683A
:1027E00038461B699847012381460493F2E6013C71
:1027F0003FF4F6AD3B6838461B6998470123814694
:102800000020CDE904034FF00A08F8E6013C3FF44C
:10281000E7AD3B6838461B6998470023049381461F
:1028200005934FF00A08EAE6013C3FF4D9AD3B6856
:1028300038461B69984700230493814605934FF05F
:102840000808DCE6611C3FF48BAE019B002B7FF493
:1028500083AE85E6023C3FF4C3AD3B6838461B6956
:1028600098470023814605934FF01008C7E6023CC5
:102870003FF4B6AD3B6838461B6998470123814653
:1028800005934FF01008BAE6013C3FF4A9AD3B6850
:1028900038461B69984700238146049331E7013C81
:1028A0003FF49EAD3B6838461B699847002381463C
:1028B00004938FE6013C3FF493AD3B6838461B69B7
:1028C000984701230493814605934FF00A0896E642
:1028D000013C3FF485AD3B6838461B69984781460B
:1028E000D8E6013C3FF47CAD3B6838461B6998470D
:1028F0008146EAE6BA466DE50BF1010B70E500BFD3
:102900000EB42DE9F04F86B00FAB53F8044B029391
:10291000254615F8011B002900F03B820746994621
:102920004FF000080CE03B683846DB6808F101080E
:102930002C469847254615F8011B002900F0BE805B
:102940002529F0D163782D2B04BFA51C01202B78FD
:1029500018BF00202B2B03BF6B784FF0010E75447E
:102960004FF0000E302B05BF1E466B782026013538
:102970002A2B40F0AC8059F8041B6B78AC1C2E2B32
:1029800000F03081002203F0DF054C2D00F0B28012
:10299000A3F1440CBCF1340F00F29881DFE81CF085
:1029A0005E0196019601960196015E0196019601DF
:1029B0009601960196019A013500960196019601BD
:1029C00096019400960196013500960196019601B4
:1029D00096019601960196019601960196014D0188
:1029E0005E0196019601960196015E01960196019F
:1029F0009601960196019A013500960196012D01E6
:102A0000960194009601960135004FF0100E59F88A
:102A1000045B0DF1170300E06346AA46B5FBFEF523
:102A20000EFB15AB0BF13002392AC8BF0BF1370290
:102A3000D2B2F24503F1FF3C03F8012CECD20DF1C8
:102A40000C0A0DF11705A5EB0C05D6460DF1170C78
:102A500001E013F8012B0EF8012B6345F9D1491B56
:102A6000013D21EAE17B20B90029CBF1000B00F305
:102A70004581002D0FDB6B1C534401941C463A68C2
:102A80001AF8011BD26838469047A245F7D108F1E1
:102A90000108019CA844BBF1000F3FF44BAF5D4619
:102AA0003B683146DB6838469847013DF8D12546FA
:102AB000D84415F8011B00297FF442AF404606B008
:102AC000BDE8F04F03B070474FF00A0E9FE76C1C53
:102AD000002BF3D00021A3F13002D2B2092A01EB7E
:102AE00081053FF64CAF14F8013B02EB4501002B8A
:102AF000F1D1E3E714F8013B002BDFD0A3F144054B
:102B0000342D00F2E3800FF2080C5CF825F000BFD2
:102B10005D2C0008CD2C0008CD2C0008CD2C000821
:102B2000CD2C00085D2C0008CD2C0008CD2C000811
:102B3000CD2C0008CD2C0008CD2C0008D52C000889
:102B40000B2A0008CD2C0008CD2C0008CD2C000845
:102B5000CD2C0008C92A0008CD2C0008CD2C000877
:102B60000B2A0008CD2C0008CD2C0008CD2C000825
:102B7000CD2C0008CD2C0008CD2C0008CD2C000851
:102B8000CD2C0008CD2C0008CD2C00083B2C0008D3
:102B90005D2C0008CD2C0008CD2C0008CD2C0008A1
:102BA000CD2C00085D2C0008CD2C0008CD2C000891
:102BB000CD2C0008CD2C0008CD2C0008D52C000809
:102BC0000B2A0008CD2C0008CD2C0008FB2B000898
:102BD000CD2C0008C92A0008CD2C0008CD2C0008F7
:102BE0000B2A00082378002B3FF468AF2A2B74D1FE
:102BF000637859F8042B0234C5E659F804ABBAF1EE
:102C0000000F00F0BC809AF80030002A40F0AA8043
:102C1000002B00F0AB8047F6FE72554601E0D34230
:102C200005D415F8016FAAEB0503002EF7D1A5EB2B
:102C30000A05491B2026013D13E759F8043B8DF88E
:102C40000C300139202621EAE17B18B90029CBF1AB
:102C5000000B72DC00250DF10C0A0CE759F804CBCF
:102C6000BCF1000F5FDBBEF1000F00F08E802B2364
:102C70008DF80C300DF10D050DF10C0A05F10B036B
:102C800001931A46474BA3FB0CE3DB0803EB830BD2
:102C90009E46ACEB4B033033E346DBB2BBF1090F8E
:102CA00002F8013DF446EDDC9E46019BA3EB020CCD
:102CB000AC44734601E012F8013F05F8013B65455D
:102CC000F9D1A5EB0A05491B013DCAE68DF80C3088
:102CD0000139B8E74FF0080E99E601340022A3F15C
:102CE0003005EDB2092D02EB820C3FF64CAE14F824
:102CF000013B05EB4C02002BF1D1DFE6CDF804B02F
:102D00009AF800102D2921D03B683146DB683846FF
:102D100098471BF1010BF7D1019B002DA8EB03088D
:102D2000BFF6A9AE06E62D23CCF1000C8DF80C30D1
:102D30000DF10D050DF10C0AA0E79DF80C10CDF872
:102D400004B02D290DF10C0A0546DDD1302EDBD162
:102D50003A683846D26890470AF1010A08F101083A
:102D6000013DD1E713B1013A7FF557AF21EAE17B8D
:102D700018B90029CBF1000B0DDC20268BE6DFF81B
:102D800028A0002A3FF447AFEDE70DF10C0A5546A5
:102D900074E7884692E6CDF804B020264FF0FF3560
:102DA000AEE700BFCDCCCCCCB49B00080000000047
:102DB00008B50246252900F2F181DFE811F0E501AE
:102DC000DB0184017A01700166015C015201480156
:102DD0003E0134012A01200116010C010201F80014
:102DE000EE00E400DA00D000C600BC00B200A8008B
:102DF0009E0094008A00800076006C0062005800FB
:102E00004E0044003A0030002600B449B448FFF7B1
:102E100077FDBDE80840B349B148FFF771BDAF4940
:102E2000AF48FFF76DFDBDE80840AF49AC48FFF77C
:102E300067BDAA49AA48FFF763FDBDE80840AB4952
:102E4000A748FFF75DBDA549A548FFF759FDBDE8B7
:102E50000840A749A248FFF753BDA049A048FFF783
:102E60004FFDBDE80840A3499D48FFF749BD9B4978
:102E70009B48FFF745FDBDE808409F499848FFF78C
:102E80003FBD96499648FFF73BFDBDE808409B498A
:102E90009348FFF735BD91499148FFF731FDBDE8F3
:102EA000084097498E48FFF72BBD8C498C48FFF7A7
:102EB00027FDBDE8084093498948FFF721BD8749B0
:102EC0008748FFF71DFDBDE808408F498448FFF79C
:102ED00017BD82498248FFF713FDBDE808408B49C2
:102EE0007F48FFF70DBD7D497D48FFF709FDBDE82F
:102EF000084087497A48FFF703BD78497848FFF7CB
:102F0000FFFCBDE8084083497548FFF7F9BC7349E9
:102F10007348FFF7F5FCBDE808407F497048FFF7AC
:102F2000EFBC6E496E48FFF7EBFCBDE808407B49FB
:102F30006B48FFF7E5BC69496948FFF7E1FCBDE86C
:102F4000084077496648FFF7DBBC64496448FFF7EF
:102F5000D7FCBDE8084073496148FFF7D1BC5F4921
:102F60005F48FFF7CDFCBDE808406F495C48FFF7BC
:102F7000C7BC5A495A48FFF7C3FCBDE808406B4933
:102F80005748FFF7BDBC55495548FFF7B9FCBDE8A8
:102F9000084067495248FFF7B3BC50495048FFF713
:102FA000AFFCBDE8084063494D48FFF7A9BC4B4959
:102FB0004B48FFF7A5FCBDE808405F494848FFF7CC
:102FC0009FBC46494648FFF79BFCBDE808405B496B
:102FD0004348FFF795BC41494148FFF791FCBDE8E4
:102FE000084057493E48FFF78BBC3C493C48FFF737
:102FF00087FCBDE8084053493948FFF781BC374991
:103000003748FFF77DFCBDE808404F493448FFF7DB
:1030100077BC32493248FFF773FCBDE808404B49A2
:103020002F48FFF76DBC2D492D48FFF769FCBDE81F
:10303000084047492A48FFF763BC28492848FFF75A
:103040005FFCBDE8084043492548FFF759BC2349C8
:103050002348FFF755FCBDE808403F492048FFF7EB
:103060004FBC1E491E48FFF74BFCBDE808403B49DA
:103070001B48FFF745BC19491948FFF741FCBDE85B
:10308000084037491648FFF73BBC14491448FFF77E
:1030900037FCBDE8084033491148FFF731BC0F4900
:1030A0000F48FFF72DFCBDE808402F490C48FFF7FB
:1030B00027BC0A490A48FFF723FCBDE808402B4912
:1030C0000748FFF71DBC05490548FFF719FCBDE897
:1030D000084027490248FFF713BC00BFBC9B00080B
:1030E000F00E0020809D0008749D0008689D000877
:1030F000589D0008489D0008389D00082C9D000838
:10310000209D0008109D0008009D0008F49C000808
:10311000E89C0008E09C0008D09C0008C49C0008C3
:10312000B89C0008B09C0008A09C0008909C000877
:10313000849C0008789C0008709C0008649C00082F
:10314000589C00084C9C0008449C0008389C0008CF
:103150002C9C0008209C0008149C00080C9C000873
:10316000009C0008F49B0008E89B0008DC9B00081A
:10317000D49B00080E490F48FFF7C2FBBDE808408A
:103180000D490C48FFF7BCBB09490A48FFF7B8FBDB
:10319000BDE8084009490748FFF7B2BB04490548A4
:1031A000FFF7AEFBBDE8084005490248FFF7A8BBA2
:1031B000BC9B0008F00E0020C89B0008C09B0008C4
:1031C000909D0008000000000000000000000000CA
:1031D0002DE98048A84BA94EDFF8C492DFF8C4A2BD
:1031E00093E80700D5B011AB03C300270A971A7004
:1031F000B346A046D6F88C341B681B78042B66D1E6
:10320000336858461B6998472023C4B283F311885A
:103210004FF080420023526A83F311889045C0F03A
:10322000898102F59C5808F10808002F40F0BA8106
:10323000934F002500213846FFF7BAFDA4F1420361
:1032400089F80040182B1AD8DFE813F09F01860197
:1032500019001900190019001900190019001900A6
:1032600019001900530019001900190046007901CE
:10327000190019002E019201190019003500D6F825
:103280008C341B681B78042B584641F0E683336866
:103290001B6998472023C4B283F311884FF0804301
:1032A0005A6A85F31188904502F59C58C0F0428116
:1032B00008F10808BEE773481921FFF779FDD6F831
:1032C0008C341B681B78042B00F0968519274FF46B
:1032D0007A70FEF765FE8DE76A481521FFF768FDF5
:1032E000D6F88C341B681B78042B00F0D08415278B
:1032F000EDE764480E21FFF75BFDD6F88C341B68C0
:103300001B78042B41F09085336858461B69984719
:103310002023C4B283F311884FF080420023526A05
:1033200083F311889045C0F0058102F59C5808F19F
:10333000080899F80030532C23444FF020074FF031
:103340008045584689F800301FD0D6F88C341B6869
:103350001B78042B41F0688533681B699847C4B219
:1033600087F3118800236A6A83F31188424502F5C6
:103370009C5800F2DF8099F80030532C234408F168
:103380000808584689F80030DFD13F480F21FFF781
:103390000FFDD6F88C341B681B78042B02F0F783E2
:1033A0004FF47A70FEF7FCFDD6F88C341B681B785E
:1033B000042B02F0EC834FF47A70FEF7F1FDD6F89F
:1033C0008C341B681B78042B43F0198033685846F3
:1033D0001B6998472023C4B283F311884FF08042C1
:1033E0000023526A83F311889045C0F0A38002F550
:1033F0009C5808F1080825480021FFF7D9FC99F8E6
:103400000030234A23492448FFF77AFA99F800301C
:10341000A34201F0FC8721491F48FFF771FAD6F853
:103420008C341B681B78042B01F04E854FF47A70A6
:10343000FEF7B6FDD6F88C341B681B78042B02F01F
:10344000ED824FF47A70FEF7ABFDD6F88C341B6832
:103450001B78042B41F00183336858461B69984759
:103460002023C4B283F311884FF080420023526AB4
:1034700083F311885EE000BF2CA00008A813002091
:103480009C9D0008C09D0008D89E0008DC9D000897
:10349000E09D0008EC9D0008F00E0020309E000822
:1034A000821A002000000240A8480121FFF780FC9A
:1034B000D6F88C341B681B78042B02F0DA864FF4A4
:1034C0007A70FEF76DFDD6F88C341B681B78042BE0
:1034D00042F09887336858461B6998472023C4B246
:1034E00083F311884FF080420023526A83F31188DE
:1034F00090451FD302F59C5808F108089448002114
:10350000FFF756FC562C02F0DE81D6F88C341B688F
:103510001B78042B41F0A182336858461B699847F9
:103520002023C4B283F311884FF080420023526AF3
:1035300083F3118802F59C5808F1080878E683485F
:103540000C21FFF735FCD6F88C341B681B78042B54
:1035500001F0B2810C27BAE67C482321FFF728FC52
:10356000D6F88C341B681B78042B6BD02327AEE66F
:1035700076481021FFF71CFCD6F88C341B681B78AA
:10358000042B00F074841027A1E670480221FFF795
:103590000FFCD6F88C341B681B78042B01F0658077
:1035A000022794E6BB1E242BA8D801A252F823F0D0
:1035B00095460008E54100081F4100088B470008B8
:1035C0007B400008AD450008FD4400082F4400087A
:1035D000434300085F490008E3480008F93E00083B
:1035E00033330008F7330008993E000841460008CD
:1035F000A53F0008F53F0008B13B0008B93C0008B2
:10360000113D0008BF3A0008EF390008233E0008CA
:10361000653D000849480008153B00088142000844
:103620002F3C0008713900084F380008E9380008BD
:103630008F3700086F360008EF360008E9490008A8
:1036400001470008336858461B6998472023C4B2D5
:1036500083F311884FF080420023526A83F311886C
:103660009045FFF467AF02F59C5808F1080899F8F7
:103670000050384B384A1C80384939482346254485
:1036800089F80050FFF73CF9D6F88C341B681B789A
:10369000042B01F0E9814FF47A70FEF781FCD6F833
:1036A0008C341B681B78042B01F0DE814FF47A7098
:1036B000FEF776FCD6F88C341B681B78042B42F09E
:1036C0008584336858461B6998472023C4B283F326
:1036D00011884FF080420023526A83F3118890458D
:1036E0000A93FFF427AF02F59C5808F108080A9BDB
:1036F0004FF0804714A8174999F80020C45409884E
:1037000001339DB2A94204EB0203584689F8003008
:1037100002F02881D6F88C341B681B78042B41F00A
:10372000A98333681B6998472023C4B283F31188A7
:1037300000237A6A83F31188904502F59C58C2F001
:10374000F58008F108082B46D4E700BFC09D0008AB
:10375000D89E0008801A00202C9F0008EC9D0008CD
:10376000F00E0020336858461B6998472023C4B2E6
:1037700083F311884FF080420023526A83F311884B
:1037800042453FF6D7AE02F59C5808F10808B84804
:103790000021FFF70DFB99F80030B64AB649B7484B
:1037A000FFF7AEF899F80030A34201F0BF85B449A5
:1037B000B248FFF7A5F8D6F88C341B681B78042BA9
:1037C00001F08F854FF47A70FEF7EAFBD6F88C345F
:1037D0001B681B78042B02F0CA814FF47A70FEF745
:1037E000DFFBD6F88C341B681B78042B02F0758441
:1037F0004FF47A70FEF7D4FBD6F88C341B681B7834
:10380000042B41F02A81336858461B6998472023CE
:10381000C4B283F311884FF080420023526A83F3CD
:10382000118887E6336858461B6998472023C4B23D
:1038300083F311884FF080420023526A83F311888A
:1038400042453FF677AE02F59C5808F1080899F812
:1038500000308C482344212189F80030FFF7A8FA72
:10386000894BD6F88C241B7812681B0403EB0423C5
:1038700012780993854B0025042A1D8001F00881E8
:103880004FF47A70FEF78CFBD6F88C341B681B78EB
:10389000042B01F0FD804FF47A70FEF781FBD6F81F
:1038A0008C341B681B78042B0AD04FF47A70FEF717
:1038B00077FBD6F88C341B681B78042B41F0B78259
:1038C000336858461B6998472023C4B283F3118894
:1038D0004FF080435A6A85F311889045FFF42AAE71
:1038E00002F59C5808F1080820274FF08045674BE7
:1038F00067491B8899F80020098814A82244C454F9
:1039000001339BB2614C89F80020994258462380CC
:1039100001F0AA87D6F88C341B681B78042B41F081
:10392000868233681B699847C4B287F311880023E5
:103930006A6A83F31188904502F59C58FFF4FAAD4A
:1039400008F10808D3E7336858461B6998472023D5
:10395000C4B283F311884FF080420023526A83F38C
:10396000118842453FF6E6AD02F59C5808F108087B
:1039700099F8003043482344202189F80030FFF7AC
:1039800017FAD6F88C34404A1B6814701B78042B45
:103990003FF448AF4FF47A70FEF702FBD6F88C3450
:1039A0001B681B78042B01F07C824FF47A70FEF7C1
:1039B000F7FAD6F88C341B681B78042B01F071825F
:1039C000202784E4336858461B6998472023C4B2F3
:1039D00083F311884FF080420023526A83F31188E9
:1039E00042453FF6A7AD02F59C5808F1080820486B
:1039F0000021FFF7DDF999F800301E4A1E491F48E3
:103A0000FEF77EFF99F80030A34202F0D3801C49F4
:103A10001A48FEF775FFD6F88C341B681B78042B08
:103A200001F008824FF47A70FEF7BAFAD6F88C34B7
:103A30001B681B78042B01F0F4864FF47A70FEF7B4
:103A4000AFFAD6F88C341B681B78042B41F0058044
:103A5000336858461B6998472023C4B283F3118802
:103A60004FF080420023526A83F3118862E500BF61
:103A7000DC9D0008E09D0008EC9D0008F00E002091
:103A8000309E0008D09D0008C81800204820002063
:103A9000801A0020336858461B6998472023C4B217
:103AA00083F311884FF080420023526A83F3118818
:103AB00042453FF63FAD02F59C5808F1080899F8D9
:103AC0000030C6482344182189F80030FFF770F908
:103AD000D6F88C34099A1B681B782244042B09926F
:103AE0003FF470AF1827FFF7F2BB336858461B69E5
:103AF00098472023C4B283F311884FF080420023FB
:103B0000526A83F3118842453FF614AD02F59C5882
:103B100008F1080899F80030B04823441D2189F8BD
:103B20000030FFF745F9D6F88C34099A1B681B78EA
:103B300002EB0422042B099200F08D834FF47A707B
:103B4000FEF72EFAD6F88C341B681B78042B00F095
:103B500082834FF47A70FEF723FAD6F88C341B6810
:103B60001B78042B01F06A874FF47A70FEF718FA7D
:103B7000D6F88C341B681B78042B01F05F871D2757
:103B8000FFF7A5BB336858461B6998472023C4B28A
:103B900083F311884FF080420023526A83F3118827
:103BA000424502F2638302F59C5808F108080A9521
:103BB0008B480021FFF7FCF899F80030894A8A49C0
:103BC0008A48FEF79DFE99F80030A34201F0BB81C0
:103BD00087498648FEF794FED6F88C341B681B781C
:103BE000042B40F03A87336858461B6998472023D6
:103BF000C4B283F311884FF080420023526A83F3EA
:103C0000118897E4336858461B6998472023C4B24B
:103C100083F311884FF080420023526A83F31188A6
:103C200042453FF687AC02F59C5808F1080899F820
:103C300000306A4823441F2189F80030FFF7B8F8A4
:103C4000D6F88C34002C40F065871B6869491B78D6
:103C50004FF48072042B0A803FF475AE4FF47A70F3
:103C6000FEF79EF9D6F88C341B681B78042B3FF4C2
:103C70006AAE4FF47A70FEF793F9D6F88C341B686D
:103C80001B78042B3FF45FAE1F27FFF720BB336880
:103C900058461B6998472023C4B283F311884FF01C
:103CA00080420023526A83F311889045FFF442ACAE
:103CB00002F59C5808F1080899F800304748234459
:103CC000162189F80030FFF773F8D6F88C34002CF1
:103CD00040F00A871B6847491B784FF48072042B19
:103CE0000A8040F00887336858461B6998472023AC
:103CF000C4B283F311884FF080420023526A83F3E9
:103D0000118842453FF616AC02F59C5808F10808A8
:103D100099F8003031482344172189F80030FFF723
:103D200047F8D6F88C341B681B782202042B0992C2
:103D30003FF4B0AE1727FFF7CABA336858461B697D
:103D400098472023C4B283F311884FF080420023A8
:103D5000526A83F3118842453FF6ECAB02F59C585A
:103D600008F1080899F800301C4823441B2189F801
:103D70000030FFF71DF8D6F88C34002C40F0488551
:103D80001B681C491B784FF48072042B0A8000F0DA
:103D900046854FF47A70FEF703F9D6F88C341B6829
:103DA0001B78042B00F03B854FF47A70FEF7F8F88F
:103DB000D6F88C341B681B78042B01F01C864FF45A
:103DC0007A70FEF7EDF8D6F88C341B681B78042B5C
:103DD00001F011861B27FFF77ABA00BFD09D0008BB
:103DE000DC9D0008E09D0008EC9D0008F00E00201E
:103DF000309E0008801A0020336858461B69984797
:103E00002023C4B283F311884FF080420023526A0A
:103E100083F311889045FFF48DAB02F59C5808F1AF
:103E2000080899F80030522C234489F8003001F03A
:103E3000E082572C01F0CF82A5480021FEF7B8FFA1
:103E4000D6F88C341B681B78042B40F00686336848
:103E500058461B6998472023C4B283F311884FF05A
:103E600080420023526A83F31188FFF763BB3368F3
:103E700058461B6998472023C4B283F311884FF03A
:103E800080420023526A83F311889045FFF452ABBD
:103E900002F59C5808F1080899F800308D48234431
:103EA000112189F80030FEF783FFD6F88C34002CFE
:103EB00040F024861B6888491B784FF48072042BDD
:103EC0000A8000F0A7830A941127FFF700BA33682D
:103ED00058461B6998472023C4B283F311884FF0DA
:103EE00080420023526A83F3118842453FF622AB99
:103EF00002F59C5808F1080878480021FEF758FFA1
:103F000099F80030764A77497748FEF7F9FC99F836
:103F10000030A34201F0588074497348FEF7F0FC6A
:103F2000D6F88C341B681B78042B01F03D804FF4CD
:103F30007A70FEF735F8D6F88C341B681B78042BA2
:103F400001F005864FF47A70FEF72AF8D6F88C3423
:103F50001B681B78042B40F08085336858461B692A
:103F600098472023C4B283F311884FF08042002386
:103F7000526A83F31188FFF7DDBA336858461B692C
:103F800098472023C4B283F311884FF08042002366
:103F9000526A83F3118842453FF6CCAA02F59C5839
:103FA00008F1080899F800304A482344132189F899
:103FB0000030FEF7FDFED6F88C34099A1B681B789A
:103FC0002244042B099240F04C85336858461B6903
:103FD00098472023C4B283F311884FF08042002316
:103FE000526A83F3118842453FF6A4AA02F59C5811
:103FF00008F108080A9B4FF0804714A8364999F841
:104000000020C454098801339DB2A94204EB020385
:10401000584689F8003001F08C84D6F88C341B683F
:104020001B78042B40F01C8533681B6998472023BC
:10403000C4B283F3118800237A6A83F3118842455E
:1040400002F59C5801F20D8408F108082B46D4E7CC
:10405000336858461B6998472023C4B283F31188FC
:104060004FF080420023526A83F3118842453FF6A5
:1040700061AA02F59C5808F1080899F80030154823
:1040800023440A2189F80030FEF792FED6F88C34DA
:10409000174A1B6814701B78042B00F03D814FF405
:1040A0007A70FDF77DFFD6F88C341B681B78042BE3
:1040B00000F0E4864FF47A70FDF772FFD6F88C3486
:1040C0001B681B78042B00F0D9860A27FFF7FFB87E
:1040D000449E0008D09D0008801A0020DC9D000846
:1040E000E09D0008EC9D0008F00E0020309E0008C6
:1040F000781D0020336858461B6998472023C4B2B6
:1041000083F311884FF080420023526A83F31188B1
:1041100042453FF60FAA02F59C5808F10808AD4841
:104120000021FEF745FE99F80030AB4AAB49AC4898
:10413000FEF7E6FB99F80030A34240F0DE853368D5
:10414000A84ADB68117858469847D6F88C341B6823
:104150001B78042B01F0A5814FF47A70FDF720FF46
:10416000D6F88C341B681B78042B01F092864FF430
:104170007A70FDF715FFD6F88C341B681B78042B7A
:1041800001F0E1874FF47A70FDF70AFFD6F88C341E
:104190001B681B78042B40F06084336858461B6909
:1041A00098472023C4B283F311884FF08042002344
:1041B000526A83F31188FFF7BDB9336858461B690B
:1041C00098472023C4B283F311884FF08042002324
:1041D000526A83F3118842453FF6ACA902F59C5818
:1041E00008F1080899F80030522C234489F800306F
:1041F00000F07A867C480921FEF7DAFDD6F88C3487
:104200007A4A1B6814701B78042B00F0FB804FF473
:104210007A70FDF7C5FED6F88C341B681B78042B2A
:1042200000F0F0804FF47A70FDF7BAFED6F88C34C7
:104230001B681B78042B01F0B6864FF47A70FDF7EB
:10424000AFFED6F88C341B681B78042B01F0AB86CC
:104250000927FFF73CB8336858461B699847202365
:10426000C4B283F311884FF080420023526A83F373
:10427000118842453FF65EA902F59C5808F10808EE
:1042800054480021FEF794FD99F80030524A5349F2
:104290005348FEF735FB99F80030A34201F0E6845D
:1042A00053494F48FEF72CFBD6F88C341B681B781B
:1042B000042B00F0CF854FF47A70FDF771FED6F82D
:1042C0008C341B681B78042B01F0BB824FF47A708E
:1042D000FDF766FED6F88C341B681B78042B01F0C2
:1042E0008A864FF47A70FDF75BFED6F88C341B6833
:1042F0001B78042B40F0B183336858461B699847FC
:104300002023C4B283F311884FF080420023526A05
:1043100083F31188FFF70EB9336858461B69984735
:104320002023C4B283F311884FF080420023526AE5
:1043300083F3118842453FF6FDA802F59C5808F129
:1043400008082C480021FEF733FD99F80030224A76
:1043500022492348FEF7D4FA99F80030A34240F0EE
:104360003984254B1B78082B01F2BB80234A244952
:1043700013705846FEF7C4FAD6F88C341B681B78C5
:10438000042B01F046854FF47A70FDF709FED6F84C
:104390008C341B681B78042B01F038874FF47A703B
:1043A000FDF7FEFDD6F88C341B681B78042B40F01B
:1043B0005483336858461B6998472023C4B283F35B
:1043C00011884FF080420023526A83F31188FFF76F
:1043D000B1B800BFDC9D0008E09D0008EC9D00081E
:1043E000F00E0020CB180020E89E0008CC1800201A
:1043F000309E0008D09D0008781D0020C9180020BC
:104400002C9E0008336858461B6998472023C4B285
:1044100083F311884FF080420023526A83F311889E
:1044200042453FF687A802F59C5808F10808C048A5
:104430000021FEF7BDFC99F80030A34240F02C8427
:10444000BC4B1B78082B01F2AE80BB4ABB491370F2
:1044500014465846FEF754FA2278B949B948FEF78F
:104460004FFAD6F88C341B681B78042B01F0E184DA
:104470004FF47A70FDF794FDD6F88C341B681B78E6
:10448000042B01F0D3864FF47A70FDF789FDD6F83E
:104490008C341B681B78042B01F09D874FF47A70D5
:1044A000FDF77EFDD6F88C341B681B78042B40F09A
:1044B000D482336858461B6998472023C4B283F3DB
:1044C00011884FF080420023526A83F31188FFF76E
:1044D00031B8336858461B6998472023C4B283F328
:1044E00011884FF080420023526A83F311884245BD
:1044F0003FF620A802F59C5808F1080892480021D0
:10450000FEF756FC99F80030904A91498D48FEF725
:10451000F7F999F80030A34240F02B8433688D4AB4
:10452000DB68117858469847D6F88C341B681B789E
:10453000042B01F069804FF47A70FDF731FDD6F855
:104540008C341B681B78042B01F0D3844FF47A70F1
:10455000FDF726FDD6F88C341B681B78042B40F041
:104560007C82336858461B6998472023C4B283F382
:1045700011884FF080420023526A83F31188FEF7BE
:10458000D9BF336858461B6998472023C4B283F3C8
:1045900011884FF080420023526A83F3118842450C
:1045A0003EF6C8AF02F59C5808F1080899F80030AB
:1045B000452C234489F8003000F01284522C00F07E
:1045C0000F84532C01F0608263480B21FEF7F0FB4F
:1045D000D6F88C34614A1B6814701B78042B00F0E9
:1045E000A9814FF47A70FDF7DBFCD6F88C341B6898
:1045F0001B78042B01F0CA834FF47A70FDF7D0FCCE
:10460000D6F88C341B681B78042B01F0BF830B2772
:10461000FEF75DBE336858461B6998472023C4B235
:1046200083F311884FF080420023526A83F311888C
:1046300042450A933EF67EAF02F59C5808F1080801
:1046400099F8003044482344122189F80030FEF7DD
:10465000AFFBD6F88C341B681B782202042B09921E
:104660003FF48BAC1227FEF732BE336858461B6905
:1046700098472023C4B283F311884FF0804200236F
:10468000526A83F311889045FEF454AF02F59C58AA
:1046900008F1080899F80030522C234489F80030BA
:1046A00001F04080532C01F00E80452C00F0DC8797
:1046B000D6F88C341B681B78042B01F051844FF41E
:1046C0007A70FDF76DFCD6F88C341B681B78042BD0
:1046D00041F03685336858461B699847202383F399
:1046E00011884FF080420023526A83F311884245BB
:1046F00002D9C4B2FEF71EBF02F59C5808F10808A3
:10470000D6F88C341B681B78042B40F0A6813368E4
:1047100058461B6998472023C4B283F311884FF091
:1047200080420023526A83F31188FEF703BF00BF63
:10473000DC9D0008CC180020CB1800202C9E00081F
:10474000F89E0008F00E0020449E0008E09D00083E
:10475000EC9D0008CA180020D09D0008781D00209C
:10476000336858461B6998472023C4B283F31188E5
:104770004FF080420023526A83F3118842453EF68F
:10478000D9AE02F59C5808F10808CA480021FEF786
:104790000FFB99F80030C84AC849C948FEF7B0F87D
:1047A00099F80030A34240F0E4813368C54ADB68E1
:1047B000117858469847D6F88C341B681B78042B20
:1047C00000F07F864FF47A70FDF7EAFBD6F88C3460
:1047D0001B681B78042B01F09C834FF47A70FDF763
:1047E000DFFBD6F88C341B681B78042B40F0358136
:1047F000336858461B6998472023C4B283F3118855
:104800004FF080420023526A83F31188FEF792BE74
:104810001B68AD4A1B781480042B7FF4BAAA336856
:1048200058461B6998472023C4B283F311884FF080
:1048300080420023526A83F3118842453EF67AAEE5
:1048400002F59C5808F1080899F80030994823446B
:104850001C2189F80030FEF7ABFAD6F88C349B4A5D
:104860001B6814701B782204042B09923FF43DA9A5
:104870004FF47A70FDF794FBD6F88C341B681B78E4
:10488000042B3FF432A94FF47A70FDF789FBD6F878
:104890008C341B681B78042B01F09A804FF47A70DB
:1048A000FDF77EFBD6F88C341B681B78042B01F0D7
:1048B0008F801C27FEF70BBD336858461B6998474D
:1048C0002023C4B283F311884FF080420023526A40
:1048D00083F311889045FEF42DAE02F59C5808F143
:1048E000080899F800307A481C440D2189F80040E6
:1048F000FEF75EFAD6F88C341B681B78042B3FF465
:10490000E6AA4FF47A70FDF74BFBD6F88C341B689F
:104910001B78042B3FF4DBAA4FF47A70FDF740FBC1
:10492000D6F88C341B681B78042B3FF4D0AA0D27D3
:10493000FEF7CDBC336858461B6998472023C4B2A4
:1049400083F311884FF080420023526A83F3118869
:1049500042453EF6EFAD02F59C5808F1080855486F
:104960000021FEF725FA99F80030A34240F0638158
:10497000584B1B78082B00F2E585574A57491370AE
:104980005846FDF7BDFFD6F88C341B681B78042B06
:1049900001F00F824FF47A70FDF702FBD6F88C34E9
:1049A0001B681B78042B01F051844FF47A70FDF7DB
:1049B000F7FAD6F88C341B681B78042B4DD133687A
:1049C00058461B6998472023C4B283F311884FF0DF
:1049D00080420023526A83F31188FEF7ABBD02F5D3
:1049E0009C5808F108080A953D482521FEF7E0F992
:1049F00099F80030A34200F037833A493048FDF778
:104A00007FFFD6F88C341B681B78042B00F00D83D5
:104A10004FF47A70FDF7C4FAD6F88C341B681B7813
:104A2000042B01F084804FF47A70FDF7B9FAD6F8C0
:104A30008C341B681B78042B0FD1336858461B69D4
:104A400098472023C4B283F311884FF0804200239B
:104A5000526A83F31188FEF76DBD0027FEF737BC5D
:104A60000A951327FEF733BC336858461B699847ED
:104A70002023C4B283F311884FF080420023526A8E
:104A800083F3118842450A933EF654ADFEF72BBEE0
:104A9000336858461B6998472023C4B283F31188B2
:104AA0004FF080435A6A85F3118842453EF642AD85
:104AB000FEF716BFD09D0008E09D0008EC9D0008A1
:104AC000F00E0020C9180020801A0020C81800200D
:104AD000D89E0008781D0020CA1800202C9E0008CF
:104AE000449E0008309E00081B68BA4A1B78148058
:104AF000042B3FF4F8A81627FEF7E9BB1B68B54A5C
:104B00001B781480042B3FF485AD002311270A93F2
:104B1000FEF7DDBB1B68AF4A1B781480042B3EF404
:104B200012AF4FF47A70FDF73BFAD6F88C341B685D
:104B30001B78042B0AD04FF47A70FDF731FAD6F8BF
:104B40008C341B681B78042B7FF49EA8336858466E
:104B50001B6998472023C4B283F311884FF0804229
:104B60000023526A83F311889045FEF4E3ACFEF70C
:104B7000FBBE99499948FDF7C3FED6F88C341B68F3
:104B80001B78042B00F0FD854FF47A70FDF708FACE
:104B9000D6F88C341B681B78042B01F08A814FF403
:104BA0007A70FDF7FDF9D6F88C341B681B78042B5E
:104BB0007FF453AF336858461B6998472023C4B22B
:104BC00083F311884FF080420023526A83F31188E7
:104BD000FEF7B0BC80498148FDF792FED6F88C34D0
:104BE0001B681B78042B00F0DC854FF47A70FDF70E
:104BF000D7F9D6F88C341B681B78042B01F0698137
:104C00004FF47A70FDF7CCF9D6F88C341B681B781A
:104C1000042B7FF422AF336858461B699847202342
:104C2000C4B283F311884FF080420023526A83F3A9
:104C30001188FEF77FBC68496848FDF761FED6F829
:104C40008C341B681B78042B00F0BB854FF47A7002
:104C5000FDF7A6F9D6F88C341B681B78042B01F0FD
:104C6000F8804FF47A70FDF79BF9D6F88C341B6806
:104C70001B78042B7FF4F1AE336858461B699847C4
:104C80002023C4B283F311884FF080420023526A7C
:104C900083F31188FEF74EBC4F495048FDF730FEB4
:104CA000D6F88C341B681B78042B00F0AA854FF4CF
:104CB0007A70FDF775F9D6F88C341B681B78042BD5
:104CC00001F061814FF47A70FDF76AF9D6F88C34FF
:104CD0001B681B78042B7FF4C0AE336858461B69F1
:104CE00098472023C4B283F311884FF080420023F9
:104CF000526A83F31188FEF71DBC37493748FDF728
:104D0000FFFDD6F88C341B681B78042B00F06985F6
:104D10004FF47A70FDF744F9D6F88C341B681B7891
:104D2000042B01F0A6804FF47A70FDF739F9D6F81C
:104D30008C341B681B78042B01F058824FF47A7076
:104D4000FDF72EF9D6F88C341B681B78042B7FF402
:104D500084AE336858461B6998472023C4B283F356
:104D600011884FF080420023526A83F31188FEF7C6
:104D7000E1BB19491948FDF7C3FDD6F88C341B680F
:104D80001B78042B00F050844FF47A70FDF708F97B
:104D9000D6F88C341B681B78042B01F0CA804FF4C2
:104DA0007A70FDF7FDF8D6F88C341B681B78042B5D
:104DB0007FF453AE336858461B6998472023C4B22A
:104DC00083F311884FF080420023526A83F31188E5
:104DD000FEF7B0BB801A0020309E0008F00E0020C5
:104DE0009A480821FDF7E4FFD6F88C341B681B783D
:104DF000042B3FF46EAB4FF47A70FDF7D1F8D6F880
:104E00008C341B681B78042B00F02B864FF47A70CF
:104E1000FDF7C6F8D6F88C341B681B78042B00F01D
:104E200020860827FEF753BA0E27FEF750BA21272F
:104E3000FEF74DBA336858461B6998472023C4B221
:104E400083F311884FF080420023526A83F3118864
:104E5000FEF770BB336858461B6998472023C4B2DD
:104E600083F311884FF080420023526A83F3118844
:104E7000FEF760BB0A952427FEF729BA3368584627
:104E80001B6998472023C4B283F311884FF08042F6
:104E90000023526A83F311889045FEF44BABFFF771
:104EA0004CBA336858461B6998472023C4B283F331
:104EB00011884FF080420023526A83F31188904595
:104EC000FEF438ABFEF7BFBC336858461B69984701
:104ED0002023C4B283F311884FF080420023526A2A
:104EE00083F31188FEF726BB59480421FDF760FFC4
:104EF000D6F88C341B681B78042B3FF4FBA84FF4C6
:104F00007A70FDF74DF8D6F88C341B681B78042BAB
:104F10003FF4F0A84FF47A70FDF742F8D6F88C34DD
:104F20001B681B78042B01F04E814FF47A70FDF75B
:104F300037F8D6F88C341B681B78042B01F04381BA
:104F40000427FEF7C4B9434B9DF850201B7800920C
:104F5000099A414C4149424802EB03431A461D4617
:104F600009932388FDF7CCFC218814AA2846FDF775
:104F700047F93C495846FDF7C3FCD6F88C341B680A
:104F80001B78042B7FF469AD336858461B6998473A
:104F90002023C4B283F311884FF080420023526A69
:104FA00083F31188FEF7C6BA336858461B699847E1
:104FB0002023C4B283F311884FF080420023526A49
:104FC00083F31188FEF7B6BA26495846FDF798FCD8
:104FD000D6F88C341B681B78042B00F098854FF4AE
:104FE0007A70FCF7DDFFD6F88C341B681B78042B35
:104FF00001F025804FF47A70FCF7D2FFD6F88C349C
:105000001B681B78042B7FF428AD336858461B6956
:1050100098472023C4B283F311884FF080420023C5
:10502000526A83F31188FEF785BA336858461B69C4
:1050300098472023C4B283F311884FF080420023A5
:10504000526A83F31188FEF775BA00BFD09D00083D
:10505000D89E0008CB180020801A0020F89D000878
:10506000F00E00202C9E00089DF853109DF8522051
:105070009DF851300093CDE90121A24A9DF85030AE
:105080001288A149A148FDF73BFC9DF850408DF8DE
:1050900036409F4C9DF851209DF852308DF83520B8
:1050A0004FF0000C4FF480608DF834309DF85420A0
:1050B0009DF853308DF833C08DF837C02083954864
:1050C0004FF4004180F800C02046618300BF4FF4D8
:1050D00080440183448300BF0D998F4D04834FF4B6
:1050E000005ECDF814C0894FA0F81AE0084614AC51
:1050F00011460246009138462946FDF701FC6179C8
:10510000A279E37905988DF836108DF834308DF852
:1051100037008DF835200D9A237A617A0534002AFC
:10512000E8D1BDF856009DF850409DF852309DF8EA
:1051300054708DF8364011469DF851208DF834306A
:105140009DF853508DF8352040BA9DF85540059193
:105150003B468DF83F10ADF83C000D9A6F496B4807
:1051600000958DF83E400797FDF7CAFB0DF15503FA
:10517000059C0893CDF82C80059BA3F51F43F03BBD
:1051800006934FF000085FFA88F73846FBF7A0FC5B
:10519000BD424FF0FF020DF1330038D09DF833309F
:1051A000FF2B03D08DF83320FCF7CAFF2CB9012365
:1051B000AAF81A3000BFAAF8183008F10108B8F1AF
:1051C0000F0FE0D1059A0F9B08329A4238D901247B
:1051D00005999942D0D30898037942798179C578A5
:1051E000C0798DF83E2000278DF83D108DF83C00E9
:1051F000059A4B494548009507938DF83F70FDF798
:105200007FFB08980F9F431D7FB30893B4E7079B6C
:105210008DF83330FCF794FF0123AAF81A3000BF51
:10522000AAF81830069B182BC7D89DF83330059A7A
:105230003C493648CDE900344346FDF761FBBCE705
:1052400008244FF48073AAF8183000BF013C14F012
:10525000FF04AAF81A30F6D12D494FF480434B834E
:1052600000BF0B830F9B0592B2E72949DDF82C8024
:105270004FF400534FF480620B834A83254A2A4936
:10528000012358461370FDF73BFBD6F88C341B689E
:105290001B78042B00F02C844FF47A70FCF780FE0E
:1052A000D6F88C341B681B78042B00F0E8864FF48A
:1052B0007A70FCF775FED6F88C341B681B78042BCB
:1052C0007EF405A8336858461B6998472023C4B26A
:1052D00083F311884FF080435A6A87F31188FEF7F1
:1052E00029B9336858461B6998472023C4B283F311
:1052F00011884FF080420023526A83F31188FEF731
:1053000019B900BF801A0020349F0008F00E002059
:1053100000040240480C00206C9F0008909F000889
:10532000F89F0008C89F00082C9E00089DF85300B5
:105330009DF852109DF851209DF85030099DC24CA7
:10534000CDE90210CDE90032C0492388C0482A4681
:10535000FDF7D6FA218814AA2846FCF751FFBD496B
:105360005846FDF7CDFAD6F88C341B681B78042B11
:1053700000F0AE834FF47A70FCF712FED6F88C344E
:105380001B681B78042B00F06A864FF47A70FCF7D8
:1053900007FED6F88C341B681B78042B00F0EC87D2
:1053A0004FF47A70FCF7FCFDD6F88C341B681B7840
:1053B000042B7FF452AB336858461B69984720236F
:1053C000C4B283F311884FF080420023526A83F302
:1053D0001188FEF7AFB8A0481E21FDF7E9FCD6F80A
:1053E0008C341B681B78042B3EF40CAC1E27FDF795
:1053F0006EBF99481A21FDF7DBFCD6F88C341B6888
:105400001B78042B3EF499AC1A27FDF760BF934A32
:1054100000231370924A13803268904C11A95846A9
:10542000C95CD36898478E482278038811A9C95C63
:1054300001339BB21144C9B2082B03802170EBD910
:1054400033685846DB689847D6F88C341B681B785D
:10545000042B00F07B844FF47A70FCF7A1FDD6F8A2
:105460008C341B681B78042B00F047864FF47A704D
:10547000FCF796FDD6F88C341B681B78042B7FF460
:10548000ECAA336858461B6998472023C4B283F3BB
:1054900011884FF080420023526A83F31188FEF78F
:1054A00049B8336858461B6998472023C4B283F330
:1054B00011884FF080420023526A83F31188FEF76F
:1054C00039B8336858461B6998472023C4B283F320
:1054D00011884FF080420023526A83F31188FEF74F
:1054E00029B860495A48FDF70BFAD6F88C341B6886
:1054F0001B78042B00F07D844FF47A70FCF750FD8C
:10550000D6F88C341B681B78042B00F03C864FF4D3
:105510007A70FCF745FDD6F88C341B681B78042B99
:105520007FF49BAA336858461B6998472023C4B26E
:1055300083F311884FF080420023526A83F311886D
:10554000FDF7F8BF47494248FDF7DAF9D6F88C3441
:105550001B681B78042B00F009844FF47A70FCF769
:105560001FFDD6F88C341B681B78042B00F01B86BB
:105570004FF47A70FCF714FDD6F88C341B681B7856
:10558000042B7FF46AAA336858461B699847202386
:10559000C4B283F311884FF080420023526A83F330
:1055A0001188FDF7C7BF2F492948FDF7A9F9D6F89B
:1055B0008C341B681B78042B00F00B844FF47A703A
:1055C000FCF7EEFCD6F88C341B681B78042B00F03B
:1055D000CA854FF47A70FCF7E3FCD6F88C341B686C
:1055E0001B78042B7FF439AA336858461B69984707
:1055F0002023C4B283F311884FF080420023526A03
:1056000083F31188FDF796BF336858461B699847A6
:105610002023C4B283F311884FF080420023526AE2
:1056200083F31188FDF786BF336858461B69984796
:105630002023C4B283F311884FF080420023526AC2
:1056400083F31188FDF776BF801A0020509E000872
:10565000F00E00202C9E0008D09D0008781D002030
:10566000701D0020109F0008BA480721FDF7A0FB1D
:10567000D6F88C341B681B78042B3EF482AF4FF4B1
:105680007A70FCF78DFCD6F88C341B681B78042BE1
:105690003EF477AF4FF47A70FCF782FCD6F88C3486
:1056A0001B681B78042B00F00B864FF47A70FCF714
:1056B00077FCD6F88C341B681B78042B00F000862E
:1056C0000727FDF704BEA3480621FDF771FBD6F8B6
:1056D0008C341B681B78042B3EF4BAAC4FF47A7000
:1056E000FCF75EFCD6F88C341B681B78042B3EF468
:1056F000AFAC4FF47A70FCF753FCD6F88C341B68CF
:105700001B78042B00F002864FF47A70FCF748FCFB
:10571000D6F88C341B681B78042B00F0F78506271D
:10572000FDF7D5BD8C480321FDF742FBD6F88C343C
:105730001B681B78042B3EF440AD4FF47A70FCF7E5
:105740002FFCD6F88C341B681B78042B3EF435AD47
:105750004FF47A70FCF724FCD6F88C341B681B7865
:10576000042B00F0C0854FF47A70FCF719FCD6F8D2
:105770008C341B681B78042B00F0B5850327FDF7DC
:10578000A6BD336858461B6998472023C4B283F3EB
:1057900011884FF080420023526A83F31188FDF78D
:1057A000C9BE336858461B6998472023C4B283F3A7
:1057B00011884FF080420023526A83F31188FDF76D
:1057C000B9BE336858461B6998472023C4B283F397
:1057D00011884FF080420023526A83F31188FDF74D
:1057E000A9BE336858461B6998472023C4B283F387
:1057F00011884FF080420023526A83F31188FDF72D
:1058000099BE336858461B6998472023C4B283F376
:1058100011884FF080420023526A83F31188FDF70C
:1058200089BE336858461B6998472023C4B283F366
:1058300011884FF080420023526A83F31188FDF7EC
:1058400079BE336858461B6998472023C4B283F356
:1058500011884FF080420023526A83F31188FDF7CC
:1058600069BE0A95FDF766BE3C482221FDF7A0FA05
:10587000D6F88C341B681B78042B3DF473AF4FF4BF
:105880007A70FCF78DFBD6F88C341B681B78042BE0
:105890003DF468AF4FF47A70FCF782FBD6F88C3495
:1058A0001B681B78042B00F054854FF47A70FCF7CA
:1058B00077FBD6F88C341B681B78042B00F04985E5
:1058C0002227FDF704BD032325490A225846FDF788
:1058D00017F8D6F88C341B681B78042B00F07B83F8
:1058E0004FF47A70FCF75CFBD6F88C341B681B789D
:1058F000042B00F01E854FF47A70FCF751FBD6F8AC
:105900008C341B681B78042B7FF4A7A83368584697
:105910001B6998472023C4B283F311884FF080425B
:105920000023526A83F31188FDF704BE0A95FDF740
:1059300001BE0A480D461421FDF73AFAD6F88C3418
:105940001B681B78042B3EF41DA90A951427FDF74C
:10595000BEBC00BFD89E0008C09E0008D09D0008B5
:10596000249F0008BD480D462421FDF721FAD6F8F2
:105970008C341B681B78042B00F04D834FF47A7035
:10598000FCF70EFBD6F88C341B681B78042B00F058
:1059900083844FF47A70FCF703FBD6F88C341B68D1
:1059A0001B78042B40F02785336858461B699847BD
:1059B0002023C4B283F311884FF080420023526A3F
:1059C00083F311889045BFF40AA80A95FDF7B2BD8C
:1059D000336858461B6998472023C4B283F3118863
:1059E0004FF080420023526A83F311889045FDF402
:1059F000A1ADFEF78BB8336858461B699847202342
:105A0000C4B283F311884FF080420023526A83F3BB
:105A100011889045FDF48EADFEF712BF33685846ED
:105A20001B6998472023C4B283F311884FF080424A
:105A30000023526A83F31188FDF77CBD3368584612
:105A40001B6998472023C4B283F311884FF080422A
:105A50000023526A83F311889045FDF46BADFEF785
:105A60000BBC336858461B6998472023C4B283F3A4
:105A700011884FF080420023526A83F311889045C9
:105A8000FDF458ADFEF736BD74480521FDF790F9D9
:105A9000D6F88C341B681B78042B3EF461AE4FF4AF
:105AA0007A70FCF77DFAD6F88C341B681B78042BCF
:105AB00000F033834FF47A70FCF772FAD6F88C3426
:105AC0001B681B78042B00F028830527FDF7FFBB1C
:105AD000336858461B6998472023C4B283F3118862
:105AE0004FF080420023526A83F31188FDF722BDF4
:105AF000336858461B6998472023C4B283F3118842
