:100000000C9434000C9482000C9446000C9446002E
:100010000C9446000C9446000C9446000C94460048
:100020000C9446000C9446000C9446000C94460038
:100030000C9446000C945D000C9446000C94460011
:100040000C9446000C9446000C9446000C94460018
:100050000C9446000C9446000C9446000C94460008
:100060000C9446000C94460011241FBECFEFD8E03C
:10007000DEBFCDBF21E0A0E0B1E001C01D92A13004
:10008000B207E1F70E94A8000C94AB000C940000AA
:1000900081E087B98AB990E294B9409895B91092F5
:1000A00080008093810080936F0093E090936900BB
:1000B0008DBB10920001789408951F920F920FB695
:1000C0000F9211248F939F9395B180E2892785B970
:1000D0008091000181110CC04C9B0AC085EF95EE08
:1000E000909385008093840081E08093000103C099
:1000F000409A109281009F918F910F900FBE0F90A8
:100100001F9018951F920F920FB60F9211248F9384
:100110009F934C9B0AC08AEE9BEC90938500809342
:10012000840081E08093000108C085EF95EE9093F4
:1001300085008093840010920001409881E08093B4
:1001400081009F918F910F900FBE0F901F90189577
:0A0150000E944800FFCFF894FFCF93
:00000001FF
