:020000040800F2
:1000000000040020D9020008DB020008DB0200081F
:10001000DB020008DB020008DB020008DB0200084C
:10002000DB020008DB020008DB020008F1560008D2
:10003000DB020008DB020008DB020008DB0200082C
:10004000DB020008DB020008DB020008DB0200081C
:10005000DB020008DB020008DB020008DB0200080C
:10006000DB020008DB020008DB0200080175000863
:10007000D1740008A174000871740008417400086C
:1000800011740008E1730008DB020008DB020008BD
:10009000DB020008DB020008DB020008DB020008CC
:1000A000DB020008DB020008DB020008DB020008BC
:1000B000316B0008716A0008DB020008117100084A
:1000C00021700008DB020008DB020008DB020008E8
:1000D000DB020008516A0008316A0008DB020008F0
:1000E000DB020008DB020008DB020008DB0200087C
:1000F000DB020008DB020008DB020008B173000825
:10010000DB020008DB020008E16A0008DB020008ED
:10011000DB020008DB020008DB020008DB0200084B
:10012000817300085173000821730008F172000800
:10013000C1720008DB020008DB020008DB020008D5
:10014000DB020008DB020008DB020008F16B00089C
:10015000917200086172000831720008116A00088B
:10016000DB020008DB020008DB020008DB020008FB
:10017000DB020008DB020008DB020008DB020008EB
:10018000DB020008DB020008DB020008DB020008DB
:10019000DB020008DB020008DB020008DB020008CB
:1001A000DB020008DB020008DB020008DB020008BB
:1001B000DB020008DB020008DB020008DB020008AB
:1001C000DB020008DB020008DB020008DB0200089B
:1001D000DB020008DB020008DB020008DB0200088B
:1002000072B6274880F30888264880F30988264874
:100210004EF60851CEF200010860022080F31488E7
:10022000BFF36F8F07F0CCF906F0FAFA4FF05530B4
:100230001E491B4A91423CBF41F8040BFAE71C4996
:10024000184A91423CBF41F8040BFAE719491A4A8F
:100250001A4B9A423EBF51F8040B42F8040BF8E7E0
:1002600000201749174A91423CBF41F8040BFAE7B6
:1002700007F05EF907F09CF9134C144DAC4203DA19
:1002800054F8041B8847F9E705F01AFB104C114D90
:10029000AC4203DA54F8041B8847F9E707F080B949
:1002A00000040020000800200000000800000020DA
:1002B000000400206C87000800080020880C002043
:1002C000880C0020AC220020E0010008E0010008BA
:1002D000E0010008E001000892E700F000F8FEE706
:1002E0002DE9F04FC1F814D043699D46BDE8F08F69
:1002F000002383F311882846A047002005F008FA60
:10030000FEE705F00DFA00DFFEE70000844641EA53
:10031000000313F003036DD1403A41D351F8043B7D
:1003200040F8043B51F8043B40F8043B51F8043BCF
:1003300040F8043B51F8043B40F8043B51F8043BBF
:1003400040F8043B51F8043B40F8043B51F8043BAF
:1003500040F8043B51F8043B40F8043B51F8043B9F
:1003600040F8043B51F8043B40F8043B51F8043B8F
:1003700040F8043B51F8043B40F8043B51F8043B7F
:1003800040F8043B51F8043B40F8043B51F8043B6F
:1003900040F8043B51F8043B40F8043B403ABDD2DE
:1003A000303211D351F8043B40F8043B51F8043B80
:1003B00040F8043B51F8043B40F8043B51F8043B3F
:1003C00040F8043B103AEDD20C3205D351F8043B0F
:1003D00040F8043B043AF9D2043208D0D2071CBFDB
:1003E00011F8013B00F8013B01D30B880380604604
:1003F000704700BF082A13D38B078DD010F003037A
:100400008AD0C3F10403D21ADB071CBF11F8013BE9
:1004100000F8013B80D331F8023B20F8023B7BE738
:10042000043AD9D3013A11F8013B00F8013BF9D263
:100430000B7803704B7843708B78837060467047FD
:10044000A2EB0300704700BF02780B78012A28BF97
:100450009A42F5D16DE9044540EA0104CDE902670D
:100460006FF0000C4FEA447212B380EA010414F0FA
:10047000070F6AD100F0070420F0070004F003051D
:1004800021F007014FEAC505F0E8042314F0040F3A
:10049000F1E804670CFA05F462EA040266EA04066D
:1004A0000AD063EA0403624667EA0407664603E08B
:1004B000F0E80423F1E8046782FA4CF582EA0604C6
:1004C000A4FA8CF46CBB83FA4CF583EA0705A5FA11
:1004D0008CF595B950E9022351E9026782FA4CF58F
:1004E00082EA0604A4FA8CF483FA4CF583EA070541
:1004F000A5FA8CF52543DBD09CB92DBAB5FA85F465
:1005000024F0070427FA04F1DDE9026723FA04F373
:1005100003F0FF0001F0FF01FDE80445A0EB01003E
:10052000704724BAB4FA84F424F0070426FA04F1DC
:10053000DDE9026722FA04F202F0FF0001F0FF0198
:10054000FDE80445A0EB0100704714F0030F3CD117
:1005500010F0030428D150F8082B51F8083B82FA18
:100560004CF582EA0305A5FA8CF55DB950F8042C28
:1005700051F8043C82FA4CF582EA0305A5FA8CF5A1
:10058000002DE8D02DBAB5FA85F424F0070423FA3B
:1005900004F122FA04F202F0FF0001F0FF01FDE88D
:1005A0000445A0EB010070474FEAC40420F00300AB
:1005B00050F8082B21F0030151F8083B0CFA04F421
:1005C00062EA040263EA0403C9E710F003041AD0E4
:1005D000A1EB040120F00300E40750F8042B06D03F
:1005E0000FD28B785FFAA2F4E41A06D12BB1CB7844
:1005F0005FFAB2F4E41A00D11BB920465DF8104B43
:10060000704701F1040150F8042BCC0721F00301DD
:1006100051F8043B48D824D222F07F4482FA4CF5AA
:1006200094EA1325A5FA8CF50AD165B951F8043B73
:1006300084EA0204B4EB036F0ED150F8042BEBE70D
:100640004FEA132355E035F07F454DD10878FDE89A
:100650000445C0F1000070474FEA126203F0FF0347
:1006600047E002EA1C4482FA4CF594EA1345A5FAE5
:100670008CF50AD165B951F8043B84EA0204B4EB65
:10068000034F0CD150F8042BEBE74FEA134330E053
:1006900015EA1C4528D10B884FEA124229E04FEA9F
:1006A000124203EA1C4324E002F0FF0482FA4CF5F4
:1006B00094EA1365A5FA8CF50AD165B951F8043BA3
:1006C00084EA0204B4EB032F09D150F8042BEBE7C2
:1006D0004FEA13630DE015F0FF0F05D10B684FEAE9
:1006E000122223F07F4304E04FF00000FDE80445B0
:1006F000704712BA1BBA82FA4CF482EA0304A4FAD5
:100700008CF5B5FA85F402FA04F203FA04F34FEA21
:100710001260FDE80445A0EB136070470000000084
:1007200000000000000000000000000000000000C9
:1007300000000000000000000000000000000000B9
:1007400090F800F06DE9024520F007016FF0000C11
:1007500010F0070491F820F040F049804FF00004B9
:100760006FF00700D1E9002391F840F000F1080094
:1007700082FA4CF2A4FA8CF283FA4CF3A2FA8CF3CC
:100780004BBBD1E9022382FA4CF200F10800A4FA33
:100790008CF283FA4CF3A2FA8CF3E3B9D1E9042387
:1007A00082FA4CF200F10800A4FA8CF283FA4CF3BE
:1007B000A2FA8CF37BB9D1E9062301F1200182FA78
:1007C0004CF200F10800A4FA8CF283FA4CF3A2FA7E
:1007D0008CF3002BC6D0002A04BF04301A4612BA8C
:1007E000B2FA82F2FDE8024500EBD2007047D1E98F
:1007F000002304F00305C4F100004FEAC50514F01E
:10080000040F91F840F00CFA05F562EA05021CBFEE
:1008100063EA050362464FF00004A9E753B94AB9F9
:10082000002908BF00281CBF4FF0FF314FF0FF30F8
:1008300000F06CB9ADF1080C6DE904CE00F006F8DB
:10084000DDF804E0DDE9022304B070472DE9F0474C
:10085000089E0D4604468E46002B40F082808A4258
:10086000174646D9B2FA82F24AB1C2F1200105FA1E
:1008700002F320FA01F1974041EA030E94404FEA57
:100880001748230CBEFBF8FCB9B208FB1CEE43EA88
:100890000E430CFB01F098420AD9FB180CF1FF350E
:1008A00080F01681984240F21381ACF1020C3B4477
:1008B0001B1AA4B2B3FBF8F008FB103344EA03445C
:1008C00000FB01F1A14209D93C1900F1FF3380F08E
:1008D0000181A14240F2FE8002383C44641A40EAA1
:1008E0000C4000211EB1D4400023C6E90043BDE8FE
:1008F000F08702B9FFDEB2FA82F2002A4FD1CB1B99
:100900004FEA174E1FFA87F80121B3FBFEFC250CB6
:100910000EFB1C3345EA034508FB0CF3AB4207D939
:100920007D190CF1FF3002D2AB4200F2E780844621
:10093000ED1AA3B2B5FBFEF00EFB105543EA0544D9
:1009400008FB00F8A04507D93C1900F1FF3302D29B
:10095000A04500F2D7801846A4EB080440EA0C40FA
:10096000C0E78B4208D9002E00F0AF800021C6E915
:1009700000050846BDE8F087B3FA83F100294BD1A2
:10098000AB4202D3824200F2B780841A65EB0303C4
:1009900001209E46002EAAD0C6E9004EA7E7C2F16C
:1009A000200C01FA02F3974020FA0CF04FEA174EA0
:1009B00021FA0CFC1843BCFBFEF1050C0EFB11CC1C
:1009C0001FFA87F845EA0C4501FB08F3AB4204FA2D
:1009D00002F409D97D1901F1FF3C80F08B80AB4214
:1009E00040F2888002393D44EB1A85B2B3FBFEF039
:1009F0000EFB103345EA034500FB08F3AB4207D971
:100A00007D1900F1FF3C71D2AB426FD902383D44F1
:100A1000EB1A40EA014178E7C1F1200C8B4022FA41
:100A20000CF71F4320FA0CF405FA01F34FEA174EB6
:100A300025FA0CF51C43230CB5FBFEF91FFA87F8C9
:100A40000EFB195543EA054509FB08FAAA4502FAC7
:100A500001F200FA01F308D97D1909F1FF3047D2FC
:100A6000AA4545D9A9F102093D44A5EB0A05A4B25E
:100A7000B5FBFEF00EFB105544EA054400FB08F8F8
:100A8000A04507D93C1900F1FF352DD2A0452BD93F
:100A900002383C4440EA0940A4EB0804A0FB028968
:100AA0004C45C6464D4619D316D05EB1B3EB0E0287
:100AB00064EB050404FA0CFCCA404CEA0202CC4088
:100AC000C6E900240021BDE8F087314630460EE734
:100AD000AC46EDE6184601E74345E6D2B8EB020E18
:100AE00069EB07050138E0E72846D3E760468FE762
:100AF0008146BAE7614677E708464BE7ACF1020C5E
:100B00003D4415E702383C4426E700BF704700BF6C
:100B1000F0B40346134A43F8042B012200254FF496
:100B2000807700F5157600F10C044360C16400F590
:100B3000AA73027200F1300100F154024561C0E96C
:100B40000344856287630664C0E90822F0BCC0E9FB
:100B50001133C0E90C11C06200658261C361C363D7
:100B6000704700BF0C860008000000000000000075
:100B7000224A02EB80032DE9F043D968D2F8549061
:100B800080464869D0E90037BB4228D908F1010402
:100B9000B1F810E009EB043409EB481CDE1BDCF86B
:100BA0001829764528BF764693B2B6EB830F21D835
:100BB0008568042E2B6823600AD9711F21F0030178
:100BC000043129442B4653F8042F22609942FAD16C
:100BD000036837443544BB42C0E90175DED8D9F813
:100BE0003438012000FA08F823EA0803C9F8343839
:100BF000BDE8F0830020BDE8F08300BFC4180020EA
:100C000030B4202383F311880B4CD4E900354942DA
:100C1000281A0840821A9A4207D3954205D3626087
:100C2000002383F3118830BC70470020002383F336
:100C3000118830BC704700BFC01B002000000000BE
:100C4000024AD36843F0C003D360704700100140EC
:100C5000024AD36843F0C003D360704700440040A9
:100C6000024AD36843F0C003D360704700140140C8
:100C70001C4B1D4A012130B459832023117083F38A
:100C800011881A484468C368646840F2E735DD6239
:100C90005961032500215962057019611CB1D96899
:100CA00041F00101D96085211960002383F3118887
:100CB0000C4902E01378012B02D10B699B05F9D591
:100CC000202383F31188C3680022022101701A6077
:100CD0001A61D96821F0FF01D96082F3118830BC14
:100CE000704700BF00040240880C00208C0C0020DC
:100CF000013830B40E2800F2E480DFE810F01E0066
:100D00002C003A00480056006400720080008E00FB
:100D10009C00AA00B800C600D4000F00704B714AB6
:100D20004FF400554FF480444FF4004002211D83DE
:100D30001C831883118330BC7047694B694A4FF498
:100D400000554FF480444FF4004002211D835C8322
:100D500058835183EFE7624B624A4FF400554FF4DA
:100D600080444FF4004002215D831C8358835183EB
:100D7000E1E75B4B5B4A4FF400554FF480444FF47E
:100D8000004002211D831C8358835183D3E7544BB9
:100D9000544A4FF400554FF480444FF40040022170
:100DA0005D835C8318835183C5E74D4B4D4A4FF4F7
:100DB00000554FF480444FF4004002211D835C83B2
:100DC00018835183B7E7464B464A4FF400554FF41A
:100DD00080444FF4004002215D831C8318835183BB
:100DE000A9E73F4B3F4A4FF400554FF480444FF47E
:100DF000004002211D831C83188351839BE7384BDD
:100E0000384A4FF400554FF480444FF4004002211B
:100E10005D835C83588311838DE7314B314A4FF4F6
:100E200000554FF480444FF4004002211D835C8341
:100E3000588311837FE72A4B2A4A4FF400554FF419
:100E400080444FF4004002215D831C83588311834A
:100E500071E7234B234A4FF400554FF480444FF47D
:100E6000004002211D831C835883118363E71C4BC0
:100E70001C4A4FF400554FF480444FF400400221C7
:100E80005D835C831883118355E7154B154A4FF436
:100E900000554FF480444FF4004002211D835C83D1
:100EA0001883118347E70E4B0E4A4FF400554FF459
:100EB00080444FF4004002215D831C83188311831A
:100EC00039E7074B074A4FF400554FF480444FF47D
:100ED000004002215D835C83588351832BE700BF70
:100EE0000008024000000240000000000000000076
:100EF0000349044B0020012208701A83704700BF89
:100F0000880C0020000402400000000000000000E7
:100F100090F84420034602F01F00012803D193F803
:100F200045100B291BD002F06002202A01D00020BE
:100F3000704793F84520212A09D81F2AF7D90A4A71
:100F40009A6307210022C3E90F1201207047222A69
:100F5000EDD10022C3E90E221A640120704700225D
:100F6000C3E90E221A647047040800200000000044
:100F7000022906D0032906D00129074818BF0020FE
:100F8000704706487047032A03D8054800EBC200A3
:100F900070470020704700BF648500081085000876
:100FA000EC850008000000000000000000000000C8
:100FB000144BC35C03F00303012B04BF00F12003B7
:100FC000D8B2A0F1300218BF0346072A12D90A2965
:100FD00008D0102902D04FF0FF307047A0F1610215
:100FE000052A0AD938280BD0392814BF4FF0FF3012
:100FF00009207047D8B230387047D8B25738704798
:101000000820704761860008000000000000000012
:10101000202383F311880D4B5B6813F4006302D126
:1010200083F311887047EFF30983203B4FF0807200
:10103000DA6183F30988064A1168526989689268FF
:1010400091428CBF034A044A9A61704700ED00E068
:101050002C1A00200303000806030008000000000B
:10106000084A10B4D2E900344942201A0840984294
:1010700004D3844202D310BC50607047002010BCDF
:10108000704700BFC01B00200000000000000000EF
:101090000E4A0F4B52681B6F816830B4D31AD0E9E7
:1010A0000445C2685B1A01324168C260E4180268F4
:1010B000836045F100058B4288BF43609342C0E9DD
:1010C000044538BF036030BC704700BF001000E02B
:1010D0002C1A0020000000000000000000000000AA
:1010E000014B5B6883607047001000E00000000067
:1010F000836841681A4AF0B4D0E90475022643F8BF
:101100002C1C0124002143E91B750568C06803F805
:10111000271C03F8286C03F8264C43F83C2C146970
:1011200043F8400C43F80C0C43F8305CA3F16C001E
:101130000C4D43F8340C43E90511A3F1480043F882
:101140004C5CA3F11C01A3F1200543F8384CE0608E
:10115000106143E9085143F8181CF0BC704700BF08
:101160002C1A0020F102000800000000000000001E
:10117000202383F3118890F82030072B0DD8DFE867
:1011800003F0270C0C2308040C08426A936801330F
:101190009360D0E9003213605A6010B400224FF01F
:1011A000FF3481680C4B446280F820201B689A68E9
:1011B0008A42FBD25A680021C0E9003210605860B0
:1011C00081F3118810BC7047436A00221A60E4E77B
:1011D000002383F3118870472C1A002000000000C0
:1011E00000228168064B80F820201B689A688A429A
:1011F000FBD25A68C0E9003210605860704700BFE7
:101200002C1A002000000000000000000000000078
:1012100038B50446006884420AD06FF001050368BF
:1012200023605C604562FFF7DBFF2068A042F6D1D7
:1012300038BD00BF000000000000000000000000FA
:1012400003460068834206D002681A60002153609A
:101250004162FFF7C5BF70470000000000000000BA
:10126000F8B50468A04221D007460D46002604E0E8
:101270000B2A1CD02468A74218D0E3682B43E360F4
:1012800015B123691D42F5D0D4E90103416B90F8F3
:1012900020200B430A2A4363EAD1426A1342E9D071
:1012A0004662FFF79DFF2468A742E6D1F8BD426A77
:1012B00032EA0303DED1F3E7000000000000000083
:1012C0000346006820B100221A604162FFF788BF20
:1012D000704700BF00000000000000000000000098
:1012E000034A516853685B1A9842FBD8704700BFA5
:1012F000001000E0000000000000000000000000FE
:10130000FEE700BF00000000000000000000000039
:101310002DE9F047D0F85462D6F80C903368DA051E
:1013200005469CB275D4202383F3118814F02F0F47
:1013300045D02F1D05F10C0808E0A006D6F804A042
:101340001ED4336813F02F0F9CB238D02307F4D08B
:1013500014F0080F0CBF00218021E00748BF41F0C6
:101360002001A20748BF41F04001630748BF41F494
:1013700080713846FFF774FFA006D6F804A0E0D5C8
:101380006B6995F858429BB3D5E90832934237D040
:101390006A69591C013204EA0A0A6A61296283F8FF
:1013A00000A0D5E907329A4201D3AB692B624046CF
:1013B000FFF746FF336813F02F0F9CB2C6D100230E
:1013C00083F3118819F0800F01D0220630D419F070
:1013D000400F0BD0630609D5202383F31188D5E98C
:1013E00011239A423FD0002383F31188BDE8F08790
:1013F00004213846FFF734FFD5E908329342C7D1BC
:101400006A69002AC4D04FF480613846FFF728FF8C
:1014100097E7202383F311884FF400710430FFF71E
:101420001FFF6FF480733360002383F311887AE722
:10143000202383F31188D5E911239A4220D0AA6B87
:10144000296C581C0132AA63A86488421F7801D312
:10145000EB6BAB6405F13000FFF7F2FE7760002321
:1014600083F31188B3E7AB6B002BBCD0281D102190
:10147000FFF7F6FE4FF6BF7309EA0303F360B2E726
:10148000AA6B002ADBD00821281DFFF7E9FE4FF6E2
:101490007F7309EA0303F360E1E700BF0000000087
:1014A00011F00C0F26D170B5C56A426B2B68196814
:1014B00021F01F0119601C6814F00104FBD16E7A41
:1014C00069683D23B3400B60536823F48053536035
:1014D000136823F480631360136843F4007313608C
:1014E000202383F311881C302146FFF7E9FE84F3A3
:1014F000118870BD72B6024B024A9A62FEE700BFC5
:101500002C1A0020687D0008000000000000000088
:1015100011F00C0F00D1704772B6024B024A9A626A
:10152000FEE700BF2C1A0020687D000800000000C4
:1015300011F00C0F38B54CD10D4641680B780446BC
:10154000002B30D1456A2A68136823F01F0313600B
:101550001368D807FCD46A7A206A6D683D239340EB
:1015600002682B60136823F01F0313601368DB0706
:10157000FCD4457A4A6841683D23AB400B606AB3AE
:1015800004232370204690472378042B26D0202361
:1015900083F31188002104F10800FFF791FE002376
:1015A00083F3118838BDEB0603D54B68002BF9D0C7
:1015B0009847AD06F6D563685B68002BF2D004222D
:1015C0002270204698472378042BEBD10323237005
:1015D00038BD72B6034B044A9A62FEE702232370B9
:1015E000D5E700BF2C1A0020687D0008000000002D
:1015F00000EB810330B4DC6862691368D360F3B92F
:10160000426D02EB41134FF40020C3F81009236828
:1016100003F00303012B2AD008B202EB4010012390
:10162000D0F8004944F00444C0F80049D2F8340826
:1016300003FA01F1014330BCC2F83418704719B9FC
:10164000402B84BF40231360258A426D681E1844D6
:10165000B0FBF5F002EB411543EAC04343F0005301
:10166000C5F81039236803F00303012BD4D1D2F855
:10167000083813F4807F02EB411308B2D3F8004915
:1016800014BF44F0805444F00054C3F80049C4E748
:10169000204AF8B5566D06EB40130446D3F80859B6
:1016A000C3F80859E80703D5D6F81038D90708D485
:1016B0002B0605D5D6F834280123A340134215D1B3
:1016C000F8BD02EB8403D86843691F68D9688F426C
:1016D00011D3138987680121A14023EA01031381F3
:1016E000002FE5D010462146B847E1E72046BDE887
:1016F000F840FFF73DBAC91B0027C3E900172023B4
:1017000083F3118810462146FFF772FF87F3118893
:10171000CEE700BFC4180020000000000000000059
:1017200000EB810330B4DD68AB691C68DC6019B97B
:10173000402C84BF40241C606B8A406D2D685A1E6B
:101740002244B2FBF3F202FB03F3033323F003035F
:1017500043EAC24300EB411405F0030243F0C043E7
:10176000012AC4F8103B0AD009B200EB411130BC89
:10177000D1F8003B43F00443C1F8003B7047D0F878
:10178000083800EB411213F4807FD2F8003B14BFFD
:1017900043F0805343F0005309B2C2F8003BE4E742
:1017A0002DE9F041244F7E6D06EB40130446D3F83B
:1017B000085BC3F8085B280703D5D6F81438190767
:1017C00031D4EA072DD5D6F81438DB0729D507EB35
:1017D0008403D9685CB98A69488A5568B5FBF0F317
:1017E00000FB13531BB91068D36898420DD37B8953
:1017F000CD680122A24023EA02037B818DB12146FC
:101800002B460D48BDE8F04118471B1AC2E90034C9
:10181000202383F3118808482146FFF781FF84F3D2
:101820001188BDE8F08107EB84032146DB68384668
:101830005B689847C5E700BFC4180020000000009F
:1018400011F00C0F15D1D0E90C100A68136823F0C1
:101850001F0310B413601368DB07FCD44C7A4A688A
:101860003D23A3401360436810BC43F400734360FE
:10187000704772B6014B024A9A62FEE72C1A0020AA
:10188000687D00080000000000000000000000006B
:101890002DE9F04F02F003084746C2F38006C2F379
:1018A000C1054FEAD21C00244FF00F0B4FF0010A84
:1018B00013E0D0F8009003EA09033B43072C0360D0
:1018C00041D8036A23EA020242EA0E020262490890
:1018D00037D07600AD00BF000134CB07F7D54368A1
:1018E0000AFA04F223EA02033343436082684FF0AA
:1018F000030E63000EFA03F322EA03022A43826016
:10190000D0F80CE004F007022EEA030E9200B8F1C2
:10191000020FC0F80CE06FEA03030CFA02FE0BFAA8
:1019200002F2C6D1072C15D8D0F8209029EA02027D
:1019300042EA0E020262026813403B434908036018
:10194000C7D1BDE8F08F436A23EA020242EA0E02E1
:101950004262BCE7D0F8249029EA020242EA0E0271
:101960004262E8E700000000000000000000000004
:10197000F0B4304E044601253068A540054218BF3A
:10198000002001D0F0BC7047284306EBC40730604C
:10199000294E7A600C2015F0FF0FBB6000FB04603D
:1019A00009D0264B1A6B42F400121A631A6D42F4E6
:1019B00000121A651B6D15F47F4F30D10C2303FB09
:1019C00004F3F258136823F01F031360136813F035
:1019D0000103FBD10C2505FB04643D26E57A677AFB
:1019E000D4F804C06C09A400BE4004F1604405F1C1
:1019F0006047CCF8006004F561440126090107F551
:101A0000614705F01F0506FA05F5C9B221261360E6
:101A1000566187F80013C4F880512560B2E7074B80
:101A20001A6B42F480021A631A6D42F480021A653E
:101A30001B6DC3E7041C00208482000800380240AC
:101A400038B590F834300446152B16D8DFE803F08B
:101A50001615151515151615151616161515151531
:101A6000151515150B2CC3689B695B682BB9036CA6
:101A700003B19847002384F8343038BD436D416882
:101A8000D3F800290D6842F40012C3F80029D3F8F6
:101A9000002B42F40012C3F8002B0DB10621A84719
:101AA000062384F8343038BD0B2380F834302023EB
:101AB00083F31188C36802895B69002542F0010243
:101AC00002812946C3E900559D60FFF791FD85F32A
:101AD000118838BD00000000000000000000000078
:101AE00038B590F834300446152B21D8DFE803F0E0
:101AF0000B20202020200B202021314820202020D6
:101B0000202020200B0B436D4168D3F800290D687D
:101B100042F40012C3F80029D3F8002B42F400125B
:101B2000C3F8002B0DB10621A847062384F83430F2
:101B300038BD90F84B2090F84A30C16B43EA02233D
:101B4000994206D2C3681B8AB1FBF3F503FB151556
:101B5000EDB1142384F83430202383F31188E36833
:101B600062899B69002542F0010262812046C3E937
:101B700000559D602946FFF7D3FD85F3118838BDD8
:101B8000036C03B19847002384F8343038BD202318
:101B900083F31188C36802895B6942F00102028104
:101BA0002946C3E900559D60FFF722FD85F31188A2
:101BB0000A2384F8343038BD000000000000000023
:101BC000F0B400EB81050789D5F80CC00125DCF8DD
:101BD00014608D403D4300270581C6E90037B2609F
:101BE000F0BCFFF705BD00BF0000000000000000D2
:101BF000816D8368F0B40C68C465002203F00113A2
:101C00008F68446D8360C0E9042282614FF0FF3524
:101C100000E0324604EB42110B46D1F800090028DF
:101C200002F1010605DAD1F8000940F08040C1F860
:101C30000009D1F8000B002805DAD1F8000B40F0BC
:101C40008040C1F8000BBA42C3F80859C3F8085BDA
:101C5000DFD14FF00113C4F81C38F0BC704700BF4F
:101C6000704700BF000000000000000000000000FE
:101C7000002070470000000000000000000000008D
:101C8000002070470000000000000000000000007D
:101C9000F8B5D0F88C140A681378042B02D1037AB3
:101CA000022B01D00120F8BD0C795589012303FADC
:101CB00004F42542F6D1D0E90746B44214D049795C
:101CC00002EB81030120DB6888409E690543231DE8
:101CD0004FF48077002455811046C6E90074B36044
:101CE000FFF71EFD2046F8BD80690028E7D0D9E740
:101CF000406BFFF7CDBF00BF0000000000000000F8
:101D0000093138B550F8214094B1202383F311886C
:101D1000D4F88C241368527903EB8203DB689B6947
:101D20005D6835B92046FFF7B3FF002383F31188C0
:101D300038BD04216018FFF793FAE369616A1D60FA
:101D4000A06AA26903448B42E36102F1010228BF49
:101D5000236BA26104F10C0028BFE361FFF770FA66
:101D6000E0E700BF000000000000000000000000ED
:101D70000346D0E90420824203D050F8043B0B60B4
:101D80007047DB68002BF8D000207047000000008F
:101D900010B5446BD4F88C2413681978042982B0E8
:101DA00002D1217A022901D002B010BD11791A891D
:101DB00001238B401342F7D101A904F14400FFF73E
:101DC000D7FF0246D4F88C04019B01790068FFF725
:101DD000F7FEE9E70000000000000000000000003E
:101DE00010B5202382B083F311881E4CD4F88C24C4
:101DF00013681978042902D1217A022904D000231A
:101E000083F3118802B010BD11791A8901238B4028
:101E10001342F4D1D4E915329342F0D1226D002A55
:101E2000EDD0E26E002AEAD0043AD21AE7D01A6066
:101E3000D4E9171003448B42226D636524BFA36E5F
:101E40006365013A002301A907482265E366FFF7AD
:101E50008FFF0246D4F88C04019B01790068FFF7DC
:101E6000AFFECCE70414002048140020000000005E
:101E70002DE9F04100EB810382B09E69F6B1044682
:101E80000D46202383F3118800EB8107301D0821C4
:101E9000FFF7E6F9FB685B691B6893B906F1440834
:101EA000404601A9FFF764FF024620B3019B294683
:101EB0002046FFF785FE002383F3118802B0BDE8BA
:101EC000F081D6E91720B36D316D03449342B365B9
:101ED00001F1010128BFB36E316506F1440828BF46
:101EE000B3654046FFF7ACF9404601A9FFF740FF54
:101EF00002460028DAD1FB685A691268002ADAD053
:101F00001B8A013B1340D6D1294604F144022046E6
:101F1000FFF756FECFE700BF000000000000000002
:101F2000144B596930B48D6884680022AC42426217
:101F30000CD880F820201B689A689442FBD95A6814
:101F400030BCC0E9003210605860704781F8202032
:101F50001A4612689468A542FBD354684C60012568
:101F60000A602160516080F8205030BC5861FEF753
:101F7000B7B900BF2C1A00200000000000000000CC
:101F8000084B59691A6810B481F82000106818606D
:101F90000124436082F8204010BC5A611046FEF7CD
:101FA0009FB900BF2C1A00200000000000000000B4
:101FB00070B52023054683F31188304B80685C6937
:101FC00040B3A2688368934207D290F820308260C1
:101FD000062B3AD0072B25D0ABB12B4603E09968EE
:101FE000A268914202D31B689D42F8D15A6806202C
:101FF000C4E9003214605C606562FFF7C1FF002332
:1020000083F3118870BDD0E9003213605A60FFF786
:10201000E7F8E2E7A36BC5E90243A563002383F376
:10202000118870BDD0E90031466A0B6059603346B3
:1020300002E09968914202D31B689E42F9D15A6826
:10204000C0E9003210605860C7E7D0E90031466A45
:102050000B605960334602E09968914202D31B68D5
:102060009E42F9D15A68C0E9003210605860B068E9
:10207000A26883689A42A8D8AFE700BF2C1A002054
:1020800038B5104B5C69A36A606204F12805AB4265
:1020900007D01A68A2621846FFF7A2F8A36AAB42FB
:1020A000F7D194F822303BB994F821309B0703D143
:1020B000D4E90332D3601A61BDE838400F20FFF73E
:1020C0005FBF00BF2C1A00200000000000000000CD
:1020D000F0B54B1C87B049D03F4C404F6369059326
:1020E0002646022956F8183F05464FF0804038BF73
:1020F0000221B342426A04975BD0676AD21B8918F7
:102100002ED398681B689A68091A914204D91B68F3
:10211000891A9A688A42FAD35A68029201AF0193E7
:1021200017605F6003919A68511A4FF0FF3299600F
:1021300022622846FFF724FF049B6BB1A369BB42D0
:102140001BD0DDE901321360019BB3425A6003D01A
:102150009A6803990A449A606369586A07B0F0BDA7
:102160009A689142D1D20F444763CEE71A4CFFF7E9
:1021700007FF6369586A07B0F0BD019BA3610022A5
:10218000B3425E60049222D09A680398616A024466
:102190004FF080409A60436A581A8242DCD9CB1AC9
:1021A0001344012B98BF821C4FF080430A445A63AA
:1021B000D2E78B1801AF6262CDE90166C4E9067708
:1021C00003910022436302230261C360B1E74FF031
:1021D0008043DA60C0E700BF2C1A002071110008AC
:1021E00061B1084A10B4526944680346C2E9003438
:1021F0000420226010BC5A60FFF76ABF4FF0FF3026
:10220000704700BF2C1A00200000000000000000F2
:10221000F8B504460F461646202383F3118803E0E1
:10222000FFF7DEFF002818DBA56831462046002DA9
:10223000F6D06269A368511C013B6161A36017700D
:10224000D4E904329A4224BFE3686361E36903B1CD
:102250009847002080F31188F8BD85F31188F8BDF8
:102260003030FFF7D5BF00BF0000000000000000C5
:1022700030304FF0FF32FFF7CBBF00BF000000004F
:1022800070B5202305460E4683F3118803E0FFF75F
:10229000A7FF00281ADBAC6831462846002CF6D090
:1022A000A969AB6828694A1C013B8242AB60AA61FC
:1022B00028BFEB680C7828BFAB61EB690BB12846EF
:1022C0009847002383F31188204670BD84F311885A
:1022D00070BD00BF00000000000000000000000012
:1022E0000C30FFF7CDBF00BF000000000000000071
:1022F0000C304FF0FF31FFF7C3BF00BF00000000FC
:1023000038B504460D4605E0237A83B9FFF768FF28
:1023100000280BDBE36829462046002BF4D0236914
:10232000E1691A1D0B44C4E90A23002038BD6FF08F
:10233000010038BD000000000000000000000000A7
:1023400070B520230D46044683F31188866AFEB1DA
:102350003570D4E90A3201339342A36214D3E2699F
:102360002369A169043A1A60E069E26803448B4278
:10237000236124BF636A2361013A236BE260002278
:10238000A2620BB120469847002080F3118870BDEF
:102390001146FFF7B5FF08B9A66AD9E786F3118899
:1023A00070BD00BF00000000000000000000000041
:1023B0004430FFF7C5BF00BF000000000000000070
:1023C00044304FF0FF32FFF7BBBF00BF00000000FA
:1023D00038B504460D4605E0237A83B9FFF700FFC0
:1023E00000280BDBE36829462046002BF4D0636904
:1023F0001A6804331A44C4E90A32002038BD6FF069
:10240000010038BD000000000000000000000000D6
:1024100070B52023044683F31188856AE5B115F869
:10242000016BE26AA562954211D3D4E90610636993
:10243000E26803448B42636124BF636A6361013ACB
:10244000236BE2600022A2620BB120469847002372
:1024500083F31188304670BDFFF7BAFF064608B90E
:10246000A56ADCE785F31188F4E700BF00000000EF
:102470000C30FFF7CDBF00BF0000000000000000DF
:102480000C304FF0FF31FFF7C3BF00BF000000006A
:10249000034A52690260034653620320FFF718BEE5
:1024A0002C1A0020000000000000000000000000C6
:1024B0002DE9F0413D4EB0270025746B37848646E8
:1024C0008C46B56085F31188D6E90B1738680F681C
:1024D000B16A0160D6F82480C0F80CE04FF080416A
:1024E000C0F804C0C7F80080FA607B604F6A2A46D3
:1024F000202001E082F3118880F31188A3699B07F3
:1025000002D423689D0524D54B6ADB1BB3F5FA7F03
:10251000F0D3306B0268136823F01F031360136855
:10252000DC07FCD4F16A447A40680A683D23A34082
:102530000360136823F01F0313601368D807FCD4EB
:10254000487A4A683D23834013604FF0FF30BDE86E
:10255000F08163681648069943F40073636023684A
:1025600043F480732360FFF793FF0028EFD0346BB0
:102570002268136823F01F0313601368D907FCD483
:10258000F16A657A64680A683D23AB40236013688A
:1025900023F01F0313601368DB07FCD44C7A4A68EE
:1025A0003D23A3401360BDE8F08100BF9C0C0020D8
:1025B000B80C002000000000000000000000000037
:1025C0002DE9F041194C15466268AB1C42F2107CB3
:1025D00082B052680CFB03F30646B3FBF2F30F46DE
:1025E000202282F31188032205334FF0000840F2C5
:1025F000E7300021ECFB0301227000234FF47A72D4
:10260000C4F80880FEF70AF92B4600903A46304697
:102610000121FFF74DFF01300CBF0523022323707A
:1026200088F3118802B0BDE8F08100BF9C0C002047
:1026300000B583B0034602220DF1030001A98DF815
:102640000330FFF7BDFF9DF804309DF805009B00A7
:1026500043EA901003B05DF804FB00BF00000000E7
:1026600010B582B0044601A90DF103003723022200
:102670008DF80330FFF7A4FF9DF80430DB082370CA
:102680000DF1030101A80E2301228DF80430FFF79C
:1026900097FF9DF8033003F01F030DF103010122A2
:1026A00001A863700D238DF80430FFF789FF9DF8B2
:1026B000033003F00F03A3700220FFF7B9FF030AF2
:1026C0002071E3700820FFF7B3FF030AA071637164
:1026D0000120FFF7ADFF030A20720920E37102B069
:1026E00010BD00BF0000000000000000000000005E
:1026F000F0B5174C666842F2107285B001FB0223F8
:102700000D4607467168B3FBF1F3202181F3118870
:10271000032626700533002640F2E7300021E2FB55
:102720000301A6604FF47A720023FEF777F8334670
:102730000090294638460DF10F02FFF7B9FE01302F
:102740000CBF05230223237086F3118805B0F0BD6A
:102750009C0C0020000000000000000000000000B1
:1027600070B5202383F31188114B124DD3E9081261
:1027700003241C70D3E90A6409681268CD6044F42C
:10278000806401254D600E60D0605560146008685B
:102790002843086011682943116003F108004FF0D5
:1027A000FF31FFF775FE002383F3118870BD00BF72
:1027B00094180020881C0020000000000000000089
:1027C00010B582B0034601A88DF80430FFF7C8FFAA
:1027D000114B4FF480425A8300BF20211A8381F3AA
:1027E00011880E4A127832B11A699205FCD50A4A4C
:1027F00013699B05FCD4084B4FF400525A8300BF69
:1028000007490120488300BF002408831A8384F30A
:10281000118802B010BD00BF00040240880C0020E7
:102820000000024000000000000000000000000066
:102830002DE9F04106460F2017468846FEF758FA64
:10284000164B4FF400425A8300BF002E1A830ADD54
:10285000134D00234FF480742C8300BF6C8300BFA2
:102860000133B342F8D13C46FEF702FA14F8010BEB
:10287000FFF7A6FFB8F1010F0DD0094E47444FF402
:102880008075358300BF758300BF14F8010BFFF717
:1028900097FFBC42F5D1BDE8F08100BF00040240C3
:1028A00000000240000000000000000000000000E6
:1028B000F0B5284B4FF4804283B05A8300BF2021EB
:1028C0001A8381F31188244A127832B11A69920569
:1028D000FCD5204A13699B05FCD41E4B4FF40052D3
:1028E0005A8300BF00BF0421598300BF00BF4FF4CB
:1028F0008050588300BF0024188319831A8384F3FF
:102900001188202383F311881448154FC66AD0E933
:102910000823032101701268816A1B680DF1070505
:10292000D56041F48061012555601160DF605D6014
:102930001E601168294311601A682A431A604FF01B
:10294000FF310830FFF7A4FD84F311889DF80700DC
:1029500003B0F0BD00040240880C00209418002051
:10296000B08300080000000000000000000000002C
:1029700008B50C4B4FF400425A8300BF00281A835D
:102980000ADD094900234FF480720A8300BF4A839D
:1029900000BF01338342F8D1FEF76AF9BDE8084071
:1029A000FFF786BF00040240000002400000000064
:1029B000F8B5134B4FF400450F4614465D8300BF36
:1029C00000281D830ADD0F4D00234FF480722A83F7
:1029D00000BF6A8300BF01338342F8D1FEF748F994
:1029E0006FB1084E27444FF48075FFF761FF04F87C
:1029F000010B358300BF758300BFBC42F5D1F8BD24
:102A0000000402400000024000000000000000003E
:102A100008B50146202383F311880820FFF758FBEF
:102A2000002383F3118808BD0000000000000000AF
:102A30000EB42DE9F04F036888B082461B6912ADD1
:102A400007959847DAF800108146CC68C1B2504625
:102A5000A04719F1020F00F0FF81A846AB4CAC4D26
:102A600057464FF0000B2521C2466B5C13F008005F
:102A700040F0D480252911D0494500F08180BA4624
:102A80005FFA89F9DAF8003049465B6950469847A1
:102A9000584608B0BDE8F04F03B070472378252BA7
:102AA0000AD1B9F1250FEAD13B6838461B6998472E
:102AB000A61C617881466BE02A2B00F0C4815AF88D
:102AC000042B0192661CE95C4C0740F1CA8100248A
:102AD000A3F1300216F8013BE95C04EB84044807DB
:102AE00002EB4404F4D4002C08BF4FF0FF3403F091
:102AF000DF004C2800F0A28001F00301A1F10102E7
:102B0000B2FA82F25209CDE90262443B342B00F260
:102B10009C80DFE813F064019A009A009A009A0002
:102B200039019A009A009A009A009A001E01A100A9
:102B30009A009A009A009A0003019A009A00A10054
:102B40009A009A009A009A009A009A009A009A00B5
:102B50009A009A007D0164019A009A009A009A00F6
:102B600039019A009A009A009A009A001E01A10069
:102B70009A009A004E009A0003019A009A00A10060
:102B80003B6838461B6998472646814616F8011B64
:102B900019F1020F00F0BE8000293FF470AF3446F7
:102BA00063E73B681B69984710F1020F81463FF4C9
:102BB0006FAF15F8093013F008033846F1D1002C37
:102BC000C8BF1E4640F39681019B38460BB103F8FF
:102BD00006903B681B699847814619F1020FC1B204
:102BE00006F1010638463FF453AF3B68DB6898476F
:102BF000B44200F0828115F809301807E4D5019B32
:102C000033B14FF000029A55019B4FF000021A5564
:102C1000029E0BF1010B16F8011BBDE715F80930F8
:102C20001B0707D53B6838461B6998472B5C1E0776
:102C3000F8D48146264616F8011BA9E7324601233F
:102C4000039312F8013B02925FE738685FFA89F15B
:102C50004369384698471BE715F80930180707D528
:102C60003B6838461B6998472B5C1907F8D48146A6
:102C7000B9F12B0F00F00881B9F12D0F00F0678139
:102C800001230493B9F1300F0DD1661E00F08C8141
:102C90003B6838461B69984720F02003582B814633
:102CA00000F030813446002305934FF010085FFA9E
:102CB00089F941464846FEF77BF9411C034600F07E
:102CC0007181023C00263A683846126906FB0836D4
:102CD0009047631C81464146C0B204F1FF3404D0E2
:102CE000FEF766F9421C0346EDD1049B03B9764218
:102CF000019B2BB1039A002A40F0A980019B1E6022
:102D0000029E0BF1010B16F8011B41E7757D0008CF
:102D100061860008BA464FF0FE09B3E615F809309F
:102D20001E0707D53B6838461B6998472B5C1A0776
:102D3000F8D48146B9F12B0F00F02281B9F12D0FA3
:102D400000F0BC8001260023CDE904634FF00A089F
:102D5000ADE715F80930190707D53B6838461B69F8
:102D600098472B5C1B07F8D48146B9F12B0F00F074
:102D70001081B9F12D0F00F0AF8001200023CDE9C3
:102D800004034FF0080892E715F809301A0707D531
:102D90003B6838461B6998472B5C1B07F8D4814673
:102DA000B9F12B0F65D0B9F12D0F00F0C5800123CB
:102DB0000493B9F1300F57D1661E00F0F5803B68DF
:102DC00038461B69984720F02003582B814600F0B5
:102DD000A6800123344605934FF0080867E715F8ED
:102DE00009301B0707D53B6838461B6998472B5CA1
:102DF0001E07F8D48146B9F12B0F00F0B380B9F16A
:102E00002D0F4CD00123CDE904334FF00A084EE7D3
:102E1000002C7FF7FDAE019BB8461C441E461F46A2
:102E200040460FB186F80090D8F800301B699847EB
:102E300010F1020F814606F101063FF429AEB442BB
:102E4000EED14746E4E663780190A61C3BE6059A7E
:102E5000002A3FF453AF52E74FF0FE094FF0000B4A
:102E600010E64FF0FF3442E6012305934FF00A08C5
:102E70001DE7013C3FF40CAE3B6838461B699847A0
:102E800001238146049394E7013C3FF401AE3B6883
:102E900038461B699847012381460493F2E6013CBA
:102EA0003FF4F6AD3B6838461B69984701238146DD
:102EB0000020CDE904034FF00A08F8E6013C3FF496
:102EC000E7AD3B6838461B69984700230493814669
:102ED00005934FF00A08EAE6013C3FF4D9AD3B68A0
:102EE00038461B69984700230493814605934FF0A9
:102EF0000808DCE6611C3FF48BAE019B002B7FF4DD
:102F000083AE85E6023C3FF4C3AD3B6838461B699F
:102F100098470023814605934FF01008C7E6023C0E
:102F20003FF4B6AD3B6838461B699847012381469C
:102F300005934FF01008BAE6013C3FF4A9AD3B6899
:102F400038461B69984700238146049331E7013CCA
:102F50003FF49EAD3B6838461B6998470023814685
:102F600004938FE6013C3FF493AD3B6838461B6900
:102F7000984701230493814605934FF00A0896E68B
:102F8000013C3FF485AD3B6838461B699847814654
:102F9000D8E6013C3FF47CAD3B6838461B69984756
:102FA0008146EAE6BA466DE50BF1010B70E500BF1C
:102FB0000EB42DE9F04F86B00FAB53F8044B0293DB
:102FC000254615F8011B002900F03B82074699466B
:102FD0004FF000080CE03B683846DB6808F1010858
:102FE0002C469847254615F8011B002900F0BE80A5
:102FF0002529F0D163782D2B04BFA51C01202B7847
:1030000018BF00202B2B03BF6B784FF0010E7544C7
:103010004FF0000E302B05BF1E466B782026013581
:103020002A2B40F0AC8059F8041B6B78AC1C2E2B7B
:1030300000F03081002203F0DF054C2D00F0B2805B
:10304000A3F1440CBCF1340F00F29881DFE81CF0CE
:103050005E0196019601960196015E019601960128
:103060009601960196019A01350096019601960106
:1030700096019400960196013500960196019601FD
:1030800096019601960196019601960196014D01D1
:103090005E0196019601960196015E0196019601E8
:1030A0009601960196019A013500960196012D012F
:1030B000960194009601960135004FF0100E59F8D4
:1030C000045B0DF1170300E06346AA46B5FBFEF56D
:1030D0000EFB15AB0BF13002392AC8BF0BF13702DA
:1030E000D2B2F24503F1FF3C03F8012CECD20DF112
:1030F0000C0A0DF11705A5EB0C05D6460DF1170CC2
:1031000001E013F8012B0EF8012B6345F9D1491B9F
:10311000013D21EAE17B20B90029CBF1000B00F34E
:103120004581002D0FDB6B1C534401941C463A680B
:103130001AF8011BD26838469047A245F7D108F12A
:103140000108019CA844BBF1000F3FF44BAF5D4662
:103150003B683146DB6838469847013DF8D1254643
:10316000D84415F8011B00297FF442AF404606B051
:10317000BDE8F04F03B070474FF00A0E9FE76C1C9C
:10318000002BF3D00021A3F13002D2B2092A01EBC7
:1031900081053FF64CAF14F8013B02EB4501002BD3
:1031A000F1D1E3E714F8013B002BDFD0A3F1440594
:1031B000342D00F2E3800FF2080C5CF825F000BF1C
:1031C0000D3300087D3300087D3300087D3300088F
:1031D0007D3300080D3300087D3300087D3300087F
:1031E0007D3300087D3300087D33000885330008F7
:1031F000BB3000087D3300087D3300087D330008B4
:103200007D330008793100087D3300087D330008E4
:10321000BB3000087D3300087D3300087D33000893
:103220007D3300087D3300087D3300087D330008BE
:103230007D3300087D3300087D330008EB32000841
:103240000D3300087D3300087D3300087D3300080E
:103250007D3300080D3300087D3300087D330008FE
:103260007D3300087D3300087D3300088533000876
:10327000BB3000087D3300087D330008AB32000806
:103280007D330008793100087D3300087D33000864
:10329000BB3000082378002B3FF468AF2A2B74D191
:1032A000637859F8042B0234C5E659F804ABBAF137
:1032B000000F00F0BC809AF80030002A40F0AA808D
:1032C000002B00F0AB8047F6FE72554601E0D3427A
:1032D00005D415F8016FAAEB0503002EF7D1A5EB75
:1032E0000A05491B2026013D13E759F8043B8DF8D8
:1032F0000C300139202621EAE17B18B90029CBF1F5
:10330000000B72DC00250DF10C0A0CE759F804CB18
:10331000BCF1000F5FDBBEF1000F00F08E802B23AD
:103320008DF80C300DF10D050DF10C0A05F10B03B4
:1033300001931A46474BA3FB0CE3DB0803EB830B1B
:103340009E46ACEB4B033033E346DBB2BBF1090FD7
:1033500002F8013DF446EDDC9E46019BA3EB020C16
:10336000AC44734601E012F8013F05F8013B6545A6
:10337000F9D1A5EB0A05491B013DCAE68DF80C30D1
:103380000139B8E74FF0080E99E601340022A3F1A5
:103390003005EDB2092D02EB820C3FF64CAE14F86D
:1033A000013B05EB4C02002BF1D1DFE6CDF804B078
:1033B0009AF800102D2921D03B683146DB68384649
:1033C00098471BF1010BF7D1019B002DA8EB0308D7
:1033D000BFF6A9AE06E62D23CCF1000C8DF80C301B
:1033E0000DF10D050DF10C0AA0E79DF80C10CDF8BC
:1033F00004B02D290DF10C0A0546DDD1302EDBD1AC
:103400003A683846D26890470AF1010A08F1010883
:10341000013DD1E713B1013A7FF557AF21EAE17BD6
:1034200018B90029CBF1000B0DDC20268BE6DFF864
:1034300028A0002A3FF447AFEDE70DF10C0A5546EE
:1034400074E7884692E6CDF804B020264FF0FF35A9
:10345000AEE700BFCDCCCCCC7C7D000800000000E6
:103460002DE98048A24BA34AA34CDFF8B092DFF8C5
:10347000B0A295B00026089293E807000EAB03C3F4
:1034800006961A70A346D4F88C341B681B78042B5C
:103490006FD1236858461B699847202389F800009C
:1034A00083F311884FF0804300225B6A82F3118816
:1034B0009D4203F6B83532D32E2EE4D8DFE816F05D
:1034C0002F0057044504AE04A7038404DF037004EF
:1034D00045007C03680354032C039A039003CC0239
:1034E000BC020605BC04CA03B103F7046504EB047F
:1034F000F1029F048F04DE042003FA03EA033A0476
:10350000AB02BE019A01B2017601E2018C01A60173
:103510004701320193000C017F007200520099F8BC
:103520000030764A1370423B182B1BD8DFE803F0BB
:103530003834321A1A1A1A1A1A1A1A1A301A2E1A71
:103540002C2A1A1A36281A1A26006C4B1A7899F85F
:1035500000309A4240F0DF842368694A1178DB68C2
:10356000584698470026D4F88C341B681B78042BE7
:103570008FD04FF47A70FFF74BFA84E7192682E771
:10358000102680E70C267EE715267CE72B267AE7B7
:103590000E2678E7262676E7232674E7012672E7CB
:1035A000022670E7554B99F800201B789A4200F0EC
:1035B000F18454495448FFF7FBFC0026D3E74F4FF2
:1035C000524A97F800C01188514F069A99F8003076
:1035D000BB540132494F92B2634491423B7000F0B8
:1035E0000E8506924FE7454B99F800201B789A42CA
:1035F000DFD111A8FFF734F8464B9DF845205B78E2
:103600009A420AD003F01F030E2202210CA88DF863
:1036100031308DF83020FFF76BF83E4B9DF8462097
:103620009B789A420AD003F00F030D2202210CA8C6
:103630008DF831308DF83020FFF75AF835499DF874
:103640004730CA78934200F018850B7943EA022389
:1036500099010222C3F387038DF832100CA80321CD
:103660008DF831308DF83020FFF742F829499DF868
:1036700049304A79934200F0E4848B7943EA02238B
:1036800099010822C3F387038DF832100CA8032197
:103690008DF831308DF83020FFF72AF81D499DF85C
:1036A0004B30CA79934200F0DA840B7A43EA022362
:1036B00099010122C3F387038DF832100CA803216E
:1036C0008DF831308DF83020FFF712F81249584646
:1036D000FFF76EFC0026D6E6084999F800300A7814
:1036E0000A48038013440B7000232C260693CAE675
:1036F000787E00082C19002004140020E61B00200E
:1037000026190020887D00084C0F0020E41B0020B3
:10371000DC1E0020C81B0020847D00082919002021
:1037200000000240504F514A97F800C01188504F96
:10373000069A99F80030BB5401324B4F92B2634461
:1037400091423B707FF44DAF06912A269BE6464B93
:1037500099F800201B789A427FF42BAF4448FEF77B
:103760007FFF424A81B21180424A00231370424ACD
:103770001380A9B122683E4E3F4FF15CD368584692
:1037800098473B883B4AF15C384E107832880133C9
:1037900001449BB237483B80C9B29A420170E9D8D4
:1037A00023685846DB68984700266CE62F4A2E4F60
:1037B0001188089A99F8003097F800E09446069A24
:1037C0000CF80230013292B2734491423B707FF4A4
:1037D00008AF0691252656E6234999F800300A7865
:1037E000522B1A440A7000F01184572B14BF2E2656
:1037F000272648E61C4B1A7899F800309A427FF445
:10380000D8AE1A4B1D4A198807981BE2164999F839
:1038100000300A781548038013440B7000232926D2
:10382000069330E6104999F800300A780F48038073
:1038300013440B7000232426069324E6104F0B49F3
:1038400009483B88007899F80020B1F800C00B497E
:10385000CA540244013304489BB23B809C4508BFD4
:10386000222602700FE600BFE61B0020E41B0020AA
:10387000C81B0020DC1F0020D41E0020DC1E0020FE
:10388000A8220020A84B99F800201B789A427FF4C8
:1038900090AE089F3E788DF83260A44E7A78BB785F
:1038A0008DF831204FF0000C4FF480608DF83030EF
:1038B0003A79FB788DF82FC08DF833C030839C485F
:1038C0004FF4004180F800C03046718300BF4FF4D0
:1038D000804601830146468300BF964808900C98B5
:1038E0000E834FF40056CDF808C0934F4E83DFF897
:1038F0005082089E11460246009140463946FFF725
:1039000057FB7179B279F37902988DF832108DF8FE
:1039100030308DF833008DF831200C9A337A717A7B
:103920000536002AE8D1089B1E4619783779B6F883
:1039300006C08DF8321010465A789B788DF83030DA
:10394000F37800938DF8312076790C9A03938046B2
:1039500002909CFA9CFC8DF84700784978488DF8D5
:1039600046603B460497ADF844C0FFF721FB754A1B
:103970000995039D05924646029BA3F51F43F03B24
:1039800003934FF000085FFA88F73846FDF7B0F967
:10399000BD424FF0FF020DF12F0000F0A2829DF812
:1039A0002F30FF2B03D08DF82F20FEF7D9FE2EB934
:1039B0000123AAF81A3000BFAAF8183008F101084C
:1039C000B8F10F0FDFD1029A119B08329A4240F2F0
:1039D000A982012602999942CED3059803794279AA
:1039E0008179C578C0798DF846208DF84510029A06
:1039F0008DF84400544952480095002704938DF8EF
:103A00004770FFF7D5FA0598119B421D002B00F077
:103A100003830592B0E74D4B43481B7899F800109B
:103A200002781B0403EB01230A440793484B0270FE
:103A300000221A80212626E53B4999F800200B78C0
:103A400013440B70002A40F09E820692414A4FF4C4
:103A500080731380112616E5334B1A7899F80030DD
:103A60009A427FF4A6AD3C4A002313703B4A138070
:103A700014AA1344226813F8181CD368364E58460B
:103A8000984736483278038814A91944013311F84D
:103A9000181C9BB21144C9B2082B03803170E7D9BE
:103AA0007EE6214B1A7899F800309A427FF481AD76
:103AB0002B4B284E1878079B2A4A318803EB00408D
:103AC000FEF776FF254A3688002313808EB11E4606
:103AD000244AD15C23685846DB680E4498471F4946
:103AE0001C4A0B88128801339BB29A42F6B20B80B3
:103AF000EED823683146DB68584698470026C2E472
:103B0000094999F800200B780798134400EB02222A
:103B100007920B701D26B6E4034999F800200B7834
:103B200013440B700D26AEE4E61B00200004024097
:103B3000880C00202C190020B87D0008DC7D0008CE
:103B40004C0F002031190020447E00082419002069
:103B5000A8220020E41B0020DC1F0020D41E00202F
:103B600027190020DC1E0020B94B99F800201B7893
:103B70009A4240F0D081B74B1B78082B00F2EA81C3
:103B8000B54AB64913705846FFF712FA00267AE490
:103B9000AF4B1A7899F800309A4240F0BC81AD4B97
:103BA0001B78082B00F2D681AD4AAC4913705846F9
:103BB000FFF7FEF9002666E4A54B99F800201B7874
:103BC0009A4240F0A881A74B1B78082B00F2C281D3
:103BD000A54AA24913705846FFF7EAF9002652E4B5
:103BE0009B4999F800300A78532B134408BF0F26DD
:103BF0000B7048E4964B1A7899F800309A427FF49B
:103C0000D8AC96495846FFF7D3F900263BE4904BD1
:103C10001A7899F800309A4240F07D812368924AE0
:103C20009CE48B4B1A7899F800309A427FF4C1AC2F
:103C30008D4B07981B788D498D4A098800EB03430B
:103C400007931846FEF7F4FD84495846FFF7B0F98C
:103C5000002618E47E4F854A97F800C01188844FEB
:103C6000069A99F80030BB540132794F92B26344FE
:103C700091423B707FF4B5AC0691142603E474497D
:103C800099F800300A787348037013440B700A26C1
:103C9000FFF7F9BB6E4999F800200B7813440B70BD
:103CA000002A40F06181714A4FF4807313801F260F
:103CB000FFF7E9BB664B1A7899F800309A427FF417
:103CC00078AC079E3046FEF753FE23680146DB685A
:103CD00007465846984765490B8832461B02013211
:103CE000013B2E460B804FF480781546AAF81880C9
:103CF00000BFAAF81A8000BF00BFFEF7D9FD5C4ADA
:103D000023681070DB680146074458469847574AB5
:103D10001388013B9BB2FFB201351380002BE5D124
:103D2000079535461E4623683946DB68584698474E
:103D3000FFF7A9BB464999F800300A784D4803704F
:103D400013440B702026FFF79EBB414999F80030C1
:103D50000A78522B1A440A7000F07081532B00F03D
:103D60006A81452B14BF2E260726FFF78CBB99F8D6
:103D70000030562B7FF4F6AB3F4900231022584603
:103D8000FFF716F90026FFF77EBB314999F80020AE
:103D90000B7813440B70130207931726FFF773BBBE
:103DA0002B4999F800300A78452B1A440A7000F024
:103DB000D880522B00F0D580532B00F06781254A24
:103DC0000B261370FFF75FBB214B1A7899F8003070
:103DD0009A4240F0A0802368214AFFF7BFBB1C49EC
:103DE00099F800200B7813440B70002A40F0C6802D
:103DF0001E4A4FF4807313801B26FFF744BB1449FF
:103E000099F800300A78522B1A440A7000F0FB80AF
:103E1000572B14BF00261E26FFF735BB0C4999F817
:103E200000200B78522A13440B7000F0F2800D4BE7
:103E300009261A70FFF727BB054999F800200B786F
:103E400007981344104407900B701326FFF71BBB11
:103E5000E61B0020DC1F002026190020847D0008BE
:103E6000251900202819002027190020E41B002014
:103E7000DC1E002024190020B07D0008854999F837
:103E800000300A7884481A4403701B040A700793B0
:103E90001C26FFF7F8BA7F4999F800200B7807989D
:103EA0001344104407900B701826FFF7ECBA7949B9
:103EB00099F800200B7813440B70002A59D1774AE7
:103EC0004FF4807313801626FFF7DDBA714999F815
:103ED00000200B7813440B70130207931226FFF790
:103EE000D2BA049B8DF82F30FEF73AFC0123AAF8D2
:103EF0001A3000BFAAF81830039B182B3FF65EADAE
:103F00009DF82F30029A66496648CDE9003643464F
:103F1000FFF74EF852E564496248FFF749F800267A
:103F2000FFF7B1BA08264FF480733146AAF818306B
:103F300000BFAAF81A3000BF013911F0FF01F5D116
:103F40000E465A494FF480434B8300BF0B83119BAD
:103F500002923FE556495348FFF72AF80026FFF73B
:103F600092BA0826FFF78FBA4C4B1F261A80FFF72C
:103F70008ABA4A4B16261A80FFF785BA474B1B268A
:103F80001A80FFF780BA454B1A800023112606934A
:103F9000FFF779BA474B1B78032B3FF697ABDFE867
:103FA00003F023180D02414A43494FF480731383F1
:103FB0005846FEF7FDFF0026FFF765BA3B4A3E492B
:103FC0004FF4807353835846FEF7F2FF0026FFF745
:103FD0005ABA364A38494FF4806353835846FEF73D
:103FE000E7FF0026FFF74FBA304A33494FF48063AA
:103FF00013835846FEF7DCFF0026FFF744BA06910C
:104000002D26FFF740BA1A26FFF73DBA2826FFF7FC
:104010003ABA0426FFF737BA24492848099D4FF4D5
:1040200000520A8301220270234958461E46FEF7B9
:10403000BFFFFFF728BA0626FFF725BA0326FFF7CA
:1040400022BA1F4B9DF84A109B7999427FF416AB18
:104050001B499DF84B30CA7993427FF426AB184B2D
:104060009DF84C101B7A99427FF420AB12495846B8
:10407000FEF79EFF0026FFF706BA114B9DF8481089
:104080001B7999427FF4E2AAFFF7F0BA0526FFF701
:10409000FAB900BFE61B002024190020E41B002011
:1040A000147E00084C0F0020887D000800040240A8
:1040B0009C7D0008DC1E0020847D0008880C002008
:1040C000C81B0020000000000000000000000000ED
:1040D00038B50D460A490446FEF76AFF012D05DD95
:1040E00020460849BDE83840FEF762BF0649204631
:1040F000FEF75EFF20460349BDE83840FEF758BF93
:10410000847E0008A87E00089C7E00080000000055
:10411000012903D0034A0449FEF74ABF1268034944
:10412000FEF746BFB07E0008C07E0008CC7E0008C7
:10413000012910B50BD010490446FEF739FF0F4B8B
:104140000F491A882046BDE81040FEF731BF1068BD
:1041500003F038FA094B188080B2202383F31188CA
:10416000084BDA68996942F00102DA60486300237B
:1041700083F3118810BD00BFD47E00080C08002016
:10418000F87E0008D40C00200000000000000000B1
:10419000012938B515D0194B19491D880446FEF779
:1041A00007FF4FF47A72174B174902FB05F2D2084A
:1041B000A3FB02322046C2F34F02BDE83840FEF7AF
:1041C000F7BE10680D4C03F0FDF92022208080B26C
:1041D00082F311880D4B996998600138C8620021FB
:1041E00081F31188248882F31188DA68986942F093
:1041F0000102DA60446381F3118838BD00080020B1
:104200000C7F0008198661182C7F0008D40C002050
:1042100010B5114984B00446FEF7CAFE0F49204686
:1042200001AAFEF705FC012805D00D492046FEF73E
:10423000BFFE04B010BD0022114601A803F04CFAE5
:1042400001AA83B207492046FEF7B2FE0649074895
:10425000FEF7AEFE04B010BD487F0008747D000874
:10426000607F0008787F0008A47F00080414002005
:1042700070B50E461E4915460446FEF799FE022EFD
:1042800005D020461B49BDE87040FEF791BE0022D4
:104290001146286803F020FA002203461146686898
:1042A0001D4603F019FA144B4FF40042C6B25A836C
:1042B00000BF002D1A830ADD104900234FF48072DD
:1042C0000A8300BF4A8300BF01339D42F8D10F200B
:1042D000FCF70EFDFCF7CCFC3046FEF771FA2B46DE
:1042E000324620460649BDE87040FEF761BE00BF79
:1042F000AC7F0008C87F00080004024000000240B4
:10430000E47F000800000000000000000000000042
:1043100070B50D460E4916460446FEF749FE012DBE
:1043200005D020460B49BDE87040FEF741BE002293
:104330001146306803F0D0F90546FEF719FB2A460E
:10434000034605492046BDE87040FEF731BE00BF78
:10435000008000081C800008348000080000000075
:10436000F0B50E46C1B0214914460546FEF720FEC1
:10437000032E05D01E492846FEF71AFE41B0F0BDB7
:1043800000221146206803F0A7F9002211460646D4
:10439000606803F0A1F9002207461146A06803F007
:1043A0009BF9B6F5807F044619DC3A46114933463D
:1043B0002846FEF7FDFD002E6A4606DDE4B21146F2
:1043C000931901F8014B9942FBD131463846FEF76B
:1043D0002FFA09492846FEF7EBFD41B0F0BD074929
:1043E0002846FEF7E5FD41B0F0BD00BF4C80000857
:1043F00074800008B4800008D88000089880000805
:10440000012902D00849FEF7D3BD134610B500229A
:1044100004461146186803F05FF904490246204635
:10442000BDE81040FEF7C4BDE0800008F48000083D
:104430002DE9F04F0D46C5B0484914468246FEF7B7
:10444000B7FD022D06D046495046FEF7B1FD45B0F6
:10445000BDE8F08F4FF48072002104A803F048F902
:1044600000221146606803F037F900220546114624
:104470002068019503F030F9B0F5807F044666DCD2
:10448000019D38492A465046FEF792FD04AA21466E
:104490002846FEF78DFA002CD9DD33499DF810200F
:1044A0008DF8082050460DF10F078B460126FEF7C8
:1044B0007FFDDFF8C490DFF8C4803B1900933446D9
:1044C00004ADF30612D0009B9D42C0D002AB15F89C
:1044D000012F1A5559465046FEF76AFD731C5A07BC
:1044E000DEB21AD00134F306E4B2ECD104ABC3F16E
:1044F0000102019B1D491A442A445046FEF758FD0B
:10450000009B9D42A3D002AB15F8012F1A555946C6
:104510005046FEF74DFD0126E4E70DF1070403E0E8
:10452000FEF746FDA7420CD014F8012FA2F120039C
:104530005F2B41465046F3D94946FEF739FDA74265
:10454000F2D10B495046FEF733FD0024B9E7094983
:104550005046FEF72DFD45B0BDE8F08F0C810008F8
:1045600034810008508100086481000874810008CB
:104570005C7F000898800008708100086C8100084A
:104580002DE9F843536900EB81070C46FA600FFAF6
:1045900081F823B10021196059609960D96093694D
:1045A00023B100221A605A609A60DA60FB68456D98
:1045B0001E68D3F818C006F00306721E022A98BFC0
:1045C000B60405EB44124FF0000198BF06F1805687
:1045D000C2F8101B8CBF454E06F500466101BCF1C8
:1045E000000F4BD0B3F812C004F1580252014CEA4C
:1045F000060C45F802C004F1100ED5F81CC80122C3
:1046000002FA0EF242EA0C02C5F81C286A1859692F
:104610004FF0000CC2F810C9002944D0998B1A8AB7
:1046200001294FEA9203C26D88BF4B4304F13F0159
:1046300003EB020C05EB810142EA0343A20142F0C5
:104640002002C0F85CC04B602A612B699A06FCD43A
:104650001220FCF745FEFB681B8A04F1480243EA7E
:10466000845352011E43AE500121D5F81C3801FA83
:1046700004F41C43C5F81C48BDE8F88305EB481258
:1046800004F11009D2F800EB2EF4004EC2F800EB52
:10469000D5F81C284FF0010C0CFA09FC22EA0C0298
:1046A000C5F81C28B2E704F13F0205EB8202A30122
:1046B0000F49516043F020032B612B699B06FCD40A
:1046C00005EB48181220FCF70BFED8F8003923F44C
:1046D0000043C8F80039D5F81C38012101FA04F468
:1046E00023EA0404C5F81C48BDE8F88300800010E4
:1046F00000040002000000000000000000000000B4
:1047000030B583B005290FD8DFE801F0100E031093
:104710001029202383F311880378042B2FD0032B37
:1047200059D0002383F3118803B030BD202383F3D5
:1047300011882A4C237D1BB194F84C30002BF0D10A
:1047400002212748FCF78CFD012526482575FCF73A
:104750005FFD254884F84C50FCF75AFDE1E7202323
:1047600083F311881D4C0121201DFCF779FD0023E6
:10477000237584F84C3083F3118803B030BD174C97
:104780001A4A01900121FFF7FBFE02210198184A05
:10479000FFF7F6FE0025236B236204F10C00E361B2
:1047A000C4E90D55A561FCF733FDD4E9192304F1E3
:1047B0004400C4E915332265C4E91B552575FCF78F
:1047C00027FD201D012184F84C50FCF749FD2046AF
:1047D000FDF75EFAA5E7FDF70BFAA2E70414002047
:1047E000081400201014002048140020D88300086A
:1047F000FC83000800000000000000000000000032
:104800002DE9F041D0E90246B4420746884653D02C
:10481000D0E900C0234600211CF8035001352B4489
:104820009842D8BF1B1AB34201F10101F4D1012A09
:104830003D693CD0A94253DBB44254D04B1E9D424B
:1048400054D0D7E900EC002001E09D4217D01EF8BB
:10485000043001331C44A44500F10100D8BFA4EB8F
:104860000C04C343B4420B44EFD11EF806405CB9BC
:10487000012A35D101353D612046BDE8F08126464B
:104880001EF80640002CF3D0013540223D61002186
:10489000404602F02DFF7B68A2199A4210DA39686F
:1048A0000136314440462246FBF730FDE4E7002D57
:1048B00004DD023D3D61BDE70021B8E70024DBE7F0
:1048C0009B1B39685D1E013631442A464046FBF782
:1048D0001DFD396808EB0500621BFBF717FDCBE7F0
:1048E0004FF0FF34C8E7D7F800E0BEE7D7F800E0A4
:1048F0002646BAE7000000000000000000000000AB
:1049000070B590F83430044613B1002380F8343089
:1049100004EB81016268CB681B6A19685B68A36459
:10492000616493686BB32046984750B3E36B94F887
:10493000440094F84B1094F84A2042EA01229A422B
:104940003CBFE2631346020600F1DF80002B00F05B
:104950008F80152384F83430202383F31188E36893
:1049600062899B69D4E90E6142F0010200256281EF
:10497000204683E862002946FCF7D2FE85F31188C1
:1049800070BD94F8440010F060061CD194F84520E6
:1049900000F07F0343EA022340F20232934200F028
:1049A000138144D8B3F5807F00F0258122D9B3F577
:1049B000817F00F02F81B3F5407F04D194F8463019
:1049C000012B00F0D280626DD2F80039616843F4A7
:1049D0000013C2F80039D2F8003B0D6843F400130D
:1049E000C2F8003B15B106212046A847062384F8EB
:1049F000343070BD012B60D0022B50D194F9481097
:104A000094F84820002902F00F01B4BF4831583112
:104A1000626D490151580D04D6D589024CBF9C4A9C
:104A20009C4AA26302210022C4E90F1281E7B3F578
:104A3000006F00F0C28047D9B3F5106F39D12378E9
:104A4000042B00F09C8094F846304BB1626884F8E7
:104A50004F3004212170136813B10221204698477A
:104A60000023C4E90E3394F844002364030665D49C
:104A70000B2384F83430202383F31188E3682289E0
:104A80005B69002542F0010222812046C3E90055FE
:104A90009D602946FCF7ACFD85F3118870BD002BA5
:104AA00091D1022204F14C012364C4E90E12134691
:104AB0003FE740F60242934285D1774BA363002241
:104AC0000223C4E90F3234E7B3F5A06F6BD0A3F52E
:104AD000C063012B3FF677AF94F84900616894F802
:104AE00048304D6894F8462094F8471043EA002374
:104AF0002046A84700283FF466AFD0E9003294F87A
:104B000044002664C4E90E2313E7BBB1092384F8EB
:104B10003430202383F31188E36822895B69D4E968
:104B20000E6142F0010200252281204683E86200E6
:104B30002946FCF75DFD85F3118870BD142384F8C8
:104B40003430202383F31188E36862899B69002550
:104B500042F0010262812046C3E900559D6029466A
:104B6000FCF7DEFD85F3118870BDB4F84C30A66308
:104B700043F00203C4E90F66A4F84C3076E7202323
:104B800083F311882046FDF733F886F3118803215B
:104B9000636884F84F6021701B68002B3FF453AFAB
:104BA000204698474FE7B4F84430B3F5A06F48D09B
:104BB0000023C4E90E33236458E704F14F020123B4
:104BC000C4E90E232664B4E694F84630002B7FF443
:104BD000FAAE94F8483013F00F02E9D013F0800FCA
:104BE000636D03EB421344D1D3F8002B42F400125F
:104BF000C3F8002BDCE794F84630012B7FF4E3AEDA
:104C0000B4F84C30A66323F00203C4E90F66A4F89D
:104C10004C302BE794F84630002B7FF4D4AE94F858
:104C2000483013F00F02C3D013F0800F636D03EB15
:104C3000421325D1D3F8002B22F40012C3F8002B25
:104C4000B6E794F84610626D84F84E10D2F800383A
:104C5000656823F4FE632D6843EA0113C2F8003847
:104C600025B120460121A84794F84400032323706E
:104C70009EE7D3F8002942F40012C3F8002997E711
:104C8000D3F8002922F40012C3F8002990E700BFEE
:104C90003C840008448300085C8600080000000093
:104CA0002DE9F04F85B0CDE90232C7694FF02009F8
:104CB00089F31188A2B3DDF80CB004460E464FF01C
:104CC000000AA2689345D4E904208CBFA5685D461C
:104CD000A2EB0008A84544D829D2A5EB0803424618
:104CE00031460193FBF712FB06EB0801DDF8048067
:104CF000E0684246FBF70AFBA268E1684346CB182E
:104D0000521B6361A2600FB12046B8478AF3118835
:104D1000ABEB050B2E4489F31188BBF1000FD0D10A
:104D20000398002383F3118805B0BDE8F08F2A466D
:104D30003146FBF7EBFAE2686261A268521BA2609F
:104D4000002DE0D102992046FDF74AFA0028B8D09C
:104D5000039BA3EB0B00002383F3118805B0BDE890
:104D6000F08F2A463146FBF7D1FA62692A44626124
:104D7000E3E700BF000000000000000000000000AA
:104D80003030FFF78DBF00BF0000000000000000C2
:104D900030304FF0FF33FFF783BF00BF000000004B
:104DA0002DE9F04F85B0CDE90232C7694FF02009F7
:104DB00089F31188002A34D0DDF80CB004460E4681
:104DC0004FF0000AA268A169934522698CBFA568CB
:104DD0005D46A2EB0108A84544D829D2A5EB0803FB
:104DE000424630460193FBF791FA06EB0800DDF8E6
:104DF0000480E1684246FBF789FAA268E16843460D
:104E0000CB18521BA361A2600FB12046B8478AF3AA
:104E10001188ABEB050B2E4489F31188BBF1000F11
:104E2000D0D10398002383F3118805B0BDE8F08F3B
:104E30002A463046FBF76AFAE268A261A268521B72
:104E4000A260002DE0D102992046FDF7C9F90028A3
:104E5000B8D0039BA3EB0B00002383F3118805B0AC
:104E6000BDE8F08F2A463046FBF750FAA2692A4483
:104E7000A261E3E700000000000000000000000065
:104E80000C30FFF78DBF00BF0000000000000000E5
:104E90000C304FF0FF33FFF783BF00BF000000006E
:104EA0002DE9F04F054683B00C46924699464FF0E7
:104EB000200888F31188AB6A00263746002B41D0C2
:104EC000E96AAAEB060BCA1A934528BF9346BBF1C1
:104ED000400F40D92146184604F1400E0C684A683C
:104EE0008B68D1F80CC0C0F80CC01031714504605B
:104EF0004260836000F11000F0D1AB6A40330C4691
:104F00004036AB62EA6A9A4213D8EA692B69A8690B
:104F1000043A1A60E969EA68AF620B4483422B6184
:104F200024BF6B6A2B612B6B013AEA600BB12846F8
:104F3000984787F3118856451AD288F31188AB6ACF
:104F4000002BBDD1494628460193FDF7D9F9019BB5
:104F500060B9AB6AB4E7184621465A46FBF7D6F962
:104F6000AB6A5B445E445C44AB62CBE783F311887D
:104F7000304603B0BDE8F08F0000000000000000E4
:104F80004430FFF78DBF00BF0000000000000000AC
:104F900044304FF0FF33FFF783BF00BF0000000035
:104FA0002DE9F04F83B005460F46934601934FF02D
:104FB000200989F31188AC6A0026B046002C3FD046
:104FC000EB6AABEB06021B1B9A4228BF1A46402A2B
:104FD000924621463BD904F1400E3B460C68486896
:104FE0008A68D1F80CC0C3F80CC0103171451C6040
:104FF00058609A6003F11003F0D1AB6A4033403738
:105000004036AB62EA6A9A4211D8D5E906216B694B
:10501000E868C5F828800B4493426B6124BF6B6A33
:105020006B612B6B0138E8600BB12846984788F319
:1050300011885E4516D289F31188AC6A002CBFD165
:1050400001992846FDF7C4F950B9AC6AB8E738466B
:10505000FBF75CF9AB6A534456445744AB62D1E763
:1050600084F31188304603B0BDE8F08F00000000E3
:105070000C30FFF795BF00BF0000000000000000EB
:105080000C304FF0FF33FFF78BBF00BF0000000074
:1050900070B50D46B8B1044628601249204602F0AA
:1050A000FBFB215C222904EB000612D00D4930469F
:1050B00002F0D6FB98B1421C00232A6003703378BB
:1050C00023B1304670BD0C68002CE6D10026304676
:1050D00070BD0136304602F05BFB0028EBD1286042
:1050E000EDE700BF8881000800000000000000001C
:1050F0002DE9F04FBC4DD0F800A083686A69BB4928
:10510000A7B0044601904068069000209161187095
:10511000D4E90223CDE90E00B54910905046CDE9FF
:105120000C23FDF745FFB3495046FDF741FF6B697E
:1051300093F8213013F0040340F0958002930DF1B1
:105140005809CDF800A0AC490098FDF731FF019B4C
:1051500000251C682F46C846236801229B680DF174
:10516000230120469847002846D09DF823101B298C
:105170002AD05FB15B293DD035B1412900F02A81A9
:10518000422900F00A8100252F46E5E708291DD0B5
:105190007F291BD00D2900F06881092977D00E29BD
:1051A00000F03F81102900F057811F29D4D90DF15B
:1051B00097039845D0D223682046DB6898479DF82E
:1051C000233008F8013BC7E70127C5E7C845C3D02E
:1051D00023680821DB682046984723682021DB6884
:1051E0002046984723680821DB68204608F1FF38ED
:1051F0009847B1E73D46AFE74FF47A70FDF708FCFA
:1052000009A94846FFF744FF09A90546002011AC4B
:105210000026FFF73DFF50B1042E31D044F8040BB7
:1052200009A900200136FFF733FF0028F4D126AB8F
:1052300003EB860343F8540C75B170492846FBF71D
:1052400003F9002840F0BD81002E00F072816B4A06
:105250006B490098FDF7ACFE634B5B6993F8213016
:105260005B077FF570AF202383F311880021654829
:10527000FBF7F6FF0020FCF703FF27B0BDE8F08F37
:1052800061490098FDF794FE00231593E4E70DF1C2
:105290009706B045BFF460AF584B88F8007093E8AC
:1052A00003000DF1280B0A908DF82C105846494642
:1052B00002F064FC019BD3F810A05A680392584591
:1052C0000AF1040308BF9B460493504B08BFCAF879
:1052D00000004946184618BFD34602F04FFC4B4B1E
:1052E000039A98425B4608BF43F8040BC2B1D2F858
:1052F00000B0BBF1000F13D0039405955C46154632
:105300009B462046494602F039FC844208BF4BF8D0
:10531000044B55F8084F002CF3D1039C059D5B46C8
:10532000029A1A60DAF800B0BBF1000F3FF414AF34
:10533000DAF80430A8EB09010391002B00F070812A
:105340009BF800C0BCF1000F00F0B88105940795F0
:105350006446039DDDF810C0C64600215A5CA24297
:1053600008BF624605D13BB152F8043F585CA042E9
:10537000F9D0002B40F0F080B64505D28D42DCBF5D
:105380000EF8014BDAF800B001311BF80140002C97
:1053900000F03281DAF80430E0E7012249460CA837
:1053A000FFF72EFA061E39D18DF8586004234622E5
:1053B00017492046FDF7FCFD16492046FDF7F8FD8C
:1053C000002515494A462046FDF7F2FD09EB06087F
:1053D0002F46C1E6002249460CA8FFF711FA061E27
:1053E0007FF7D1AEE2E700BF2C1A00208C810008C5
:1053F0005C7F000894810008A8810008E88100080B
:10540000C07E0008D81E0020D0810008C48100089A
:10541000B0810008BC810008C0810008FFF6B3AE6F
:10542000C4E7012249460CA8FFF7EAF9061E78D125
:105430008DF8587004234622A3492046FDF7B8FD95
:10544000A2492046FDF7B4FDA1494A46204609EB92
:105450000608FDF7ADFD7FE63A4649460CA8FFF782
:10546000CFF9061E7FF778AEE4E720469949FDF7AD
:105470009FFD0D9DA8EB09046B1E9C424DDA631E37
:1054800009EB030219F8031020290AD1002C03DCD0
:1054900043E0002B41D0013B12F8011D20291C469E
:1054A000F7D0002C39DD0F9E0C980E9BF21A991B39
:1054B00001329E42A5EB020201F1FF3109DBA2425B
:1054C00009DCC25C134401339D42D8BF5B1B0E93C1
:1054D000ECE7A142F5DDAD1B013D0136A5423044AC
:1054E00022DC2A464946FAF711FF0C98621B09EBA9
:1054F0000501FAF70BFF0F9B0C9AD4540F9A0D9BE2
:10550000013414449C420F94A8BFE41A0C9B029AE5
:10551000A8BF0F941A5500231093029B88F80030FF
:105520006EE6FFF619AE85E722464946FAF7EEFE2B
:10553000E1E7009C68492046FDF73AFD674A684963
:105540002046FDF735FD069B002B40F09880614911
:105550000098FDF72DFD7FE6059C079D09EB010BEB
:10556000029B8BF8003000293FF4F6AD019ADAF87F
:1055700004301668002B4CD056493046FDF718FD14
:10558000DAF8002072B1DFF86481DDF810A001E0E4
:105590000AF1040A41463046FDF70AFDDAF8002018
:1055A000002AF5D14B493046FDF702FD4D49304602
:1055B000FDF7FEFC46494A463046FDF7F9FCD84661
:1055C000CAE546482946FAF73FFF002851D0069C15
:1055D000002C68D0206820B965E054F8080F002836
:1055E00061D02946FAF730FF0028F6D163680098A9
:1055F000314611AA98472FE6A44609F801C0019A3E
:10560000DAF80430079D059C166809EB010B002BA6
:10561000B2D142462E493046FDF7CAFCD8469BE53A
:105620005846CDF814B0FBF78BF809EB000BD845C2
:105630008646014645D2039B059AA3EB080C4346D8
:1056400003E0B3428CD0DAF8002003EB0C00125CCC
:1056500003F8012B5B45F4D1B34581D20EF1010E65
:1056600020238BF80030029B09F80E3009EB0E0B5B
:105670007CE70098314611AAFEF74AFDECE5069C4E
:105680002268002A3FF463AF154D009E294630463C
:10569000FDF78EFC54F8082F002AF7D10D49009829
:1056A000FDF786FCD8E5009C09492A462046FDF70F
:1056B0007FFC0D492046FDF77BFCCDE58DF858C0F9
:1056C0004AE5C346CAE700BFB0810008BC810008B4
:1056D000C08100085C7F0008F0810008C4810008D8
:1056E00000820008A881000804820008CC8100081C
:1056F000EFF30983203383F30988002383F31188B0
:10570000704700BF00000000000000000000000023
:10571000202383F31188FCF7B3BC00BF0000000016
:105720000D4A10685169036830B401245A6000259D
:1057300080F820408C681360506181F8205000E0B0
:105740001B689A689442FBD35A6830BCC1E90032A6
:1057500011605960FAF7C4BD2C1A00200000000047
:1057600070B51B4D01466E69202383F311880068D4
:10577000CB68B363884225D0F46B4BB11A6893426F
:1057800003D09268944238BF1446DB68002BF5D1F1
:105790000368826BB4600B605960C1E902028163E7
:1057A000FBF71EFD2A686B6992689B689A4203D8D2
:1057B000002383F3118870BDFFF7B2FF002383F34A
:1057C000118870BD00238360002383F3118870BDAE
:1057D0002C1A002000000000000000000000000063
:1057E000202282F3118890F82230013B80F8223089
:1057F000036A03F0FF130F2B03D0002383F31188F8
:105800007047D0E9031370B5D960C46800212361E3
:1058100081F3118890F8213003F00303012B0CD0A1
:10582000022B00D070BD036CC06982F311881A6826
:105830000260186081F3118870BDC56955E90243A3
:105840000733DB0804F10C0645F8043C0434304609
:10585000FCF7AEFBA5F1080123469C421A6801D073
:10586000994202D91AB1914201D31346F5E755F88E
:10587000044C45F8082C196055F8080C621C01EB23
:10588000C204A04211D05868421C03EBC2029142EC
:1058900004D03046BDE87040FFF762BF55E9021200
:1058A0000132104419605860F3E7D0E90004224443
:1058B00045F8080C45F8042CE5E700BF000000009F
:1058C000244B25481A6962F01F022DE980481A61AD
:1058D0001A6902F01F021A614FF0FF341A695A69FF
:1058E0005C6100215A6959615A691A6A62F08052F2
:1058F0001A621A6A02F080521A621A6A5A6A5C6262
:105900005A6A59625A6A1A6C42F080521A641A6EC4
:1059100042F080521A661A6E026842F48072026087
:105920001A6F02F44072B2F5007F8FB003D04FF4CB
:1059300080321A671967084C08486268084B0949A1
:1059400022F40072002762600246076003F1C00083
:105950000CE000BF0038024000700040041C002032
:10596000908200081060024053F80C1C0F600C334A
:105970009842576002F10802F6D1C24EDFF88CB3AC
:10598000C14BC249C248C34DCBF804704FF0600C04
:105990004FF0FF3A4FF0400EC3F808A04760C3F83D
:1059A0000CA0C1F808A0C560C1F80CA04FF4807528
:1059B00086F806C34FF40071C6F880E1C6F800E02F
:1059C0004FF0800E86F807C34FF48063C6F880E17D
:1059D000C6F800E086F808C3C6F88051356086F83E
:1059E00009C3C6F8801131604FF4000186F80AC37C
:1059F000C6F88031336086F817C3C6F8801131606D
:105A00000BF10C0186F828C3DFF80483C6F8845133
:105A1000DFF80093CBF80C1075609D4D9E4A9F4CAB
:105A2000CBF81010012348462B709D498BF80030AD
:105A3000CBF8147088F800304FF0040388F8103069
:105A4000CBE90B77CBF81C70CBF83440C8F8047066
:105A5000944CC8F80C70C8F81820FBF759F8924A13
:105A600092499348C9F85422FBF752F8904B914D54
:105A7000DFF8A492904A9149C3F854222046FBF7DC
:105A800047F801238E4A2B7089F80030116C8D483D
:105A9000C4F8540219431164116E6F601943116602
:105AA0008949126E8A68894CAF6000F5E050E86160
:105AB0008748A8623030E8624FF0A040C9F854002F
:105AC0001A4384486F61C5E90877C9E90177C9F8C5
:105AD0001C70C9F82870C9F82070C9F82C70C9F872
:105AE0002470C9F83070C9F858008A6005F10C00BC
:105AF0004FF08042C5E9030042F2CF009062C2F845
