:100000000C94D4000C94E6000C94E6000C94E600EA
:100010000C94E6000C94E6000C94E6000C94E600C8
:100020000C94E6000C94E6000C94E6000C94E600B8
:100030000C94E6000C94E6000C94E6000C94E600A8
:100040000C94E6000C94E6000C94AB020C94DD02D8
:100050000C94E6000C94E6000C94E6000C94E60088
:100060000C94E6000C94E6001B5B306D0040001B16
:100070005B353B33326D001B5B4B001B5B31440037
:100080001B5B306D001B5B33326D000D0A001B5B88
:10009000306D000D0A0052454144592E2E2E0D0A96
:1000A000000D0A002B2D2D2D2D2D2D2D2D2D2D2D1F
:1000B0002D2D2D2D2D2D2D2D2D2D2D2D2D2B0D0AB5
:1000C000007C20524F42455254204F46464E4552E6
:1000D0002C2032303232202020207C0D0A007C205F
:1000E000525555442056414E2046414C4945522CCC
:1000F000203230313720207C0D0A007C20464952C6
:100100004D574152452056455253494F4E20322EAD
:10011000302020207C0D0A007C2D2D2D2D2D2D2D05
:100120002D2D2D2D2D2D2D2D2D2D2D2D2D2D2D2DFF
:100130002D7C0D0A001B5B33326D001B5B306D00A4
:100140002020202020207C0D0A001B5B33326D0014
:100150001B5B306D004150504C452031204D494EC5
:1001600049001B5B313B33326D001B5B306D007C03
:10017000202020202020002B2D2D2D2D2D2D2D2D2C
:100180002D2D2D2D2D2D2D2D2D2D2D2D2D2D2D2D9F
:100190002B0D0A001B5B33326D001B5B306D001BA7
:1001A0005B48001B5B324A0011241FBECFEFD8E032
:1001B000DEBFCDBF22E0A0E0B1E001C01D92AD30B6
:1001C000B207E1F70E9419030C9443030C9400005A
:1001D0008B3C910511F48BE190E09C01215432405D
:1001E0002A31310510F4805492409C012156310986
:1001F0002A31310508F480970895CF93C82F8D30A8
:1002000019F48AE00E9469028C2F0E946902CF9142
:10021000089529B12C7130E03595279535952795AE
:10022000359902C090E001C098E086B18071282B1A
:10023000292B339902C090E001C090E2922B3299B1
:1002400002C080E001C080E4892B08958091000104
:10025000882351F08BE790E00E949C0287E790E0B2
:100260000E949C021092000108958091000181116A
:100270000FC08FE690E00E949C028DE690E00E9405
:100280009C0288E690E00E949C0281E0809300013D
:1002900008958FE384B982E087B981EE8AB960E07E
:1002A00072EC81E090E00E94160283EA91E00E94E5
:1002B0009C028FE991E00E949C028AE991E00E94F1
:1002C0009C0284E991E00E949C0287E791E00E94F1
:1002D0009C028FE691E00E949C028AE691E00E94D7
:1002E0009C0282E691E00E949C0285E591E00E94DA
:1002F0009C0280E591E00E949C028AE491E00E94C9
:100300009C0280E491E00E949C028BE391E00E94B9
:100310009C0285E391E00E949C0288E191E00E94AA
:100320009C028BEF90E00E949C028EED90E00E9478
:100330009C0281EC90E00E949C0284EA90E00E9482
:100340009C0281EA90E00E949C0286E990E00E9473
:100350009C0283E990E00E949C028EE890E00E945B
:100360009C020E9435012D980895CF93309B22C0A6
:100370000E940901C82F419885E08A95F1F7000095
:10038000419ACD3029F40E9426018BE890E00DC0FF
:10039000C0326CF00E94260185E890E00E949C0229
:1003A0008C2F0E94690280E890E00E949C02CF910D
:1003B0000C943501CF9108952C9890E00E94E800AC
:1003C000803648F580FF02C05D9A01C05D9881FFCC
:1003D00002C05E9A01C05E9882FF02C05F9A01C0AF
:1003E0005F9883FF02C0289A01C0289884FF02C04A
:1003F000299A01C0299885FF02C02A9A01C02A982B
:1004000086FF02C02B9A01C02B982C9A85E08A9512
:10041000F1F700002C980C94B5010E944002892B42
:1004200021F00E9445020C94DC010895CF93DF93E4
:100430009B01AC01C1ECD0E01882E1E0F1E0158253
:1004400014821382128211821082E7E8F1E0158291
:100450001482138212821182108260E874E88EE1A5
:1004600090E00E942103822F81708150369527955C
:10047000280F2093C40088E98883DF91CF910895E5
:100480008091050190910601089580910501909158
:100490000601892BD1F32091030130910401332708
:1004A000F901EF5FFE4F8681F8944091050150916C
:1004B000060141505109509306014093050178947B
:1004C0002F5F3F4F2F773327309304012093030191
:1004D000089520918B0130918C0120383105C8F7A7
:1004E00020918701309188013327F901E957FE4FA8
:1004F0008683F89480918B0190918C010196909362
:100500008C0180938B0188EB8093C10078942F5FDE
:100510003F4F2F7733273093880120938701089529
:10052000CF93DF93EC018991882319F00E9469022F
:10053000FACFDF91CF910895CF93DF93FC0184919F
:10054000EF012196882321F00E946902FE01F7CF76
:10055000DF91CF9108951F920F920FB60F92112441
:100560002F938F939F93EF93FF932091C6008091D9
:1005700005019091060187FD16C08F5F90E0909372
:100580000601809305018091010190910201992754
:10059000FC01EF5FFE4F268301968F77992790939A
:1005A000020180930101FF91EF919F918F912F9113
:1005B0000F900FBE0F901F9018951F920F920FB6BD
:1005C0000F9211242F933F938F939F93EF93FF9359
:1005D00080918B0190918C01811104C088E98093F6
:1005E000C1001CC02FEF280F822F90E090938C0148
:1005F00080938B018091890190918A019927FC0158
:10060000E957FE4F36813093C60001968F779927C0
:1006100090938A0180938901222301F3FF91EF9146
:100620009F918F913F912F910F900FBE0F901F9030
:1006300018950E9449012D9A0E94B5010E940D0251
:10064000FBCFA1E21A2EAA1BBB1BFD010DC0AA1FE6
:10065000BB1FEE1FFF1FA217B307E407F50720F02B
:10066000A21BB30BE40BF50B661F771F881F991FA6
:100670001A9469F760957095809590959B01AC01EF
:0A068000BD01CF010895F894FFCFEB
:00000001FF
