:10E000008E07FF0F863B97C097C3860097C697C7BA
:10E01000B72001B7200386FFB72000866FB7200224
:10E020008604B72001B7200386FFB7200086BFB75C
:10E03000200286019788C6088619BDE1EB8602C6D4
:10E0400053BDE20DCEE8FABDE344CEE926BDE3447C
:10E05000CE6C80B620028480271E0926F6B62002E8
:10E060008401270AB6200284FEB7200220E2B620EF
:10E07000028A01B7200220D8BDE281BDE237968135
:10E0800081582605BDE1AF20C781422609CEEA911D
:10E09000BDE3447EEB00816226037EF09C814E2628
:10E0A0000A860CC653BDE20D7EE1A68164260EBD34
:10E0B000E2E8CEEA31BDE344BDE368209381442623
:10E0C0000EBDE2E8CEEA31BDE344BDE3C220A98142
:10E0D000532622BDE2E8251ACEEA31BDE344BDE273
:10E0E000FE250FDE82A70008DF828620BDE2377E94
:10E0F000E0DE7EE1A681462606BDE44C7EE1A681F7
:10E10000472612BDE2E82539CEEA31BDE344DE827E
:10E11000AD007EE1A681672608CEC000AD007EE19D
:10E12000A68154261FBDE2E82517CEEA31BDE3449F
:10E13000BDE2A8810D270ADE82A70008DF827EE10A
:10E14000307EE1A6814C2606BDE48A7EE1A68141AF
:10E150002618CEEA55BDE344BDE2FE250A9782BDEE
:10E16000E2FE9783BDE67A7EE1A6815A260AC614AE
:10E170008619BDE1EB7EE1A6813A260CBDE3E2CE35
:10E18000EA31BDE3447EE07881402609CEEA8DBDC8
:10E19000E3447EE078816D2704814D260FCEE92689
:10E1A000BDE3447EE050CEEA34BDE3447EE0507AE5
:10E1B0002000CE6C80B62002848027050926F62038
:10E1C000EE3937C600BDE1E7BDE1E7BDE1E7C6389E
:10E1D000BDE1E74A810026EB333937C6A4BDE1E74C
:10E1E0004A810026F633395A26FD393736B62002E1
:10E1F00084FEB720023236BDE1C2B620028A01B7E2
:10E2000020023236BDE1C25A26E332333997917A81
:10E2100000912722B6200284DFB7200237BDE1E754
:10E2200033B620028A20B7200237BDE1E7337A00F7
:10E230009226E17EE20F3936379780B620028A4077
:10E24000B72002C60837C608BDE1E73396800C4602
:10E250009780B6200225048A40200284BFB720029E
:10E2600037C607BDE1E7335A26E2B6200284BFB7BE
:10E270002002C67CBDE1E7333239B6200284804DEE
:10E280003937B6200284804D26F8C615BDE1E7C6B1
:10E2900008B6200249968146978137C609BDE1E755
:10E2A000335A26ED96813339BDE281BDE23796813E
:10E2B00039BDE281810D272E811B272A81302BF168
:10E2C00081672AED813A2A037EE2D7844F81472A6B
:10E2D000E0814023DC97819688840127059681BDE3
:10E2E000E23796810C390D39CEEA45BDE344BDE2F3
:10E2F000FE250A9782BDE2FE250397830C39BDE215
:10E30000B12518BDE3364848484884F09789BDE2F6
:10E31000B12508BDE3369A8997890C39BDE281BDE4
:10E32000E3364848484884F09789BDE281BDE3362A
:10E330009A8997890C3981412A03840F39803739AA
:10E34000BDE23708A600810026F6394444444484DF
:10E350000F8A30813923028B07BDE237393716BD6A
:10E36000E34B17BDE34F33399682BDE35D9683BD22
:10E37000E35D8620BDE237BDE237DE82C610A6002F
:10E38000BDE35D86205AC1082602862DBDE237080E
:10E39000C10026EABDE237BDE237BDE237DE82C604
:10E3A00010A60081202A02862E817F2B02862EBD98
:10E3B000E237085AC10026E9860ABDE237860D7E9B
:10E3C000E23786109791BDE36896914A8100271144
:10E3D00097910C96838910978324EB7C00827EE3CF
:10E3E000C6398600979397919788BDE31C978C97C1
:10E3F00091BDE31C9782BDE31C9783BDE31C978D01
:10E40000DE82BDE31C97899B9397939689A70008AA
:10E4100096914A8100270597917EE402BDE31C97FF
:10E420008ED693968C1B16968D1B1696821B16966F
:10E43000831B40979316D18E26037EE44286457E49
:10E44000E444862ABDE2378601978839CEEA55BD75
:10E45000E344BDE2FE25329782BDE2FE252B978381
:10E46000CEEA6DBDE344BDE2FE251E979ABDE2FEF5
:10E470002517979BCEEA85BDE344BDE2FEDE82A769
:10E48000009C9A2704087EE47F39CEEA55BDE34418
:10E49000BDE2FE979ABDE2FE979B86FF979ECEEA6D
:10E4A0006DBDE344BDE2FE979C24078610979E7ED7
:10E4B000E4BDBDE2FE979D24048610979EDE9AA6D9
:10E4C000009794CEEA31BDE344BDE61A969484C029
:10E4D00081002606BDE6637EE4E7BDE645810026B1
:10E4E00015CEFC20BDE6488100260B863FBDE237F5
:10E4F000BDE2377EE5AC8620BDE237BDE5ADBDE5CA
:10E50000C4969ABDE35D969BBDE35D8620BDE23770
:10E510009694BDE35D8620BDE23796978403810023
:10E52000271CDE9A8101270B08A600BDE35D86202B
:10E53000BDE23708A600BDE35D8620BDE237D69771
:10E54000C403860410168620BDE237BDE237BDE263
:10E55000375AC10026F0CE00A0BDE344DE9A96975C
:10E560008403810027108101270608A600BDE35D12
:10E5700008A600BDE35D08DF9A96978430813026B7
:10E580000A862CBDE2378658BDE237969E81FF276A
:10E590000A4A979E810027147EE4BD969C919A2E8C
:10E5A00008969D919B240220037EE4BD39CE00A0F5
:10E5B0008620A700088C00AF26F88600A700CE00B2
:10E5C000A0979839CE00A0DF98DE95A60008DF95C9
:10E5D000DE98A70008DF988C00A426ED9697840C9F
:10E5E00081042607864197A37EE5F38108260486E9
:10E5F0004297A39697843081002605860097A63916
:10E600008110260D862397A6862497A7860097A8B3
:10E6100039862497A6860097A739CEFB00D6945456
:10E62000545454C40FBDE8E1A600979784038100B9
:10E630002712CEFB10D694A60081002707081126CA
:10E64000F67C009739CEFB20DF9508080808C60441
:10E65000A6009194270C085AC10026F4A600810058
:10E6600026E639CEFC88DF9508080808A6009194B4
:10E67000270708A600810026ED398600979ECEEA7E
:10E6800031BDE3449682BDE35D9683BDE35D8620A4
:10E69000BDE237BDE5ADBDE8B1DF98969981A32411
:10E6A0000139BDE876BDE83DBDE7B181FF26037EB7
:10E6B000E74CCEFC88C605BDE7F1810026618600E7
:10E6C000979ECEFB20C608BDE7F18100271DD69797
:10E6D000C1022605A6057EE71FC1042605A6067E03
:10E6E000E71FC1082639A6077EE71F8600979ECE42
:10E6F000FC20C608BDE81381002751D6A3C14126DE
:10E7000005A6067EE71FC1422605A6077EE71FD69F
:10E7100097C1042605A6047EE71FA6057EE71F977E
:10E7200094DE829694A700DF9C8620BDE2377C00B1
:10E7300099D699C1AF25F49694BDE35D8620BDE2DC
:10E7400037BDE778BDE753DF827EE67ACEEA3BBD90
:10E75000E344390896B581B026013996B0A7000880
:10E76000BDE35D8620BDE23796B581B427013996B9
:10E77000B1A70008BDE35D39D6B5C1B02601399611
:10E78000B0BDE3364848484884F097B096B1BDE341
:10E79000369BB097B0C1B427013996B2BDE3364875
:10E7A00048484884F097B196B3BDE3369BB197B122
:10E7B0003996B581B0260586007EE7E696978104F6
:10E7C00026013996A48123260B96A58124261D8631
:10E7D000017EE7E696A4812426128602979796B5D5
:10E7E00081B42605860897973996973986FF9797BB
:10E7F00039BDE8138100270896A3A1032605A604C6
:10E800009794390CBDE8E1A600810027F37C009EB7
:10E810007EE7F1BDE82C2605A603979439BDE8E113
:10E82000A600810027F47C009E7EE81396A0A1003C
:10E83000260A96A1A101260496A2A1023986B097C4
:10E84000B5860097AFCE00A308A6008100272681D9
:10E850002F23F58147241EDF84D6B5C1B4270FCE00
:10E860000000BDE8E1A7007C00B58600A701DE84BA
:10E870008C00B026D33986009797CE00A4A60081DD
:10E880005826048604979781202606BDE8A27EE8D4
:10E890007D088C00AF26E696A3810026048620978B
:10E8A000A339DF84A601A700088C00AF26F6DE841A
:10E8B00039CE00A0BDE281810D2721817F260C8CFD
:10E8C00000A027F009BDE2377EE8B4815A2B02840C
:10E8D0005FBDE237A700088C00B026D88600A700ED
:10E8E0003937DF86DB87D78724037C0086DE8633D3
:10E8F000397C00C726037C00C63B0D0A2A2A203635
:10E900003830302043505520426F61726420524F9E
:10E910004D205630332E342031312F33302F3137C4
:10E92000202A2A0D0A000D0A202A2A2036383030E3
:10E93000204D5055204D61696E204D656E75202A21
:10E940002A0D0A2064202044756D70203136204243
:10E95000797465732020202020202020442020442A
:10E96000756D70203235362042797465730D0A203A
:10E97000532020536574204D656D6F7279202020DF
:10E98000202020202020202046202046696C6C205A
:10E990004D656D6F72790D0A20542020546578748E
:10E9A00020746F204D656D6F7279202020202047E4
:10E9B0002F672020457865637574650D0A20422F06
:10E9C0006220424153494320202020202020202043
:10E9D0002020202020204E2020426565700D0A2036
:10E9E0004C20204C697374284469732D41737365FE
:10E9F0006D626C6529202020412020417373656D74
:10EA0000626C650D0A205A2020426C696E6B204CA6
:10EA100045447320202020202020202020204D2F1E
:10EA20006D2052652D446973706C6179204D656E5F
:10EA3000750D0A000D0A4F4B0D0A000D0A45525282
:10EA40004F520D0A0020456E746572204164647255
:10EA50006573733A000A0D20456E74657220537415
:10EA600061727420416464726573733A000A0D2008
:10EA7000456E74657220456E642020204164647286
:10EA80006573733A002056616C75653A002424243E
:10EA9000000A0D20204E414D204D4943524F202069
:10EAA0004D4943524F4241534943202056322E3361
:04EAB000410D0A000A
:10EB0000CE01204FA700088C028C26F8CE02B0FF61
:10EB1000012AFF012CFF012ECE077FFF013ACE060E
:10EB2000FFFF0146CE028CFF0151CE0169FF015368
:10EB3000CE0200FF0155CE0159FF0157CE0200FF62
:10EB40000199CE01B0FF01ACFF01AE7EF0765255C7
:10EB50004E1EF1054C4953541EF13B4E45571EF0D5
:10EB6000765041541EF1815359531EF19150454541
:10EB70004B1EF1D1504F4B451EF1EA474F535542C2
:10EB80001EF32D474F544F1EF358474F20544F1E2E
:10EB9000F35853495A451EF5A25448454E1EF78D69
:10EBA0005052494E541EF4714C45541EF57D494E49
:10EBB0005055541EF3A949461EF775454E441EF0A4
:10EBC0009C52455455524E1EF36D44494D1EF5CC92
:10EBD000464F521EF6954E4558541EF71352454D5A
:10EBE0001EF5C650415553451EF387201EF57D0D79
:10EBF0000A52454144591E231E1E10161E1E1E4554
:10EC000052524F5223201E20494E204C494E45203F
:10EC10001E863F8D4ECE01B0C60A8D4D8100260660
:10EC20005A26F77EF09C811B2726810D272B810A0F
:10EC300027E8811527E4811327E0817F26088C01CE
:10EC4000B027D70920D48C01F727CFA7000820CA06
:10EC50008D2DCEEBF78D2120BC861EA700FF01AEC7
:10EC60008D1D39BDF80E7EE237BDE281811B26F68F
:10EC7000398D05200A8DEC08A600811E26F7398DF6
:10EC800010CEEC898DF28D24390D0A1EFFFFFFFF97
:10EC90001EFF0138FE013A0909FF013A36B6013874
:10ECA000A700B60139A70132FE013839FE013AEE5C
:10ECB000007C013B7C013B3936378DD5BDEE6CFEC7
:10ECC00001510808FF015109EE00A700E7018DDCA2
:10ECD0003332398DBC3637FE01510808FF01510926
:10ECE000EE00A600E601BDEE5933328DBF39FE01BC
:10ECF0002AFF012CFE012E2003FE0124BC012C273B
:10ED0000058D040820F639A6007F014208E60008B8
:10ED10007F014CBDF5358D26A60008BDEC91CEEBEC
:10ED20004EFF014AB7014BFE014A0909A600811EA8
:10ED300026F9080808BDEC78BDECAC7EEC7136868F
:10ED400020BDEC6332390808A60081442674BDEC6E
:10ED500091B6013CF6013DCE0000E901A90008088A
:10ED60008C013C26F5847FB7013CF7013DFF012073
:10ED7000B60120F601217EEE3ABDEFFABDF80EBDD8
:10ED8000EE4324013981522606E601C14E27B7BD64
:10ED9000EC918040B7015648BB0156B70156FE01C1
:10EDA00055B60155F601566D0226037EEE3AEE0089
:10EDB000FF013E0808FF0140BDECACBDF00081281A
:10EDC00027037EF3FB08BDEEC3BDEC91BDEE6C4D99
:10EDD00027037EF620FE013E5D27F7E10022F3A621
:10EDE00001B7014F2734FE01405A270AB6014F08E8
:10EDF000084A26FB20F3FF0140BDECACBDEFFA81D1
:10EE00002C26BF08BDEEC3BDEC91BDEE6C4D26C2F5
:10EE1000FE013E5D27BCE10122B8FE014008085A10
:10EE200026FB0909FF0140BDECACBDEFFA812926A4
:10EE300091BDEC91B60140F60141BDECAC08BDEED0
:10EE4000590C3981412B0C815A2F0A81302B0481B6
:10EE5000392F020D390C398D13FF0128FE0151E7BE
:10EE60000009A70009FF0151FE012839FF0128FE12
:10EE7000015108A60008E600FF0151FE012839BD36
:10EE8000EFFABDED792504BDECD339BDF4002501C1
:10EE9000398128260C088D2BBDEFFA81292602081E
:10EEA00039C60D7EF0D08DD7BDEFFA812A2607082E
:10EEB0008DCD8D4120F2812F2608088DC2BDEF4BEC
:10EEC00020E639BDEFFA812D2608088DD9BDEF96D1
:10EED0002007812B2601088DCDBDEFFA812B260856
:10EEE000088DC3BDEFAC20F1812D2608088DB7BD7C
:10EEF000EFAA20E5398D32860FA7005F4F640366C5
:10EF000004240BEB02A901240586027EF0D06802DE
:10EF100069016A0026E74D2BF07D014C2A03BDEF05
:10EF2000A3E704A703BDECAC39BDEC914FFE015142
:10EF30006D012A048D6086800808FF01516D012A49
:10EF4000048D538B80B7014C0909398DDC6D012686
:10EF5000096D022605C6087EF0D086014C6802695C
:10EF6000012B04811126F5A700A603E6046F036FA9
:10EF700004E002A2012407EB02A9010C20010D69A3
:10EF8000046903640166026A0026E67D014C2A02D8
:10EF90008D04BDECAC393637BDEE6C8D06BDEE5937
:10EFA0003332394353CB018900398DEABDEE6CF71A
:10EFB0000150B7014FBDEE6CFB0150B9014FBDEEE2
:10EFC000590C39B60132F60133F00131B201302566
:10EFD0001EFE012EBDEE57E001A200251526035DA1
:10EFE0002711088D1B811E26FA08BC012A26E5FE82
:10EFF000012A0DFF012CBDEE6C39A60081202603ED
:10F000000820F739BDF41C2405C6077EF0D0BDEEFC
:10F0100057B70130F70131FF01AC39FE0134A600CA
:10F0200008811E26F9FF0136398DCF09FF0126CE52
:10F03000EB4DB60126B70294B60127B7029508BD7D
:10F04000F88AE600C11E27131127F3088CEBEC2782
:10F050001BE600C11E26F4080820D708FF0128FE81
:10F060000294FF01ACFF0134FE012839CE01B0FF4C
:10F070000134CEEBAC39FE012EFF012AFF012CFF3B
:10F080000148094F08A700BC014626F84FB70130D8
:10F09000B70131B70142FE0130FF01328E07FFCECA
:10F0A000EBEFBDEC718E07FFCE077FFF013A7F01CA
:10F0B00042BDEC52CE01B0BDEFFAFF01ACBDEE4B4C
:10F0C00025037EF200811E27DCBDF029EE006E00D4
:10F0D0008E07FFBDEC7FCEEBFFBDEC784FBDEE5948
:10F0E000BDF519CEEC07BDEC785FB601368101267F
:10F0F0000586007EF0FDFE0136A600E601BDF53571
:10F10000BDEC7F2097FE012EFF0136CE0159FF0195
:10F1100057CE0169FF0153CE077FFF013AFE012A56
:10F12000FF01484F0908A700BC014626F8CE02009F
:10F13000C64EA700085A26FA7EF2FDCEEBFABDECC9
:10F1400071FE0134BDEFFA811E272FBDF41CFF01B3
:10F1500034BDEFD1FF0124FE013436BDEFFA811E2C
:10F16000322605BDEE59200408BDF41C4FC601BD72
:10F17000EFAFBDEFD1BDECF92003BDECEE7EF5C6DF
:10F1800001BDF01BCEF2FDFF01280F8E07FF7EE0D0
:10F1900000BDF820BDF832A605BDF872B701D2A6B1
:10F1A00007BDF872B701D3B601D2F601D3FE01D084
:10F1B000AD00B701D2F701D3BDF820A605F601D204
:10F1C000BDF87EA607F601D3BDF87EBDF01B7EF22A
:10F1D000FDBDF820BDF832FE01D0E600F701D2BD3A
:10F1E000F820A605BDF87E7EF1CBBDF820BDF83233
:10F1F000A605BDF872B701D3FE01D0A7007EF1CB02
:10F20000BDF004BDEFC32416FE01ACBDEFFA811EB4
:10F210002726FE012CBC012A27218D69201AFE0118
:10F22000ACBDEFFA811E260CFE012ABC012E270878
:10F230008D1320048D0F8D4D7EF0A58D48FE01307D
:10F24000FF013220F3FE012AFF0294FE012CC602C8
:10F250000808BDF8A2BDF8A2A600BDF8A2085C810E
:10F260001E26F5FE0294FF012AFF0148FE012CBC78
:10F27000012A2710FF0128BDE8E1A600FE0128A70A
:10F28000000820EB39FE01ACBDF029FF014AF60170
:10F29000AFF001ADCB04F701220CFB012B8600B9C6
:10F2A000012AB101462251F7012BB7012AFE012A9A
:10F2B000FF0148BC012C271909A600FF0120F70215
:10F2C00090F60122BDE8E1A700FE0120F6029020A1
:10F2D000E2FE01AC09FF0294FE012CB60130A7004A
:10F2E00008B60131A70008B6014BA70008BDF88A8F
:10F2F000A70008811E26F639C60E7EF0D0FE013624
:10F30000BC012A26037EF09CB60136810127F6084F
:10F3100008A60008FF0134CEEB4EFF014AB7014BAF
:10F32000CE028CFF0151FE014AEE006E00FE013656
:10F33000FF0120BDF01BFE01578C01692605C6099F
:10F340007EF0D0B60136A70008B60137A70008FF47
:10F350000157FE0120FF0136FE0134BDEEC3BDEFB3
:10F36000D12405C6077EF0D0FF01362090FE01575C
:10F370008C01592605C60A7EF0D00909FF0157EE17
:10F3800000FF01367EF2FDCEEBE3BDEC78BDED3E35
:10F39000FE0136A60008E60008BDF535BDEC698122
:10F3A0000D26F9BDEC7F7EF5C6B601342604C60CE9
:10F3B0002024BDEC11CE01B0FF01ACFE0134BDED47
:10F3C000792530FF0134FE01AC8D45241409A600D7
:10F3D000811E2705C6027EF0D0BDEC11CE01B02003
:10F3E000E8BDECB808FF01ACFE0134BDEFFA0881BE
:10F3F0002C27CB097F0142811E27ABC6037EF0D0AC
:10F400008D1A2506BDEE6C4D2A020D39BDEE593917
:10F41000BDEFFAB7014C08812D2704097F014CBDCF
:10F42000EFFABDEE4B240139094F5F0836A600BD47
:10F43000EE4B252F8030B7014E3258492520F70179
:10F4400050B7014F5849251658492512FB0150B9AC
:10F45000014F250AFB014E890025037EF42BC602CD
:10F460007EF0D0327D014C2703BDEFA3BDEE590CD9
:10F4700039FE0134BDEFFA8122261808A600088162
:10F4800022275C811E2604C6042035BDEC63BDF531
:10F490000720E9811E261509A60008813B2706BD25
:10F4A000EC7F7F014208FF01367EF2FD8154262960
:10F4B000E601C14126230808A60081422705C60BA4
:10F4C0007EF0D008BDEEC3BDEE6CF001422310BD4E
:10F4D000ED3E8D335A26F82006BDEEC3BDF519BDAD
:10F4E000EFFA812C261108B6014216C4F810270C39
:10F4F000BDED3E8D1220F0813B2604087EF4748120
:10F500001E2790C60620B936B601424C81722604E9
:10F51000BDEC7F4FB701423239BDED3E8DE986FF2C
:10F52000B7014CBDEE6C4D2A0CBDEFA336862DBD48
:10F53000EC638DD332BDEC91CEF5737F014EE001CB
:10F54000A20025057C014E20F5EB01A90036B6018D
:10F550004E260A8CF57B27057D014C260A8B307FD1
:10F56000014CBDEC638DA03208088CF57D26CCBD26
:10F57000ECAC39271003E80064000A0001FE0134F6
:10F58000BDED792405C60C7EF0D0BDEFFA08813DB3
:10F590002704C60620F1BDEEC3811E26F5BDECB8DA
:10F5A0002024F60149B60148F0012FB2012EBDF525
:10F5B00035BDED3EF60147B60146F00149B20148BE
:10F5C000BDF535BDEC7FBDF01B7EF2FDFE0134BD07
:10F5D000EFFABDEE4324037EF6798040B7019A48E6
:10F5E000BB019AB7019ABDEC91FE01996D00261EF0
:10F5F0006D01261A6D022616B60149A701B601480B
:10F60000A700A702BDECACBDF00081282705C60508
:10F610007EF0D008BDEEC3BDEE575D27034D270435
:10F62000C60F20EC8D5AA600812C261208BDEEC311
:10F63000BDEE575D27EA4D26E78D45BDEEF54FC679
:10F6400002BDEE59BDEEF5A600812926C108F601DE
:10F6500049B60148BDEFAF4FC602BDEFAFBDEE6C7E
:10F66000B1014623037EF2F8B70148F70149BDEF27
:10F67000FA812C2604087EF5CF811E26917EF5C6E0
:10F68000BDEC91FE0199EE006D0027030820F9E71B
:10F6900000BDECAC39FE0134BDED7924037EF58567
:10F6A000FF0134BDEE57FE01538C01992605C610AB
:10F6B0007EF0D0A70008E70008FF0153FE0134BD2B
:10F6C000EFFA08813D27037EF592BDEEC3BDECB88D
:10F6D00008815426F2A60008814F26EBBDEEC3BD7B
:10F6E000EE6CFF0134FE0153A70008E70008FF019C
:10F6F00053FE0134A600811E26CD08FF0136FE010F
:10F7000053B60136A70008F60137E70008FF01539A
:10F710007EF2FDFE0134BDED7924037EF585BDEF5B
:10F72000FA811E26D308FF0136CE0169BDEE57BC13
:10F730000153273CA1002630E101262CBDECD3BDAE
:10F74000EE57E003A2022506FF01537EF2FDBDEE57
:10F750006CCB018900BDEC91EE00A700E701BDEC88
:10F76000ACEE04FF013620E308080808080820BFB3
:10F77000C6117EF0D0FE0134BDEEC38D1AB7014D27
:10F78000BDEEC3FF01348D4B24037EF5C6FE01346C
:10F79000BDF029EE006E00BDEFFA08813D2603861C
:10F7A0000039E600813C2613C13D26040886023953
:10F7B000C13E260408860339860139813E2705C6E5
:10F7C000067EF0D0C13D260408860539C13C27E4F9
:10F7D000860439B6014D48483716CEF7EABDE8E150
:10F7E00033BDEFAABDEE6C4D6E00271820122B1210
:10F7F000200E2B0E20F4260A200F270D2B022A02A2
:10F800000D390C395D27FB20F75D26F620F236BD59
:10F81000E27A260ABDE281811B26037EF09C323902
:10F82000FE0134B6013481012706FE0136080808BE
:10F830000839A600BDE33648484848B701D0A601BC
:10F84000BDE336BA01D0B701D0A602BDE3364848C1
:10F850004848B701D1A603BDE336BA01D1B701D1FB
:10F86000398040B7015648BB0156B70156FE0155D5
:10F870000839FF0128BDF861A600FE012839FF0103
:10F8800028BDF861E700FE012839BDF899FF029212
:10F89000FE0294A600FE0292397C029526037C02A9
:10F8A00094390D7D029526037A02947A02953901E6
:10FB0000000021000408312211213122112131226B
:08FB100062838C8EC3CCCE0091
:10FB2000414443418999A9B941444342C9D9E9F9BA
:10FB3000414444418B9BABBB41444442CBDBEBFB98
:10FB400041444444C3D3E3F3414E44418494A4B4B8
:10FB5000414E4442C4D4E4F4424954418595A5B58C
:10FB600042495442C5D5E5F5425352208D0000006C
:10FB7000434D50418191A1B1434D5042C1D1E1F17A
:10FB8000435058208C9CACBC454F52418898A8B833
:10FB9000454F5242C8D8E8F84A535220019DADBDA6
:10FBA0004C4441418696A6B64C444142C6D6E6F640
:10FBB0004C4453208E9EAEBE4C445820CEDEEEFE0A
:10FBC0004F5241418A9AAABA4F524142CADAEAFADE
:10FBD000534243418292A2B253424342C2D2E2F222
:10FBE000535441410197A7B75354414201D7E7F716
:10FBF0005354442001DDEDFD53545320019FAFBF0A
:10FC00005354582001DFEFFF535542418090A0B07C
:10FC100053554242C0D0E0F0000000000000000058
:10FC2000434C52206F7F4F5F434F4D2063734353CC
:10FC30004E45472060704050444543206A7A4A5AF6
:10FC4000494E43206C7C4C5C524F4C206979495999
:10FC5000524F52206676465641534C206878485899
:10FC600041535220677747574C5352206474445491
:10FC7000545354206D7D4D5D4A4D50206E7E7E7EE6
:10FC80000000000000000000414241201B4142589A
:10FC9000203A4243432024424353202542455120E9
:10FCA00027424745202C424754202E4248492022D3
:10FCB000424C45202F424C532023424C54202D428D
:10FCC0004D49202B424E45202642504C202A42527C
:10FCD00041202042524E2021425643202842565372
:10FCE00020294342412011434C43200C434C4920DE
:10FCF0000E434C56200A44414120194445532034B8
:10FD00004445582009494E532031494E5820084E49
:10FD10004F502001505348413650534842375055B8
:10FD20004C413250554C4233525449203B5254536B
:10FD300020395342412010534543200D534549205B
:10FD40000F534556200B535749203F54414220162C
:10FD5000544150200654424120175450412007542A
:10FD6000535820305458532035574149203E000005
:03FD700000000090
:10FFC8007EE1C27EE1DA7EE1E77EE2377EE2817E93
:10FFD800E2A87EE3447EE35D7EE2B17EE2FE7EE25D
:07FFE800E87EE20D7EE27AE3
:08FFF80000C000C3E8F1E000C5
:00000001FF
